{
	"FundMe/FundMe.sol": {
		"FundMe": {
			"abi": [
				{
					"inputs": [],
					"stateMutability": "nonpayable",
					"type": "constructor"
				},
				{
					"inputs": [],
					"name": "NotOwner",
					"type": "error"
				},
				{
					"stateMutability": "payable",
					"type": "fallback"
				},
				{
					"inputs": [
						{
							"internalType": "address",
							"name": "",
							"type": "address"
						}
					],
					"name": "AddressToMoneyFunded",
					"outputs": [
						{
							"internalType": "uint256",
							"name": "",
							"type": "uint256"
						}
					],
					"stateMutability": "view",
					"type": "function"
				},
				{
					"inputs": [],
					"name": "MIN_USD",
					"outputs": [
						{
							"internalType": "uint256",
							"name": "",
							"type": "uint256"
						}
					],
					"stateMutability": "view",
					"type": "function"
				},
				{
					"inputs": [],
					"name": "fund",
					"outputs": [],
					"stateMutability": "payable",
					"type": "function"
				},
				{
					"inputs": [
						{
							"internalType": "uint256",
							"name": "",
							"type": "uint256"
						}
					],
					"name": "funders",
					"outputs": [
						{
							"internalType": "address",
							"name": "",
							"type": "address"
						}
					],
					"stateMutability": "view",
					"type": "function"
				},
				{
					"inputs": [],
					"name": "i_owner",
					"outputs": [
						{
							"internalType": "address",
							"name": "",
							"type": "address"
						}
					],
					"stateMutability": "view",
					"type": "function"
				},
				{
					"inputs": [],
					"name": "withdraw",
					"outputs": [],
					"stateMutability": "nonpayable",
					"type": "function"
				},
				{
					"stateMutability": "payable",
					"type": "receive"
				}
			],
			"devdoc": {
				"kind": "dev",
				"methods": {},
				"version": 1
			},
			"evm": {
				"assembly": "    /* \"FundMe/FundMe.sol\":204:3746  contract FundMe {... */\n  mstore(0x40, 0xa0)\n    /* \"FundMe/FundMe.sol\":418:509  constructor() {... */\n  callvalue\n  dup1\n  iszero\n  tag_1\n  jumpi\n  0x00\n  dup1\n  revert\ntag_1:\n  pop\n    /* \"FundMe/FundMe.sol\":452:462  msg.sender */\n  caller\n    /* \"FundMe/FundMe.sol\":442:462  i_owner = msg.sender */\n  0xffffffffffffffffffffffffffffffffffffffff\n  and\n  0x80\n  dup2\n  0xffffffffffffffffffffffffffffffffffffffff\n  and\n  dup2\n  mstore\n  pop\n  pop\n    /* \"FundMe/FundMe.sol\":204:3746  contract FundMe {... */\n  mload(0x80)\n  codecopy(0x00, dataOffset(sub_0), dataSize(sub_0))\n  0x00\n  assignImmutable(\"0xcd41b8bf8f20f7ad95d96d948a315af225b219053fc98a80aee13063b692b681\")\n  return(0x00, dataSize(sub_0))\nstop\n\nsub_0: assembly {\n        /* \"FundMe/FundMe.sol\":204:3746  contract FundMe {... */\n      mstore(0x40, 0x80)\n      jumpi(tag_1, lt(calldatasize, 0x04))\n      shr(0xe0, calldataload(0x00))\n      dup1\n      0x213dbea2\n      eq\n      tag_3\n      jumpi\n      dup1\n      0x3ccfd60b\n      eq\n      tag_4\n      jumpi\n      dup1\n      0xb60d4288\n      eq\n      tag_5\n      jumpi\n      dup1\n      0xd310a282\n      eq\n      tag_6\n      jumpi\n      dup1\n      0xdba6335f\n      eq\n      tag_7\n      jumpi\n      dup1\n      0xdc0d3dff\n      eq\n      tag_8\n      jumpi\n      jump(tag_2)\n    tag_1:\n      jumpi(tag_2, calldatasize)\n        /* \"FundMe/FundMe.sol\":3674:3680  fund() */\n      tag_11\n        /* \"FundMe/FundMe.sol\":3674:3678  fund */\n      tag_12\n        /* \"FundMe/FundMe.sol\":3674:3680  fund() */\n      jump\t// in\n    tag_11:\n        /* \"FundMe/FundMe.sol\":204:3746  contract FundMe {... */\n      stop\n    tag_2:\n        /* \"FundMe/FundMe.sol\":3731:3737  fund() */\n      tag_15\n        /* \"FundMe/FundMe.sol\":3731:3735  fund */\n      tag_12\n        /* \"FundMe/FundMe.sol\":3731:3737  fund() */\n      jump\t// in\n    tag_15:\n        /* \"FundMe/FundMe.sol\":204:3746  contract FundMe {... */\n      stop\n        /* \"FundMe/FundMe.sol\":690:733  uint256 public constant MIN_USD = 50 * 1e18 */\n    tag_3:\n      callvalue\n      dup1\n      iszero\n      tag_16\n      jumpi\n      0x00\n      dup1\n      revert\n    tag_16:\n      pop\n      tag_17\n      tag_18\n      jump\t// in\n    tag_17:\n      mload(0x40)\n      tag_19\n      swap2\n      swap1\n      tag_20\n      jump\t// in\n    tag_19:\n      mload(0x40)\n      dup1\n      swap2\n      sub\n      swap1\n      return\n        /* \"FundMe/FundMe.sol\":1899:3442  function withdraw() public OnlyOwner {... */\n    tag_4:\n      callvalue\n      dup1\n      iszero\n      tag_21\n      jumpi\n      0x00\n      dup1\n      revert\n    tag_21:\n      pop\n      tag_22\n      tag_23\n      jump\t// in\n    tag_22:\n      stop\n        /* \"FundMe/FundMe.sol\":935:1492  function fund() public payable {... */\n    tag_5:\n      tag_24\n      tag_12\n      jump\t// in\n    tag_24:\n      stop\n        /* \"FundMe/FundMe.sol\":828:883  mapping(address => uint256) public AddressToMoneyFunded */\n    tag_6:\n      callvalue\n      dup1\n      iszero\n      tag_25\n      jumpi\n      0x00\n      dup1\n      revert\n    tag_25:\n      pop\n      tag_26\n      0x04\n      dup1\n      calldatasize\n      sub\n      dup2\n      add\n      swap1\n      tag_27\n      swap2\n      swap1\n      tag_28\n      jump\t// in\n    tag_27:\n      tag_29\n      jump\t// in\n    tag_26:\n      mload(0x40)\n      tag_30\n      swap2\n      swap1\n      tag_20\n      jump\t// in\n    tag_30:\n      mload(0x40)\n      dup1\n      swap2\n      sub\n      swap1\n      return\n        /* \"FundMe/FundMe.sol\":264:296  address public immutable i_owner */\n    tag_7:\n      callvalue\n      dup1\n      iszero\n      tag_31\n      jumpi\n      0x00\n      dup1\n      revert\n    tag_31:\n      pop\n      tag_32\n      tag_33\n      jump\t// in\n    tag_32:\n      mload(0x40)\n      tag_34\n      swap2\n      swap1\n      tag_35\n      jump\t// in\n    tag_34:\n      mload(0x40)\n      dup1\n      swap2\n      sub\n      swap1\n      return\n        /* \"FundMe/FundMe.sol\":778:802  address[] public funders */\n    tag_8:\n      callvalue\n      dup1\n      iszero\n      tag_36\n      jumpi\n      0x00\n      dup1\n      revert\n    tag_36:\n      pop\n      tag_37\n      0x04\n      dup1\n      calldatasize\n      sub\n      dup2\n      add\n      swap1\n      tag_38\n      swap2\n      swap1\n      tag_39\n      jump\t// in\n    tag_38:\n      tag_40\n      jump\t// in\n    tag_37:\n      mload(0x40)\n      tag_41\n      swap2\n      swap1\n      tag_35\n      jump\t// in\n    tag_41:\n      mload(0x40)\n      dup1\n      swap2\n      sub\n      swap1\n      return\n        /* \"FundMe/FundMe.sol\":935:1492  function fund() public payable {... */\n    tag_12:\n        /* \"FundMe/FundMe.sol\":724:733  50 * 1e18 */\n      0x02b5e3af16b1880000\n        /* \"FundMe/FundMe.sol\":1042:1071  msg.value.getConversionRate() */\n      tag_43\n        /* \"FundMe/FundMe.sol\":1042:1051  msg.value */\n      callvalue\n        /* \"FundMe/FundMe.sol\":1042:1069  msg.value.getConversionRate */\n      tag_44\n        /* \"FundMe/FundMe.sol\":1042:1071  msg.value.getConversionRate() */\n      jump\t// in\n    tag_43:\n        /* \"FundMe/FundMe.sol\":1042:1082  msg.value.getConversionRate() >= MIN_USD */\n      lt\n      iszero\n        /* \"FundMe/FundMe.sol\":1021:1159  require(... */\n      tag_45\n      jumpi\n      mload(0x40)\n      0x08c379a000000000000000000000000000000000000000000000000000000000\n      dup2\n      mstore\n      0x04\n      add\n      tag_46\n      swap1\n      tag_47\n      jump\t// in\n    tag_46:\n      mload(0x40)\n      dup1\n      swap2\n      sub\n      swap1\n      revert\n    tag_45:\n        /* \"FundMe/FundMe.sol\":1407:1414  funders */\n      0x00\n        /* \"FundMe/FundMe.sol\":1420:1430  msg.sender */\n      caller\n        /* \"FundMe/FundMe.sol\":1407:1431  funders.push(msg.sender) */\n      swap1\n      dup1\n      0x01\n      dup2\n      sload\n      add\n      dup1\n      dup3\n      sstore\n      dup1\n      swap2\n      pop\n      pop\n      0x01\n      swap1\n      sub\n      swap1\n      0x00\n      mstore\n      keccak256(0x00, 0x20)\n      add\n      0x00\n      swap1\n      swap2\n      swap1\n      swap2\n      swap1\n      swap2\n      0x0100\n      exp\n      dup2\n      sload\n      dup2\n      0xffffffffffffffffffffffffffffffffffffffff\n      mul\n      not\n      and\n      swap1\n      dup4\n      0xffffffffffffffffffffffffffffffffffffffff\n      and\n      mul\n      or\n      swap1\n      sstore\n      pop\n        /* \"FundMe/FundMe.sol\":1476:1485  msg.value */\n      callvalue\n        /* \"FundMe/FundMe.sol\":1441:1461  AddressToMoneyFunded */\n      0x01\n        /* \"FundMe/FundMe.sol\":1441:1473  AddressToMoneyFunded[msg.sender] */\n      0x00\n        /* \"FundMe/FundMe.sol\":1462:1472  msg.sender */\n      caller\n        /* \"FundMe/FundMe.sol\":1441:1473  AddressToMoneyFunded[msg.sender] */\n      0xffffffffffffffffffffffffffffffffffffffff\n      and\n      0xffffffffffffffffffffffffffffffffffffffff\n      and\n      dup2\n      mstore\n      0x20\n      add\n      swap1\n      dup2\n      mstore\n      0x20\n      add\n      0x00\n      keccak256\n        /* \"FundMe/FundMe.sol\":1441:1485  AddressToMoneyFunded[msg.sender] = msg.value */\n      dup2\n      swap1\n      sstore\n      pop\n        /* \"FundMe/FundMe.sol\":935:1492  function fund() public payable {... */\n      jump\t// out\n        /* \"FundMe/FundMe.sol\":690:733  uint256 public constant MIN_USD = 50 * 1e18 */\n    tag_18:\n        /* \"FundMe/FundMe.sol\":724:733  50 * 1e18 */\n      0x02b5e3af16b1880000\n        /* \"FundMe/FundMe.sol\":690:733  uint256 public constant MIN_USD = 50 * 1e18 */\n      dup2\n      jump\t// out\n        /* \"FundMe/FundMe.sol\":1899:3442  function withdraw() public OnlyOwner {... */\n    tag_23:\n        /* \"FundMe/FundMe.sol\":1715:1722  i_owner */\n      immutable(\"0xcd41b8bf8f20f7ad95d96d948a315af225b219053fc98a80aee13063b692b681\")\n        /* \"FundMe/FundMe.sol\":1701:1722  msg.sender != i_owner */\n      0xffffffffffffffffffffffffffffffffffffffff\n      and\n        /* \"FundMe/FundMe.sol\":1701:1711  msg.sender */\n      caller\n        /* \"FundMe/FundMe.sol\":1701:1722  msg.sender != i_owner */\n      0xffffffffffffffffffffffffffffffffffffffff\n      and\n      eq\n        /* \"FundMe/FundMe.sol\":1697:1766  if (msg.sender != i_owner) {... */\n      tag_50\n      jumpi\n        /* \"FundMe/FundMe.sol\":1745:1755  NotOwner() */\n      mload(0x40)\n      0x30cd747100000000000000000000000000000000000000000000000000000000\n      dup2\n      mstore\n      0x04\n      add\n      mload(0x40)\n      dup1\n      swap2\n      sub\n      swap1\n      revert\n        /* \"FundMe/FundMe.sol\":1697:1766  if (msg.sender != i_owner) {... */\n    tag_50:\n        /* \"FundMe/FundMe.sol\":2060:2080  uint256 fundersIndex */\n      0x00\n        /* \"FundMe/FundMe.sol\":2042:2275  for (... */\n    tag_52:\n        /* \"FundMe/FundMe.sol\":2113:2120  funders */\n      0x00\n        /* \"FundMe/FundMe.sol\":2113:2127  funders.length */\n      dup1\n      sload\n      swap1\n      pop\n        /* \"FundMe/FundMe.sol\":2098:2110  fundersIndex */\n      dup2\n        /* \"FundMe/FundMe.sol\":2098:2127  fundersIndex < funders.length */\n      lt\n        /* \"FundMe/FundMe.sol\":2042:2275  for (... */\n      iszero\n      tag_53\n      jumpi\n        /* \"FundMe/FundMe.sol\":2180:2194  address funder */\n      0x00\n        /* \"FundMe/FundMe.sol\":2197:2204  funders */\n      dup1\n        /* \"FundMe/FundMe.sol\":2205:2217  fundersIndex */\n      dup3\n        /* \"FundMe/FundMe.sol\":2197:2218  funders[fundersIndex] */\n      dup2\n      sload\n      dup2\n      lt\n      tag_55\n      jumpi\n      tag_56\n      tag_57\n      jump\t// in\n    tag_56:\n    tag_55:\n      swap1\n      0x00\n      mstore\n      keccak256(0x00, 0x20)\n      add\n      0x00\n      swap1\n      sload\n      swap1\n      0x0100\n      exp\n      swap1\n      div\n      0xffffffffffffffffffffffffffffffffffffffff\n      and\n        /* \"FundMe/FundMe.sol\":2180:2218  address funder = funders[fundersIndex] */\n      swap1\n      pop\n        /* \"FundMe/FundMe.sol\":2263:2264  0 */\n      0x00\n        /* \"FundMe/FundMe.sol\":2232:2252  AddressToMoneyFunded */\n      0x01\n        /* \"FundMe/FundMe.sol\":2232:2260  AddressToMoneyFunded[funder] */\n      0x00\n        /* \"FundMe/FundMe.sol\":2253:2259  funder */\n      dup4\n        /* \"FundMe/FundMe.sol\":2232:2260  AddressToMoneyFunded[funder] */\n      0xffffffffffffffffffffffffffffffffffffffff\n      and\n      0xffffffffffffffffffffffffffffffffffffffff\n      and\n      dup2\n      mstore\n      0x20\n      add\n      swap1\n      dup2\n      mstore\n      0x20\n      add\n      0x00\n      keccak256\n        /* \"FundMe/FundMe.sol\":2232:2264  AddressToMoneyFunded[funder] = 0 */\n      dup2\n      swap1\n      sstore\n      pop\n        /* \"FundMe/FundMe.sol\":2166:2275  {... */\n      pop\n        /* \"FundMe/FundMe.sol\":2141:2155  fundersIndex++ */\n      dup1\n      dup1\n      tag_59\n      swap1\n      tag_60\n      jump\t// in\n    tag_59:\n      swap2\n      pop\n      pop\n        /* \"FundMe/FundMe.sol\":2042:2275  for (... */\n      jump(tag_52)\n    tag_53:\n      pop\n        /* \"FundMe/FundMe.sol\":2354:2355  0 */\n      0x00\n        /* \"FundMe/FundMe.sol\":2340:2356  new address[](0) */\n      0xffffffffffffffff\n      dup2\n      gt\n      iszero\n      tag_61\n      jumpi\n      tag_62\n      tag_63\n      jump\t// in\n    tag_62:\n    tag_61:\n      mload(0x40)\n      swap1\n      dup1\n      dup3\n      mstore\n      dup1\n      0x20\n      mul\n      0x20\n      add\n      dup3\n      add\n      0x40\n      mstore\n      dup1\n      iszero\n      tag_64\n      jumpi\n      dup2\n      0x20\n      add\n      0x20\n      dup3\n      mul\n      dup1\n      calldatasize\n      dup4\n      calldatacopy\n      dup1\n      dup3\n      add\n      swap2\n      pop\n      pop\n      swap1\n      pop\n    tag_64:\n      pop\n        /* \"FundMe/FundMe.sol\":2330:2337  funders */\n      0x00\n        /* \"FundMe/FundMe.sol\":2330:2356  funders = new address[](0) */\n      swap1\n      dup1\n      mload\n      swap1\n      0x20\n      add\n      swap1\n      tag_65\n      swap3\n      swap2\n      swap1\n      tag_66\n      jump\t// in\n    tag_65:\n      pop\n        /* \"FundMe/FundMe.sol\":3288:3304  bool callSuccess */\n      0x00\n        /* \"FundMe/FundMe.sol\":3318:3328  msg.sender */\n      caller\n        /* \"FundMe/FundMe.sol\":3310:3334  payable(msg.sender).call */\n      0xffffffffffffffffffffffffffffffffffffffff\n      and\n        /* \"FundMe/FundMe.sol\":3355:3376  address(this).balance */\n      selfbalance\n        /* \"FundMe/FundMe.sol\":3310:3390  payable(msg.sender).call{... */\n      mload(0x40)\n      tag_67\n      swap1\n      tag_68\n      jump\t// in\n    tag_67:\n      0x00\n      mload(0x40)\n      dup1\n      dup4\n      sub\n      dup2\n      dup6\n      dup8\n      gas\n      call\n      swap3\n      pop\n      pop\n      pop\n      returndatasize\n      dup1\n      0x00\n      dup2\n      eq\n      tag_71\n      jumpi\n      mload(0x40)\n      swap2\n      pop\n      and(add(returndatasize, 0x3f), not(0x1f))\n      dup3\n      add\n      0x40\n      mstore\n      returndatasize\n      dup3\n      mstore\n      returndatasize\n      0x00\n      0x20\n      dup5\n      add\n      returndatacopy\n      jump(tag_70)\n    tag_71:\n      0x60\n      swap2\n      pop\n    tag_70:\n      pop\n        /* \"FundMe/FundMe.sol\":3287:3390  (bool callSuccess, ) = payable(msg.sender).call{... */\n      pop\n      swap1\n      pop\n        /* \"FundMe/FundMe.sol\":3408:3419  callSuccess */\n      dup1\n        /* \"FundMe/FundMe.sol\":3400:3435  require(callSuccess, \"call failed\") */\n      tag_72\n      jumpi\n      mload(0x40)\n      0x08c379a000000000000000000000000000000000000000000000000000000000\n      dup2\n      mstore\n      0x04\n      add\n      tag_73\n      swap1\n      tag_74\n      jump\t// in\n    tag_73:\n      mload(0x40)\n      dup1\n      swap2\n      sub\n      swap1\n      revert\n    tag_72:\n        /* \"FundMe/FundMe.sol\":1936:3442  {... */\n      pop\n        /* \"FundMe/FundMe.sol\":1899:3442  function withdraw() public OnlyOwner {... */\n      jump\t// out\n        /* \"FundMe/FundMe.sol\":828:883  mapping(address => uint256) public AddressToMoneyFunded */\n    tag_29:\n      mstore(0x20, 0x01)\n      dup1\n      0x00\n      mstore\n      keccak256(0x00, 0x40)\n      0x00\n      swap2\n      pop\n      swap1\n      pop\n      sload\n      dup2\n      jump\t// out\n        /* \"FundMe/FundMe.sol\":264:296  address public immutable i_owner */\n    tag_33:\n      immutable(\"0xcd41b8bf8f20f7ad95d96d948a315af225b219053fc98a80aee13063b692b681\")\n      dup2\n      jump\t// out\n        /* \"FundMe/FundMe.sol\":778:802  address[] public funders */\n    tag_40:\n      0x00\n      dup2\n      dup2\n      sload\n      dup2\n      lt\n      tag_75\n      jumpi\n      0x00\n      dup1\n      revert\n    tag_75:\n      swap1\n      0x00\n      mstore\n      keccak256(0x00, 0x20)\n      add\n      0x00\n      swap2\n      pop\n      sload\n      swap1\n      0x0100\n      exp\n      swap1\n      div\n      0xffffffffffffffffffffffffffffffffffffffff\n      and\n      dup2\n      jump\t// out\n        /* \"FundMe/PriceConverter.sol\":1138:1354  function getConversionRate(uint256 ethAmount) internal view returns(uint256) {... */\n    tag_44:\n        /* \"FundMe/PriceConverter.sol\":1206:1213  uint256 */\n      0x00\n        /* \"FundMe/PriceConverter.sol\":1226:1242  uint256 ethPrice */\n      dup1\n        /* \"FundMe/PriceConverter.sol\":1245:1255  getPrice() */\n      tag_78\n        /* \"FundMe/PriceConverter.sol\":1245:1253  getPrice */\n      tag_79\n        /* \"FundMe/PriceConverter.sol\":1245:1255  getPrice() */\n      jump\t// in\n    tag_78:\n        /* \"FundMe/PriceConverter.sol\":1226:1255  uint256 ethPrice = getPrice() */\n      swap1\n      pop\n        /* \"FundMe/PriceConverter.sol\":1266:1286  uint256 ethAmountUSD */\n      0x00\n        /* \"FundMe/PriceConverter.sol\":1312:1316  1e18 */\n      0x0de0b6b3a7640000\n        /* \"FundMe/PriceConverter.sol\":1300:1309  ethAmount */\n      dup5\n        /* \"FundMe/PriceConverter.sol\":1289:1297  ethPrice */\n      dup4\n        /* \"FundMe/PriceConverter.sol\":1289:1309  ethPrice * ethAmount */\n      tag_80\n      swap2\n      swap1\n      tag_81\n      jump\t// in\n    tag_80:\n        /* \"FundMe/PriceConverter.sol\":1289:1316  ethPrice * ethAmount / 1e18 */\n      tag_82\n      swap2\n      swap1\n      tag_83\n      jump\t// in\n    tag_82:\n        /* \"FundMe/PriceConverter.sol\":1266:1316  uint256 ethAmountUSD = ethPrice * ethAmount / 1e18 */\n      swap1\n      pop\n        /* \"FundMe/PriceConverter.sol\":1334:1346  ethAmountUSD */\n      dup1\n        /* \"FundMe/PriceConverter.sol\":1327:1346  return ethAmountUSD */\n      swap3\n      pop\n      pop\n      pop\n        /* \"FundMe/PriceConverter.sol\":1138:1354  function getConversionRate(uint256 ethAmount) internal view returns(uint256) {... */\n      swap2\n      swap1\n      pop\n      jump\t// out\n        /* \"FundMe/PriceConverter.sol\":300:762  function getPrice() internal view returns (uint256){... */\n    tag_79:\n        /* \"FundMe/PriceConverter.sol\":343:350  uint256 */\n      0x00\n        /* \"FundMe/PriceConverter.sol\":521:552  AggregatorV3Interface priceFeed */\n      dup1\n        /* \"FundMe/PriceConverter.sol\":577:619  0x694AA1769357215DE4FAC081bf1f309aDC325306 */\n      0x694aa1769357215de4fac081bf1f309adc325306\n        /* \"FundMe/PriceConverter.sol\":521:620  AggregatorV3Interface priceFeed = AggregatorV3Interface(0x694AA1769357215DE4FAC081bf1f309aDC325306) */\n      swap1\n      pop\n        /* \"FundMe/PriceConverter.sol\":633:645  int256 price */\n      0x00\n        /* \"FundMe/PriceConverter.sol\":652:661  priceFeed */\n      dup2\n        /* \"FundMe/PriceConverter.sol\":652:677  priceFeed.latestRoundData */\n      0xffffffffffffffffffffffffffffffffffffffff\n      and\n      0xfeaf968c\n        /* \"FundMe/PriceConverter.sol\":652:679  priceFeed.latestRoundData() */\n      mload(0x40)\n      dup2\n      0xffffffff\n      and\n      0xe0\n      shl\n      dup2\n      mstore\n      0x04\n      add\n      0xa0\n      mload(0x40)\n      dup1\n      dup4\n      sub\n      dup2\n      dup7\n      gas\n      staticcall\n      iszero\n      dup1\n      iszero\n      tag_86\n      jumpi\n      returndatasize\n      0x00\n      dup1\n      returndatacopy\n      revert(0x00, returndatasize)\n    tag_86:\n      pop\n      pop\n      pop\n      pop\n      mload(0x40)\n      returndatasize\n      not(0x1f)\n      0x1f\n      dup3\n      add\n      and\n      dup3\n      add\n      dup1\n      0x40\n      mstore\n      pop\n      dup2\n      add\n      swap1\n      tag_87\n      swap2\n      swap1\n      tag_88\n      jump\t// in\n    tag_87:\n        /* \"FundMe/PriceConverter.sol\":631:679  (,int256 price,,,) = priceFeed.latestRoundData() */\n      pop\n      pop\n      pop\n      swap2\n      pop\n      pop\n        /* \"FundMe/PriceConverter.sol\":713:717  1e10 */\n      0x02540be400\n        /* \"FundMe/PriceConverter.sol\":705:710  price */\n      dup2\n        /* \"FundMe/PriceConverter.sol\":705:717  price * 1e10 */\n      tag_89\n      swap2\n      swap1\n      tag_90\n      jump\t// in\n    tag_89:\n        /* \"FundMe/PriceConverter.sol\":690:718  return uint256(price * 1e10) */\n      swap3\n      pop\n      pop\n      pop\n        /* \"FundMe/PriceConverter.sol\":300:762  function getPrice() internal view returns (uint256){... */\n      swap1\n      jump\t// out\n    tag_66:\n      dup3\n      dup1\n      sload\n      dup3\n      dup3\n      sstore\n      swap1\n      0x00\n      mstore\n      keccak256(0x00, 0x20)\n      swap1\n      dup2\n      add\n      swap3\n      dup3\n      iszero\n      tag_91\n      jumpi\n      swap2\n      0x20\n      mul\n      dup3\n      add\n    tag_92:\n      dup3\n      dup2\n      gt\n      iszero\n      tag_93\n      jumpi\n      dup3\n      mload\n      dup3\n      exp(0x0100, 0x00)\n      dup2\n      sload\n      dup2\n      0xffffffffffffffffffffffffffffffffffffffff\n      mul\n      not\n      and\n      swap1\n      dup4\n      0xffffffffffffffffffffffffffffffffffffffff\n      and\n      mul\n      or\n      swap1\n      sstore\n      pop\n      swap2\n      0x20\n      add\n      swap2\n      swap1\n      0x01\n      add\n      swap1\n      jump(tag_92)\n    tag_93:\n    tag_91:\n      pop\n      swap1\n      pop\n      tag_94\n      swap2\n      swap1\n      tag_95\n      jump\t// in\n    tag_94:\n      pop\n      swap1\n      jump\t// out\n    tag_95:\n    tag_96:\n      dup1\n      dup3\n      gt\n      iszero\n      tag_97\n      jumpi\n      0x00\n      dup2\n      0x00\n      swap1\n      sstore\n      pop\n      0x01\n      add\n      jump(tag_96)\n    tag_97:\n      pop\n      swap1\n      jump\t// out\n        /* \"#utility.yul\":7:84   */\n    tag_98:\n        /* \"#utility.yul\":44:51   */\n      0x00\n        /* \"#utility.yul\":73:78   */\n      dup2\n        /* \"#utility.yul\":62:78   */\n      swap1\n      pop\n        /* \"#utility.yul\":7:84   */\n      swap2\n      swap1\n      pop\n      jump\t// out\n        /* \"#utility.yul\":90:208   */\n    tag_99:\n        /* \"#utility.yul\":177:201   */\n      tag_130\n        /* \"#utility.yul\":195:200   */\n      dup2\n        /* \"#utility.yul\":177:201   */\n      tag_98\n      jump\t// in\n    tag_130:\n        /* \"#utility.yul\":172:175   */\n      dup3\n        /* \"#utility.yul\":165:202   */\n      mstore\n        /* \"#utility.yul\":90:208   */\n      pop\n      pop\n      jump\t// out\n        /* \"#utility.yul\":214:436   */\n    tag_20:\n        /* \"#utility.yul\":307:311   */\n      0x00\n        /* \"#utility.yul\":345:347   */\n      0x20\n        /* \"#utility.yul\":334:343   */\n      dup3\n        /* \"#utility.yul\":330:348   */\n      add\n        /* \"#utility.yul\":322:348   */\n      swap1\n      pop\n        /* \"#utility.yul\":358:429   */\n      tag_132\n        /* \"#utility.yul\":426:427   */\n      0x00\n        /* \"#utility.yul\":415:424   */\n      dup4\n        /* \"#utility.yul\":411:428   */\n      add\n        /* \"#utility.yul\":402:408   */\n      dup5\n        /* \"#utility.yul\":358:429   */\n      tag_99\n      jump\t// in\n    tag_132:\n        /* \"#utility.yul\":214:436   */\n      swap3\n      swap2\n      pop\n      pop\n      jump\t// out\n        /* \"#utility.yul\":523:640   */\n    tag_101:\n        /* \"#utility.yul\":632:633   */\n      0x00\n        /* \"#utility.yul\":629:630   */\n      dup1\n        /* \"#utility.yul\":622:634   */\n      revert\n        /* \"#utility.yul\":769:895   */\n    tag_103:\n        /* \"#utility.yul\":806:813   */\n      0x00\n        /* \"#utility.yul\":846:888   */\n      0xffffffffffffffffffffffffffffffffffffffff\n        /* \"#utility.yul\":839:844   */\n      dup3\n        /* \"#utility.yul\":835:889   */\n      and\n        /* \"#utility.yul\":824:889   */\n      swap1\n      pop\n        /* \"#utility.yul\":769:895   */\n      swap2\n      swap1\n      pop\n      jump\t// out\n        /* \"#utility.yul\":901:997   */\n    tag_104:\n        /* \"#utility.yul\":938:945   */\n      0x00\n        /* \"#utility.yul\":967:991   */\n      tag_138\n        /* \"#utility.yul\":985:990   */\n      dup3\n        /* \"#utility.yul\":967:991   */\n      tag_103\n      jump\t// in\n    tag_138:\n        /* \"#utility.yul\":956:991   */\n      swap1\n      pop\n        /* \"#utility.yul\":901:997   */\n      swap2\n      swap1\n      pop\n      jump\t// out\n        /* \"#utility.yul\":1003:1125   */\n    tag_105:\n        /* \"#utility.yul\":1076:1100   */\n      tag_140\n        /* \"#utility.yul\":1094:1099   */\n      dup2\n        /* \"#utility.yul\":1076:1100   */\n      tag_104\n      jump\t// in\n    tag_140:\n        /* \"#utility.yul\":1069:1074   */\n      dup2\n        /* \"#utility.yul\":1066:1101   */\n      eq\n        /* \"#utility.yul\":1056:1119   */\n      tag_141\n      jumpi\n        /* \"#utility.yul\":1115:1116   */\n      0x00\n        /* \"#utility.yul\":1112:1113   */\n      dup1\n        /* \"#utility.yul\":1105:1117   */\n      revert\n        /* \"#utility.yul\":1056:1119   */\n    tag_141:\n        /* \"#utility.yul\":1003:1125   */\n      pop\n      jump\t// out\n        /* \"#utility.yul\":1131:1270   */\n    tag_106:\n        /* \"#utility.yul\":1177:1182   */\n      0x00\n        /* \"#utility.yul\":1215:1221   */\n      dup2\n        /* \"#utility.yul\":1202:1222   */\n      calldataload\n        /* \"#utility.yul\":1193:1222   */\n      swap1\n      pop\n        /* \"#utility.yul\":1231:1264   */\n      tag_143\n        /* \"#utility.yul\":1258:1263   */\n      dup2\n        /* \"#utility.yul\":1231:1264   */\n      tag_105\n      jump\t// in\n    tag_143:\n        /* \"#utility.yul\":1131:1270   */\n      swap3\n      swap2\n      pop\n      pop\n      jump\t// out\n        /* \"#utility.yul\":1276:1605   */\n    tag_28:\n        /* \"#utility.yul\":1335:1341   */\n      0x00\n        /* \"#utility.yul\":1384:1386   */\n      0x20\n        /* \"#utility.yul\":1372:1381   */\n      dup3\n        /* \"#utility.yul\":1363:1370   */\n      dup5\n        /* \"#utility.yul\":1359:1382   */\n      sub\n        /* \"#utility.yul\":1355:1387   */\n      slt\n        /* \"#utility.yul\":1352:1471   */\n      iszero\n      tag_145\n      jumpi\n        /* \"#utility.yul\":1390:1469   */\n      tag_146\n      tag_101\n      jump\t// in\n    tag_146:\n        /* \"#utility.yul\":1352:1471   */\n    tag_145:\n        /* \"#utility.yul\":1510:1511   */\n      0x00\n        /* \"#utility.yul\":1535:1588   */\n      tag_147\n        /* \"#utility.yul\":1580:1587   */\n      dup5\n        /* \"#utility.yul\":1571:1577   */\n      dup3\n        /* \"#utility.yul\":1560:1569   */\n      dup6\n        /* \"#utility.yul\":1556:1578   */\n      add\n        /* \"#utility.yul\":1535:1588   */\n      tag_106\n      jump\t// in\n    tag_147:\n        /* \"#utility.yul\":1525:1588   */\n      swap2\n      pop\n        /* \"#utility.yul\":1481:1598   */\n      pop\n        /* \"#utility.yul\":1276:1605   */\n      swap3\n      swap2\n      pop\n      pop\n      jump\t// out\n        /* \"#utility.yul\":1611:1729   */\n    tag_107:\n        /* \"#utility.yul\":1698:1722   */\n      tag_149\n        /* \"#utility.yul\":1716:1721   */\n      dup2\n        /* \"#utility.yul\":1698:1722   */\n      tag_104\n      jump\t// in\n    tag_149:\n        /* \"#utility.yul\":1693:1696   */\n      dup3\n        /* \"#utility.yul\":1686:1723   */\n      mstore\n        /* \"#utility.yul\":1611:1729   */\n      pop\n      pop\n      jump\t// out\n        /* \"#utility.yul\":1735:1957   */\n    tag_35:\n        /* \"#utility.yul\":1828:1832   */\n      0x00\n        /* \"#utility.yul\":1866:1868   */\n      0x20\n        /* \"#utility.yul\":1855:1864   */\n      dup3\n        /* \"#utility.yul\":1851:1869   */\n      add\n        /* \"#utility.yul\":1843:1869   */\n      swap1\n      pop\n        /* \"#utility.yul\":1879:1950   */\n      tag_151\n        /* \"#utility.yul\":1947:1948   */\n      0x00\n        /* \"#utility.yul\":1936:1945   */\n      dup4\n        /* \"#utility.yul\":1932:1949   */\n      add\n        /* \"#utility.yul\":1923:1929   */\n      dup5\n        /* \"#utility.yul\":1879:1950   */\n      tag_107\n      jump\t// in\n    tag_151:\n        /* \"#utility.yul\":1735:1957   */\n      swap3\n      swap2\n      pop\n      pop\n      jump\t// out\n        /* \"#utility.yul\":1963:2085   */\n    tag_108:\n        /* \"#utility.yul\":2036:2060   */\n      tag_153\n        /* \"#utility.yul\":2054:2059   */\n      dup2\n        /* \"#utility.yul\":2036:2060   */\n      tag_98\n      jump\t// in\n    tag_153:\n        /* \"#utility.yul\":2029:2034   */\n      dup2\n        /* \"#utility.yul\":2026:2061   */\n      eq\n        /* \"#utility.yul\":2016:2079   */\n      tag_154\n      jumpi\n        /* \"#utility.yul\":2075:2076   */\n      0x00\n        /* \"#utility.yul\":2072:2073   */\n      dup1\n        /* \"#utility.yul\":2065:2077   */\n      revert\n        /* \"#utility.yul\":2016:2079   */\n    tag_154:\n        /* \"#utility.yul\":1963:2085   */\n      pop\n      jump\t// out\n        /* \"#utility.yul\":2091:2230   */\n    tag_109:\n        /* \"#utility.yul\":2137:2142   */\n      0x00\n        /* \"#utility.yul\":2175:2181   */\n      dup2\n        /* \"#utility.yul\":2162:2182   */\n      calldataload\n        /* \"#utility.yul\":2153:2182   */\n      swap1\n      pop\n        /* \"#utility.yul\":2191:2224   */\n      tag_156\n        /* \"#utility.yul\":2218:2223   */\n      dup2\n        /* \"#utility.yul\":2191:2224   */\n      tag_108\n      jump\t// in\n    tag_156:\n        /* \"#utility.yul\":2091:2230   */\n      swap3\n      swap2\n      pop\n      pop\n      jump\t// out\n        /* \"#utility.yul\":2236:2565   */\n    tag_39:\n        /* \"#utility.yul\":2295:2301   */\n      0x00\n        /* \"#utility.yul\":2344:2346   */\n      0x20\n        /* \"#utility.yul\":2332:2341   */\n      dup3\n        /* \"#utility.yul\":2323:2330   */\n      dup5\n        /* \"#utility.yul\":2319:2342   */\n      sub\n        /* \"#utility.yul\":2315:2347   */\n      slt\n        /* \"#utility.yul\":2312:2431   */\n      iszero\n      tag_158\n      jumpi\n        /* \"#utility.yul\":2350:2429   */\n      tag_159\n      tag_101\n      jump\t// in\n    tag_159:\n        /* \"#utility.yul\":2312:2431   */\n    tag_158:\n        /* \"#utility.yul\":2470:2471   */\n      0x00\n        /* \"#utility.yul\":2495:2548   */\n      tag_160\n        /* \"#utility.yul\":2540:2547   */\n      dup5\n        /* \"#utility.yul\":2531:2537   */\n      dup3\n        /* \"#utility.yul\":2520:2529   */\n      dup6\n        /* \"#utility.yul\":2516:2538   */\n      add\n        /* \"#utility.yul\":2495:2548   */\n      tag_109\n      jump\t// in\n    tag_160:\n        /* \"#utility.yul\":2485:2548   */\n      swap2\n      pop\n        /* \"#utility.yul\":2441:2558   */\n      pop\n        /* \"#utility.yul\":2236:2565   */\n      swap3\n      swap2\n      pop\n      pop\n      jump\t// out\n        /* \"#utility.yul\":2571:2740   */\n    tag_110:\n        /* \"#utility.yul\":2655:2666   */\n      0x00\n        /* \"#utility.yul\":2689:2695   */\n      dup3\n        /* \"#utility.yul\":2684:2687   */\n      dup3\n        /* \"#utility.yul\":2677:2696   */\n      mstore\n        /* \"#utility.yul\":2729:2733   */\n      0x20\n        /* \"#utility.yul\":2724:2727   */\n      dup3\n        /* \"#utility.yul\":2720:2734   */\n      add\n        /* \"#utility.yul\":2705:2734   */\n      swap1\n      pop\n        /* \"#utility.yul\":2571:2740   */\n      swap3\n      swap2\n      pop\n      pop\n      jump\t// out\n        /* \"#utility.yul\":2746:2984   */\n    tag_111:\n        /* \"#utility.yul\":2886:2920   */\n      0x46756e6473206e6f742073756666696369656e742c206d696e696d756d206465\n        /* \"#utility.yul\":2882:2883   */\n      0x00\n        /* \"#utility.yul\":2874:2880   */\n      dup3\n        /* \"#utility.yul\":2870:2884   */\n      add\n        /* \"#utility.yul\":2863:2921   */\n      mstore\n        /* \"#utility.yul\":2955:2976   */\n      0x706f736974206d75737420626520312045544800000000000000000000000000\n        /* \"#utility.yul\":2950:2952   */\n      0x20\n        /* \"#utility.yul\":2942:2948   */\n      dup3\n        /* \"#utility.yul\":2938:2953   */\n      add\n        /* \"#utility.yul\":2931:2977   */\n      mstore\n        /* \"#utility.yul\":2746:2984   */\n      pop\n      jump\t// out\n        /* \"#utility.yul\":2990:3356   */\n    tag_112:\n        /* \"#utility.yul\":3132:3135   */\n      0x00\n        /* \"#utility.yul\":3153:3220   */\n      tag_164\n        /* \"#utility.yul\":3217:3219   */\n      0x33\n        /* \"#utility.yul\":3212:3215   */\n      dup4\n        /* \"#utility.yul\":3153:3220   */\n      tag_110\n      jump\t// in\n    tag_164:\n        /* \"#utility.yul\":3146:3220   */\n      swap2\n      pop\n        /* \"#utility.yul\":3229:3322   */\n      tag_165\n        /* \"#utility.yul\":3318:3321   */\n      dup3\n        /* \"#utility.yul\":3229:3322   */\n      tag_111\n      jump\t// in\n    tag_165:\n        /* \"#utility.yul\":3347:3349   */\n      0x40\n        /* \"#utility.yul\":3342:3345   */\n      dup3\n        /* \"#utility.yul\":3338:3350   */\n      add\n        /* \"#utility.yul\":3331:3350   */\n      swap1\n      pop\n        /* \"#utility.yul\":2990:3356   */\n      swap2\n      swap1\n      pop\n      jump\t// out\n        /* \"#utility.yul\":3362:3781   */\n    tag_47:\n        /* \"#utility.yul\":3528:3532   */\n      0x00\n        /* \"#utility.yul\":3566:3568   */\n      0x20\n        /* \"#utility.yul\":3555:3564   */\n      dup3\n        /* \"#utility.yul\":3551:3569   */\n      add\n        /* \"#utility.yul\":3543:3569   */\n      swap1\n      pop\n        /* \"#utility.yul\":3615:3624   */\n      dup2\n        /* \"#utility.yul\":3609:3613   */\n      dup2\n        /* \"#utility.yul\":3605:3625   */\n      sub\n        /* \"#utility.yul\":3601:3602   */\n      0x00\n        /* \"#utility.yul\":3590:3599   */\n      dup4\n        /* \"#utility.yul\":3586:3603   */\n      add\n        /* \"#utility.yul\":3579:3626   */\n      mstore\n        /* \"#utility.yul\":3643:3774   */\n      tag_167\n        /* \"#utility.yul\":3769:3773   */\n      dup2\n        /* \"#utility.yul\":3643:3774   */\n      tag_112\n      jump\t// in\n    tag_167:\n        /* \"#utility.yul\":3635:3774   */\n      swap1\n      pop\n        /* \"#utility.yul\":3362:3781   */\n      swap2\n      swap1\n      pop\n      jump\t// out\n        /* \"#utility.yul\":3787:3967   */\n    tag_57:\n        /* \"#utility.yul\":3835:3912   */\n      0x4e487b7100000000000000000000000000000000000000000000000000000000\n        /* \"#utility.yul\":3832:3833   */\n      0x00\n        /* \"#utility.yul\":3825:3913   */\n      mstore\n        /* \"#utility.yul\":3932:3936   */\n      0x32\n        /* \"#utility.yul\":3929:3930   */\n      0x04\n        /* \"#utility.yul\":3922:3937   */\n      mstore\n        /* \"#utility.yul\":3956:3960   */\n      0x24\n        /* \"#utility.yul\":3953:3954   */\n      0x00\n        /* \"#utility.yul\":3946:3961   */\n      revert\n        /* \"#utility.yul\":3973:4153   */\n    tag_113:\n        /* \"#utility.yul\":4021:4098   */\n      0x4e487b7100000000000000000000000000000000000000000000000000000000\n        /* \"#utility.yul\":4018:4019   */\n      0x00\n        /* \"#utility.yul\":4011:4099   */\n      mstore\n        /* \"#utility.yul\":4118:4122   */\n      0x11\n        /* \"#utility.yul\":4115:4116   */\n      0x04\n        /* \"#utility.yul\":4108:4123   */\n      mstore\n        /* \"#utility.yul\":4142:4146   */\n      0x24\n        /* \"#utility.yul\":4139:4140   */\n      0x00\n        /* \"#utility.yul\":4132:4147   */\n      revert\n        /* \"#utility.yul\":4159:4392   */\n    tag_60:\n        /* \"#utility.yul\":4198:4201   */\n      0x00\n        /* \"#utility.yul\":4221:4245   */\n      tag_171\n        /* \"#utility.yul\":4239:4244   */\n      dup3\n        /* \"#utility.yul\":4221:4245   */\n      tag_98\n      jump\t// in\n    tag_171:\n        /* \"#utility.yul\":4212:4245   */\n      swap2\n      pop\n        /* \"#utility.yul\":4267:4333   */\n      0xffffffffffffffffffffffffffffffffffffffffffffffffffffffffffffffff\n        /* \"#utility.yul\":4260:4265   */\n      dup3\n        /* \"#utility.yul\":4257:4334   */\n      sub\n        /* \"#utility.yul\":4254:4357   */\n      tag_172\n      jumpi\n        /* \"#utility.yul\":4337:4355   */\n      tag_173\n      tag_113\n      jump\t// in\n    tag_173:\n        /* \"#utility.yul\":4254:4357   */\n    tag_172:\n        /* \"#utility.yul\":4384:4385   */\n      0x01\n        /* \"#utility.yul\":4377:4382   */\n      dup3\n        /* \"#utility.yul\":4373:4386   */\n      add\n        /* \"#utility.yul\":4366:4386   */\n      swap1\n      pop\n        /* \"#utility.yul\":4159:4392   */\n      swap2\n      swap1\n      pop\n      jump\t// out\n        /* \"#utility.yul\":4398:4578   */\n    tag_63:\n        /* \"#utility.yul\":4446:4523   */\n      0x4e487b7100000000000000000000000000000000000000000000000000000000\n        /* \"#utility.yul\":4443:4444   */\n      0x00\n        /* \"#utility.yul\":4436:4524   */\n      mstore\n        /* \"#utility.yul\":4543:4547   */\n      0x41\n        /* \"#utility.yul\":4540:4541   */\n      0x04\n        /* \"#utility.yul\":4533:4548   */\n      mstore\n        /* \"#utility.yul\":4567:4571   */\n      0x24\n        /* \"#utility.yul\":4564:4565   */\n      0x00\n        /* \"#utility.yul\":4557:4572   */\n      revert\n        /* \"#utility.yul\":4584:4731   */\n    tag_114:\n        /* \"#utility.yul\":4685:4696   */\n      0x00\n        /* \"#utility.yul\":4722:4725   */\n      dup2\n        /* \"#utility.yul\":4707:4725   */\n      swap1\n      pop\n        /* \"#utility.yul\":4584:4731   */\n      swap3\n      swap2\n      pop\n      pop\n      jump\t// out\n        /* \"#utility.yul\":4737:4851   */\n    tag_115:\n      pop\n      jump\t// out\n        /* \"#utility.yul\":4857:5255   */\n    tag_116:\n        /* \"#utility.yul\":5016:5019   */\n      0x00\n        /* \"#utility.yul\":5037:5120   */\n      tag_178\n        /* \"#utility.yul\":5118:5119   */\n      0x00\n        /* \"#utility.yul\":5113:5116   */\n      dup4\n        /* \"#utility.yul\":5037:5120   */\n      tag_114\n      jump\t// in\n    tag_178:\n        /* \"#utility.yul\":5030:5120   */\n      swap2\n      pop\n        /* \"#utility.yul\":5129:5222   */\n      tag_179\n        /* \"#utility.yul\":5218:5221   */\n      dup3\n        /* \"#utility.yul\":5129:5222   */\n      tag_115\n      jump\t// in\n    tag_179:\n        /* \"#utility.yul\":5247:5248   */\n      0x00\n        /* \"#utility.yul\":5242:5245   */\n      dup3\n        /* \"#utility.yul\":5238:5249   */\n      add\n        /* \"#utility.yul\":5231:5249   */\n      swap1\n      pop\n        /* \"#utility.yul\":4857:5255   */\n      swap2\n      swap1\n      pop\n      jump\t// out\n        /* \"#utility.yul\":5261:5640   */\n    tag_68:\n        /* \"#utility.yul\":5445:5448   */\n      0x00\n        /* \"#utility.yul\":5467:5614   */\n      tag_181\n        /* \"#utility.yul\":5610:5613   */\n      dup3\n        /* \"#utility.yul\":5467:5614   */\n      tag_116\n      jump\t// in\n    tag_181:\n        /* \"#utility.yul\":5460:5614   */\n      swap2\n      pop\n        /* \"#utility.yul\":5631:5634   */\n      dup2\n        /* \"#utility.yul\":5624:5634   */\n      swap1\n      pop\n        /* \"#utility.yul\":5261:5640   */\n      swap2\n      swap1\n      pop\n      jump\t// out\n        /* \"#utility.yul\":5646:5807   */\n    tag_117:\n        /* \"#utility.yul\":5786:5799   */\n      0x63616c6c206661696c6564000000000000000000000000000000000000000000\n        /* \"#utility.yul\":5782:5783   */\n      0x00\n        /* \"#utility.yul\":5774:5780   */\n      dup3\n        /* \"#utility.yul\":5770:5784   */\n      add\n        /* \"#utility.yul\":5763:5800   */\n      mstore\n        /* \"#utility.yul\":5646:5807   */\n      pop\n      jump\t// out\n        /* \"#utility.yul\":5813:6179   */\n    tag_118:\n        /* \"#utility.yul\":5955:5958   */\n      0x00\n        /* \"#utility.yul\":5976:6043   */\n      tag_184\n        /* \"#utility.yul\":6040:6042   */\n      0x0b\n        /* \"#utility.yul\":6035:6038   */\n      dup4\n        /* \"#utility.yul\":5976:6043   */\n      tag_110\n      jump\t// in\n    tag_184:\n        /* \"#utility.yul\":5969:6043   */\n      swap2\n      pop\n        /* \"#utility.yul\":6052:6145   */\n      tag_185\n        /* \"#utility.yul\":6141:6144   */\n      dup3\n        /* \"#utility.yul\":6052:6145   */\n      tag_117\n      jump\t// in\n    tag_185:\n        /* \"#utility.yul\":6170:6172   */\n      0x20\n        /* \"#utility.yul\":6165:6168   */\n      dup3\n        /* \"#utility.yul\":6161:6173   */\n      add\n        /* \"#utility.yul\":6154:6173   */\n      swap1\n      pop\n        /* \"#utility.yul\":5813:6179   */\n      swap2\n      swap1\n      pop\n      jump\t// out\n        /* \"#utility.yul\":6185:6604   */\n    tag_74:\n        /* \"#utility.yul\":6351:6355   */\n      0x00\n        /* \"#utility.yul\":6389:6391   */\n      0x20\n        /* \"#utility.yul\":6378:6387   */\n      dup3\n        /* \"#utility.yul\":6374:6392   */\n      add\n        /* \"#utility.yul\":6366:6392   */\n      swap1\n      pop\n        /* \"#utility.yul\":6438:6447   */\n      dup2\n        /* \"#utility.yul\":6432:6436   */\n      dup2\n        /* \"#utility.yul\":6428:6448   */\n      sub\n        /* \"#utility.yul\":6424:6425   */\n      0x00\n        /* \"#utility.yul\":6413:6422   */\n      dup4\n        /* \"#utility.yul\":6409:6426   */\n      add\n        /* \"#utility.yul\":6402:6449   */\n      mstore\n        /* \"#utility.yul\":6466:6597   */\n      tag_187\n        /* \"#utility.yul\":6592:6596   */\n      dup2\n        /* \"#utility.yul\":6466:6597   */\n      tag_118\n      jump\t// in\n    tag_187:\n        /* \"#utility.yul\":6458:6597   */\n      swap1\n      pop\n        /* \"#utility.yul\":6185:6604   */\n      swap2\n      swap1\n      pop\n      jump\t// out\n        /* \"#utility.yul\":6610:7020   */\n    tag_81:\n        /* \"#utility.yul\":6650:6657   */\n      0x00\n        /* \"#utility.yul\":6673:6693   */\n      tag_189\n        /* \"#utility.yul\":6691:6692   */\n      dup3\n        /* \"#utility.yul\":6673:6693   */\n      tag_98\n      jump\t// in\n    tag_189:\n        /* \"#utility.yul\":6668:6693   */\n      swap2\n      pop\n        /* \"#utility.yul\":6707:6727   */\n      tag_190\n        /* \"#utility.yul\":6725:6726   */\n      dup4\n        /* \"#utility.yul\":6707:6727   */\n      tag_98\n      jump\t// in\n    tag_190:\n        /* \"#utility.yul\":6702:6727   */\n      swap3\n      pop\n        /* \"#utility.yul\":6762:6763   */\n      dup3\n        /* \"#utility.yul\":6759:6760   */\n      dup3\n        /* \"#utility.yul\":6755:6764   */\n      mul\n        /* \"#utility.yul\":6784:6814   */\n      tag_191\n        /* \"#utility.yul\":6802:6813   */\n      dup2\n        /* \"#utility.yul\":6784:6814   */\n      tag_98\n      jump\t// in\n    tag_191:\n        /* \"#utility.yul\":6773:6814   */\n      swap2\n      pop\n        /* \"#utility.yul\":6963:6964   */\n      dup3\n        /* \"#utility.yul\":6954:6961   */\n      dup3\n        /* \"#utility.yul\":6950:6965   */\n      div\n        /* \"#utility.yul\":6947:6948   */\n      dup5\n        /* \"#utility.yul\":6944:6966   */\n      eq\n        /* \"#utility.yul\":6924:6925   */\n      dup4\n        /* \"#utility.yul\":6917:6926   */\n      iszero\n        /* \"#utility.yul\":6897:6980   */\n      or\n        /* \"#utility.yul\":6874:7013   */\n      tag_192\n      jumpi\n        /* \"#utility.yul\":6993:7011   */\n      tag_193\n      tag_113\n      jump\t// in\n    tag_193:\n        /* \"#utility.yul\":6874:7013   */\n    tag_192:\n        /* \"#utility.yul\":6658:7020   */\n      pop\n        /* \"#utility.yul\":6610:7020   */\n      swap3\n      swap2\n      pop\n      pop\n      jump\t// out\n        /* \"#utility.yul\":7026:7206   */\n    tag_119:\n        /* \"#utility.yul\":7074:7151   */\n      0x4e487b7100000000000000000000000000000000000000000000000000000000\n        /* \"#utility.yul\":7071:7072   */\n      0x00\n        /* \"#utility.yul\":7064:7152   */\n      mstore\n        /* \"#utility.yul\":7171:7175   */\n      0x12\n        /* \"#utility.yul\":7168:7169   */\n      0x04\n        /* \"#utility.yul\":7161:7176   */\n      mstore\n        /* \"#utility.yul\":7195:7199   */\n      0x24\n        /* \"#utility.yul\":7192:7193   */\n      0x00\n        /* \"#utility.yul\":7185:7200   */\n      revert\n        /* \"#utility.yul\":7212:7397   */\n    tag_83:\n        /* \"#utility.yul\":7252:7253   */\n      0x00\n        /* \"#utility.yul\":7269:7289   */\n      tag_196\n        /* \"#utility.yul\":7287:7288   */\n      dup3\n        /* \"#utility.yul\":7269:7289   */\n      tag_98\n      jump\t// in\n    tag_196:\n        /* \"#utility.yul\":7264:7289   */\n      swap2\n      pop\n        /* \"#utility.yul\":7303:7323   */\n      tag_197\n        /* \"#utility.yul\":7321:7322   */\n      dup4\n        /* \"#utility.yul\":7303:7323   */\n      tag_98\n      jump\t// in\n    tag_197:\n        /* \"#utility.yul\":7298:7323   */\n      swap3\n      pop\n        /* \"#utility.yul\":7342:7343   */\n      dup3\n        /* \"#utility.yul\":7332:7367   */\n      tag_198\n      jumpi\n        /* \"#utility.yul\":7347:7365   */\n      tag_199\n      tag_119\n      jump\t// in\n    tag_199:\n        /* \"#utility.yul\":7332:7367   */\n    tag_198:\n        /* \"#utility.yul\":7389:7390   */\n      dup3\n        /* \"#utility.yul\":7386:7387   */\n      dup3\n        /* \"#utility.yul\":7382:7391   */\n      div\n        /* \"#utility.yul\":7377:7391   */\n      swap1\n      pop\n        /* \"#utility.yul\":7212:7397   */\n      swap3\n      swap2\n      pop\n      pop\n      jump\t// out\n        /* \"#utility.yul\":7403:7508   */\n    tag_120:\n        /* \"#utility.yul\":7439:7446   */\n      0x00\n        /* \"#utility.yul\":7479:7501   */\n      0xffffffffffffffffffff\n        /* \"#utility.yul\":7472:7477   */\n      dup3\n        /* \"#utility.yul\":7468:7502   */\n      and\n        /* \"#utility.yul\":7457:7502   */\n      swap1\n      pop\n        /* \"#utility.yul\":7403:7508   */\n      swap2\n      swap1\n      pop\n      jump\t// out\n        /* \"#utility.yul\":7514:7634   */\n    tag_121:\n        /* \"#utility.yul\":7586:7609   */\n      tag_202\n        /* \"#utility.yul\":7603:7608   */\n      dup2\n        /* \"#utility.yul\":7586:7609   */\n      tag_120\n      jump\t// in\n    tag_202:\n        /* \"#utility.yul\":7579:7584   */\n      dup2\n        /* \"#utility.yul\":7576:7610   */\n      eq\n        /* \"#utility.yul\":7566:7628   */\n      tag_203\n      jumpi\n        /* \"#utility.yul\":7624:7625   */\n      0x00\n        /* \"#utility.yul\":7621:7622   */\n      dup1\n        /* \"#utility.yul\":7614:7626   */\n      revert\n        /* \"#utility.yul\":7566:7628   */\n    tag_203:\n        /* \"#utility.yul\":7514:7634   */\n      pop\n      jump\t// out\n        /* \"#utility.yul\":7640:7781   */\n    tag_122:\n        /* \"#utility.yul\":7696:7701   */\n      0x00\n        /* \"#utility.yul\":7727:7733   */\n      dup2\n        /* \"#utility.yul\":7721:7734   */\n      mload\n        /* \"#utility.yul\":7712:7734   */\n      swap1\n      pop\n        /* \"#utility.yul\":7743:7775   */\n      tag_205\n        /* \"#utility.yul\":7769:7774   */\n      dup2\n        /* \"#utility.yul\":7743:7775   */\n      tag_121\n      jump\t// in\n    tag_205:\n        /* \"#utility.yul\":7640:7781   */\n      swap3\n      swap2\n      pop\n      pop\n      jump\t// out\n        /* \"#utility.yul\":7787:7863   */\n    tag_123:\n        /* \"#utility.yul\":7823:7830   */\n      0x00\n        /* \"#utility.yul\":7852:7857   */\n      dup2\n        /* \"#utility.yul\":7841:7857   */\n      swap1\n      pop\n        /* \"#utility.yul\":7787:7863   */\n      swap2\n      swap1\n      pop\n      jump\t// out\n        /* \"#utility.yul\":7869:7989   */\n    tag_124:\n        /* \"#utility.yul\":7941:7964   */\n      tag_208\n        /* \"#utility.yul\":7958:7963   */\n      dup2\n        /* \"#utility.yul\":7941:7964   */\n      tag_123\n      jump\t// in\n    tag_208:\n        /* \"#utility.yul\":7934:7939   */\n      dup2\n        /* \"#utility.yul\":7931:7965   */\n      eq\n        /* \"#utility.yul\":7921:7983   */\n      tag_209\n      jumpi\n        /* \"#utility.yul\":7979:7980   */\n      0x00\n        /* \"#utility.yul\":7976:7977   */\n      dup1\n        /* \"#utility.yul\":7969:7981   */\n      revert\n        /* \"#utility.yul\":7921:7983   */\n    tag_209:\n        /* \"#utility.yul\":7869:7989   */\n      pop\n      jump\t// out\n        /* \"#utility.yul\":7995:8136   */\n    tag_125:\n        /* \"#utility.yul\":8051:8056   */\n      0x00\n        /* \"#utility.yul\":8082:8088   */\n      dup2\n        /* \"#utility.yul\":8076:8089   */\n      mload\n        /* \"#utility.yul\":8067:8089   */\n      swap1\n      pop\n        /* \"#utility.yul\":8098:8130   */\n      tag_211\n        /* \"#utility.yul\":8124:8129   */\n      dup2\n        /* \"#utility.yul\":8098:8130   */\n      tag_124\n      jump\t// in\n    tag_211:\n        /* \"#utility.yul\":7995:8136   */\n      swap3\n      swap2\n      pop\n      pop\n      jump\t// out\n        /* \"#utility.yul\":8142:8285   */\n    tag_126:\n        /* \"#utility.yul\":8199:8204   */\n      0x00\n        /* \"#utility.yul\":8230:8236   */\n      dup2\n        /* \"#utility.yul\":8224:8237   */\n      mload\n        /* \"#utility.yul\":8215:8237   */\n      swap1\n      pop\n        /* \"#utility.yul\":8246:8279   */\n      tag_213\n        /* \"#utility.yul\":8273:8278   */\n      dup2\n        /* \"#utility.yul\":8246:8279   */\n      tag_108\n      jump\t// in\n    tag_213:\n        /* \"#utility.yul\":8142:8285   */\n      swap3\n      swap2\n      pop\n      pop\n      jump\t// out\n        /* \"#utility.yul\":8291:9262   */\n    tag_88:\n        /* \"#utility.yul\":8394:8400   */\n      0x00\n        /* \"#utility.yul\":8402:8408   */\n      dup1\n        /* \"#utility.yul\":8410:8416   */\n      0x00\n        /* \"#utility.yul\":8418:8424   */\n      dup1\n        /* \"#utility.yul\":8426:8432   */\n      0x00\n        /* \"#utility.yul\":8475:8478   */\n      0xa0\n        /* \"#utility.yul\":8463:8472   */\n      dup7\n        /* \"#utility.yul\":8454:8461   */\n      dup9\n        /* \"#utility.yul\":8450:8473   */\n      sub\n        /* \"#utility.yul\":8446:8479   */\n      slt\n        /* \"#utility.yul\":8443:8563   */\n      iszero\n      tag_215\n      jumpi\n        /* \"#utility.yul\":8482:8561   */\n      tag_216\n      tag_101\n      jump\t// in\n    tag_216:\n        /* \"#utility.yul\":8443:8563   */\n    tag_215:\n        /* \"#utility.yul\":8602:8603   */\n      0x00\n        /* \"#utility.yul\":8627:8690   */\n      tag_217\n        /* \"#utility.yul\":8682:8689   */\n      dup9\n        /* \"#utility.yul\":8673:8679   */\n      dup3\n        /* \"#utility.yul\":8662:8671   */\n      dup10\n        /* \"#utility.yul\":8658:8680   */\n      add\n        /* \"#utility.yul\":8627:8690   */\n      tag_122\n      jump\t// in\n    tag_217:\n        /* \"#utility.yul\":8617:8690   */\n      swap6\n      pop\n        /* \"#utility.yul\":8573:8700   */\n      pop\n        /* \"#utility.yul\":8739:8741   */\n      0x20\n        /* \"#utility.yul\":8765:8828   */\n      tag_218\n        /* \"#utility.yul\":8820:8827   */\n      dup9\n        /* \"#utility.yul\":8811:8817   */\n      dup3\n        /* \"#utility.yul\":8800:8809   */\n      dup10\n        /* \"#utility.yul\":8796:8818   */\n      add\n        /* \"#utility.yul\":8765:8828   */\n      tag_125\n      jump\t// in\n    tag_218:\n        /* \"#utility.yul\":8755:8828   */\n      swap5\n      pop\n        /* \"#utility.yul\":8710:8838   */\n      pop\n        /* \"#utility.yul\":8877:8879   */\n      0x40\n        /* \"#utility.yul\":8903:8967   */\n      tag_219\n        /* \"#utility.yul\":8959:8966   */\n      dup9\n        /* \"#utility.yul\":8950:8956   */\n      dup3\n        /* \"#utility.yul\":8939:8948   */\n      dup10\n        /* \"#utility.yul\":8935:8957   */\n      add\n        /* \"#utility.yul\":8903:8967   */\n      tag_126\n      jump\t// in\n    tag_219:\n        /* \"#utility.yul\":8893:8967   */\n      swap4\n      pop\n        /* \"#utility.yul\":8848:8977   */\n      pop\n        /* \"#utility.yul\":9016:9018   */\n      0x60\n        /* \"#utility.yul\":9042:9106   */\n      tag_220\n        /* \"#utility.yul\":9098:9105   */\n      dup9\n        /* \"#utility.yul\":9089:9095   */\n      dup3\n        /* \"#utility.yul\":9078:9087   */\n      dup10\n        /* \"#utility.yul\":9074:9096   */\n      add\n        /* \"#utility.yul\":9042:9106   */\n      tag_126\n      jump\t// in\n    tag_220:\n        /* \"#utility.yul\":9032:9106   */\n      swap3\n      pop\n        /* \"#utility.yul\":8987:9116   */\n      pop\n        /* \"#utility.yul\":9155:9158   */\n      0x80\n        /* \"#utility.yul\":9182:9245   */\n      tag_221\n        /* \"#utility.yul\":9237:9244   */\n      dup9\n        /* \"#utility.yul\":9228:9234   */\n      dup3\n        /* \"#utility.yul\":9217:9226   */\n      dup10\n        /* \"#utility.yul\":9213:9235   */\n      add\n        /* \"#utility.yul\":9182:9245   */\n      tag_122\n      jump\t// in\n    tag_221:\n        /* \"#utility.yul\":9172:9245   */\n      swap2\n      pop\n        /* \"#utility.yul\":9126:9255   */\n      pop\n        /* \"#utility.yul\":8291:9262   */\n      swap3\n      swap6\n      pop\n      swap3\n      swap6\n      swap1\n      swap4\n      pop\n      jump\t// out\n        /* \"#utility.yul\":9268:9824   */\n    tag_90:\n        /* \"#utility.yul\":9307:9314   */\n      0x00\n        /* \"#utility.yul\":9330:9349   */\n      tag_223\n        /* \"#utility.yul\":9347:9348   */\n      dup3\n        /* \"#utility.yul\":9330:9349   */\n      tag_123\n      jump\t// in\n    tag_223:\n        /* \"#utility.yul\":9325:9349   */\n      swap2\n      pop\n        /* \"#utility.yul\":9363:9382   */\n      tag_224\n        /* \"#utility.yul\":9380:9381   */\n      dup4\n        /* \"#utility.yul\":9363:9382   */\n      tag_123\n      jump\t// in\n    tag_224:\n        /* \"#utility.yul\":9358:9382   */\n      swap3\n      pop\n        /* \"#utility.yul\":9417:9418   */\n      dup3\n        /* \"#utility.yul\":9414:9415   */\n      dup3\n        /* \"#utility.yul\":9410:9419   */\n      mul\n        /* \"#utility.yul\":9439:9468   */\n      tag_225\n        /* \"#utility.yul\":9456:9467   */\n      dup2\n        /* \"#utility.yul\":9439:9468   */\n      tag_123\n      jump\t// in\n    tag_225:\n        /* \"#utility.yul\":9428:9468   */\n      swap2\n      pop\n        /* \"#utility.yul\":9526:9592   */\n      0x8000000000000000000000000000000000000000000000000000000000000000\n        /* \"#utility.yul\":9523:9524   */\n      dup5\n        /* \"#utility.yul\":9520:9593   */\n      eq\n        /* \"#utility.yul\":9516:9517   */\n      0x00\n        /* \"#utility.yul\":9513:9514   */\n      dup5\n        /* \"#utility.yul\":9509:9518   */\n      slt\n        /* \"#utility.yul\":9505:9594   */\n      and\n        /* \"#utility.yul\":9502:9617   */\n      iszero\n      tag_226\n      jumpi\n        /* \"#utility.yul\":9597:9615   */\n      tag_227\n      tag_113\n      jump\t// in\n    tag_227:\n        /* \"#utility.yul\":9502:9617   */\n    tag_226:\n        /* \"#utility.yul\":9767:9768   */\n      dup3\n        /* \"#utility.yul\":9758:9765   */\n      dup3\n        /* \"#utility.yul\":9753:9769   */\n      sdiv\n        /* \"#utility.yul\":9750:9751   */\n      dup5\n        /* \"#utility.yul\":9747:9770   */\n      eq\n        /* \"#utility.yul\":9727:9728   */\n      dup4\n        /* \"#utility.yul\":9720:9729   */\n      iszero\n        /* \"#utility.yul\":9700:9784   */\n      or\n        /* \"#utility.yul\":9677:9817   */\n      tag_228\n      jumpi\n        /* \"#utility.yul\":9797:9815   */\n      tag_229\n      tag_113\n      jump\t// in\n    tag_229:\n        /* \"#utility.yul\":9677:9817   */\n    tag_228:\n        /* \"#utility.yul\":9315:9824   */\n      pop\n        /* \"#utility.yul\":9268:9824   */\n      swap3\n      swap2\n      pop\n      pop\n      jump\t// out\n\n    auxdata: 0xa26469706673582212202f96d5e0af8db98c2bbe14acc9fe089d427d0858d4b77b2d4af661f2d5c3203564736f6c63430008120033\n}\n",
				"bytecode": {
					"linkReferences": {},
					"object": "60a060405234801561001057600080fd5b503373ffffffffffffffffffffffffffffffffffffffff1660808173ffffffffffffffffffffffffffffffffffffffff1681525050608051610c7b6100676000396000818161026f01526104c70152610c7b6000f3fe6080604052600436106100595760003560e01c8063213dbea2146100725780633ccfd60b1461009d578063b60d4288146100b4578063d310a282146100be578063dba6335f146100fb578063dc0d3dff1461012657610068565b3661006857610066610163565b005b610070610163565b005b34801561007e57600080fd5b50610087610260565b60405161009491906106cb565b60405180910390f35b3480156100a957600080fd5b506100b261026d565b005b6100bc610163565b005b3480156100ca57600080fd5b506100e560048036038101906100e09190610749565b6104ad565b6040516100f291906106cb565b60405180910390f35b34801561010757600080fd5b506101106104c5565b60405161011d9190610785565b60405180910390f35b34801561013257600080fd5b5061014d600480360381019061014891906107cc565b6104e9565b60405161015a9190610785565b60405180910390f35b6802b5e3af16b188000061017634610528565b10156101b7576040517f08c379a00000000000000000000000000000000000000000000000000000000081526004016101ae9061087c565b60405180910390fd5b6000339080600181540180825580915050600190039060005260206000200160009091909190916101000a81548173ffffffffffffffffffffffffffffffffffffffff021916908373ffffffffffffffffffffffffffffffffffffffff16021790555034600160003373ffffffffffffffffffffffffffffffffffffffff1673ffffffffffffffffffffffffffffffffffffffff16815260200190815260200160002081905550565b6802b5e3af16b188000081565b7f000000000000000000000000000000000000000000000000000000000000000073ffffffffffffffffffffffffffffffffffffffff163373ffffffffffffffffffffffffffffffffffffffff16146102f2576040517f30cd747100000000000000000000000000000000000000000000000000000000815260040160405180910390fd5b60005b60008054905081101561039d5760008082815481106103175761031661089c565b5b9060005260206000200160009054906101000a900473ffffffffffffffffffffffffffffffffffffffff1690506000600160008373ffffffffffffffffffffffffffffffffffffffff1673ffffffffffffffffffffffffffffffffffffffff16815260200190815260200160002081905550508080610395906108fa565b9150506102f5565b50600067ffffffffffffffff8111156103b9576103b8610942565b5b6040519080825280602002602001820160405280156103e75781602001602082028036833780820191505090505b50600090805190602001906103fd92919061060b565b5060003373ffffffffffffffffffffffffffffffffffffffff1647604051610424906109a2565b60006040518083038185875af1925050503d8060008114610461576040519150601f19603f3d011682016040523d82523d6000602084013e610466565b606091505b50509050806104aa576040517f08c379a00000000000000000000000000000000000000000000000000000000081526004016104a190610a03565b60405180910390fd5b50565b60016020528060005260406000206000915090505481565b7f000000000000000000000000000000000000000000000000000000000000000081565b600081815481106104f957600080fd5b906000526020600020016000915054906101000a900473ffffffffffffffffffffffffffffffffffffffff1681565b600080610533610562565b90506000670de0b6b3a7640000848361054c9190610a23565b6105569190610a94565b90508092505050919050565b60008073694aa1769357215de4fac081bf1f309adc325306905060008173ffffffffffffffffffffffffffffffffffffffff1663feaf968c6040518163ffffffff1660e01b815260040160a060405180830381865afa1580156105c9573d6000803e3d6000fd5b505050506040513d601f19601f820116820180604052508101906105ed9190610b52565b5050509150506402540be400816106049190610bcd565b9250505090565b828054828255906000526020600020908101928215610684579160200282015b828111156106835782518260006101000a81548173ffffffffffffffffffffffffffffffffffffffff021916908373ffffffffffffffffffffffffffffffffffffffff1602179055509160200191906001019061062b565b5b5090506106919190610695565b5090565b5b808211156106ae576000816000905550600101610696565b5090565b6000819050919050565b6106c5816106b2565b82525050565b60006020820190506106e060008301846106bc565b92915050565b600080fd5b600073ffffffffffffffffffffffffffffffffffffffff82169050919050565b6000610716826106eb565b9050919050565b6107268161070b565b811461073157600080fd5b50565b6000813590506107438161071d565b92915050565b60006020828403121561075f5761075e6106e6565b5b600061076d84828501610734565b91505092915050565b61077f8161070b565b82525050565b600060208201905061079a6000830184610776565b92915050565b6107a9816106b2565b81146107b457600080fd5b50565b6000813590506107c6816107a0565b92915050565b6000602082840312156107e2576107e16106e6565b5b60006107f0848285016107b7565b91505092915050565b600082825260208201905092915050565b7f46756e6473206e6f742073756666696369656e742c206d696e696d756d20646560008201527f706f736974206d75737420626520312045544800000000000000000000000000602082015250565b60006108666033836107f9565b91506108718261080a565b604082019050919050565b6000602082019050818103600083015261089581610859565b9050919050565b7f4e487b7100000000000000000000000000000000000000000000000000000000600052603260045260246000fd5b7f4e487b7100000000000000000000000000000000000000000000000000000000600052601160045260246000fd5b6000610905826106b2565b91507fffffffffffffffffffffffffffffffffffffffffffffffffffffffffffffffff8203610937576109366108cb565b5b600182019050919050565b7f4e487b7100000000000000000000000000000000000000000000000000000000600052604160045260246000fd5b600081905092915050565b50565b600061098c600083610971565b91506109978261097c565b600082019050919050565b60006109ad8261097f565b9150819050919050565b7f63616c6c206661696c6564000000000000000000000000000000000000000000600082015250565b60006109ed600b836107f9565b91506109f8826109b7565b602082019050919050565b60006020820190508181036000830152610a1c816109e0565b9050919050565b6000610a2e826106b2565b9150610a39836106b2565b9250828202610a47816106b2565b91508282048414831517610a5e57610a5d6108cb565b5b5092915050565b7f4e487b7100000000000000000000000000000000000000000000000000000000600052601260045260246000fd5b6000610a9f826106b2565b9150610aaa836106b2565b925082610aba57610ab9610a65565b5b828204905092915050565b600069ffffffffffffffffffff82169050919050565b610ae481610ac5565b8114610aef57600080fd5b50565b600081519050610b0181610adb565b92915050565b6000819050919050565b610b1a81610b07565b8114610b2557600080fd5b50565b600081519050610b3781610b11565b92915050565b600081519050610b4c816107a0565b92915050565b600080600080600060a08688031215610b6e57610b6d6106e6565b5b6000610b7c88828901610af2565b9550506020610b8d88828901610b28565b9450506040610b9e88828901610b3d565b9350506060610baf88828901610b3d565b9250506080610bc088828901610af2565b9150509295509295909350565b6000610bd882610b07565b9150610be383610b07565b9250828202610bf181610b07565b91507f80000000000000000000000000000000000000000000000000000000000000008414600084121615610c2957610c286108cb565b5b8282058414831517610c3e57610c3d6108cb565b5b509291505056fea26469706673582212202f96d5e0af8db98c2bbe14acc9fe089d427d0858d4b77b2d4af661f2d5c3203564736f6c63430008120033",
					"opcodes": "PUSH1 0xA0 PUSH1 0x40 MSTORE CALLVALUE DUP1 ISZERO PUSH2 0x10 JUMPI PUSH1 0x0 DUP1 REVERT JUMPDEST POP CALLER PUSH20 0xFFFFFFFFFFFFFFFFFFFFFFFFFFFFFFFFFFFFFFFF AND PUSH1 0x80 DUP2 PUSH20 0xFFFFFFFFFFFFFFFFFFFFFFFFFFFFFFFFFFFFFFFF AND DUP2 MSTORE POP POP PUSH1 0x80 MLOAD PUSH2 0xC7B PUSH2 0x67 PUSH1 0x0 CODECOPY PUSH1 0x0 DUP2 DUP2 PUSH2 0x26F ADD MSTORE PUSH2 0x4C7 ADD MSTORE PUSH2 0xC7B PUSH1 0x0 RETURN INVALID PUSH1 0x80 PUSH1 0x40 MSTORE PUSH1 0x4 CALLDATASIZE LT PUSH2 0x59 JUMPI PUSH1 0x0 CALLDATALOAD PUSH1 0xE0 SHR DUP1 PUSH4 0x213DBEA2 EQ PUSH2 0x72 JUMPI DUP1 PUSH4 0x3CCFD60B EQ PUSH2 0x9D JUMPI DUP1 PUSH4 0xB60D4288 EQ PUSH2 0xB4 JUMPI DUP1 PUSH4 0xD310A282 EQ PUSH2 0xBE JUMPI DUP1 PUSH4 0xDBA6335F EQ PUSH2 0xFB JUMPI DUP1 PUSH4 0xDC0D3DFF EQ PUSH2 0x126 JUMPI PUSH2 0x68 JUMP JUMPDEST CALLDATASIZE PUSH2 0x68 JUMPI PUSH2 0x66 PUSH2 0x163 JUMP JUMPDEST STOP JUMPDEST PUSH2 0x70 PUSH2 0x163 JUMP JUMPDEST STOP JUMPDEST CALLVALUE DUP1 ISZERO PUSH2 0x7E JUMPI PUSH1 0x0 DUP1 REVERT JUMPDEST POP PUSH2 0x87 PUSH2 0x260 JUMP JUMPDEST PUSH1 0x40 MLOAD PUSH2 0x94 SWAP2 SWAP1 PUSH2 0x6CB JUMP JUMPDEST PUSH1 0x40 MLOAD DUP1 SWAP2 SUB SWAP1 RETURN JUMPDEST CALLVALUE DUP1 ISZERO PUSH2 0xA9 JUMPI PUSH1 0x0 DUP1 REVERT JUMPDEST POP PUSH2 0xB2 PUSH2 0x26D JUMP JUMPDEST STOP JUMPDEST PUSH2 0xBC PUSH2 0x163 JUMP JUMPDEST STOP JUMPDEST CALLVALUE DUP1 ISZERO PUSH2 0xCA JUMPI PUSH1 0x0 DUP1 REVERT JUMPDEST POP PUSH2 0xE5 PUSH1 0x4 DUP1 CALLDATASIZE SUB DUP2 ADD SWAP1 PUSH2 0xE0 SWAP2 SWAP1 PUSH2 0x749 JUMP JUMPDEST PUSH2 0x4AD JUMP JUMPDEST PUSH1 0x40 MLOAD PUSH2 0xF2 SWAP2 SWAP1 PUSH2 0x6CB JUMP JUMPDEST PUSH1 0x40 MLOAD DUP1 SWAP2 SUB SWAP1 RETURN JUMPDEST CALLVALUE DUP1 ISZERO PUSH2 0x107 JUMPI PUSH1 0x0 DUP1 REVERT JUMPDEST POP PUSH2 0x110 PUSH2 0x4C5 JUMP JUMPDEST PUSH1 0x40 MLOAD PUSH2 0x11D SWAP2 SWAP1 PUSH2 0x785 JUMP JUMPDEST PUSH1 0x40 MLOAD DUP1 SWAP2 SUB SWAP1 RETURN JUMPDEST CALLVALUE DUP1 ISZERO PUSH2 0x132 JUMPI PUSH1 0x0 DUP1 REVERT JUMPDEST POP PUSH2 0x14D PUSH1 0x4 DUP1 CALLDATASIZE SUB DUP2 ADD SWAP1 PUSH2 0x148 SWAP2 SWAP1 PUSH2 0x7CC JUMP JUMPDEST PUSH2 0x4E9 JUMP JUMPDEST PUSH1 0x40 MLOAD PUSH2 0x15A SWAP2 SWAP1 PUSH2 0x785 JUMP JUMPDEST PUSH1 0x40 MLOAD DUP1 SWAP2 SUB SWAP1 RETURN JUMPDEST PUSH9 0x2B5E3AF16B1880000 PUSH2 0x176 CALLVALUE PUSH2 0x528 JUMP JUMPDEST LT ISZERO PUSH2 0x1B7 JUMPI PUSH1 0x40 MLOAD PUSH32 0x8C379A000000000000000000000000000000000000000000000000000000000 DUP2 MSTORE PUSH1 0x4 ADD PUSH2 0x1AE SWAP1 PUSH2 0x87C JUMP JUMPDEST PUSH1 0x40 MLOAD DUP1 SWAP2 SUB SWAP1 REVERT JUMPDEST PUSH1 0x0 CALLER SWAP1 DUP1 PUSH1 0x1 DUP2 SLOAD ADD DUP1 DUP3 SSTORE DUP1 SWAP2 POP POP PUSH1 0x1 SWAP1 SUB SWAP1 PUSH1 0x0 MSTORE PUSH1 0x20 PUSH1 0x0 KECCAK256 ADD PUSH1 0x0 SWAP1 SWAP2 SWAP1 SWAP2 SWAP1 SWAP2 PUSH2 0x100 EXP DUP2 SLOAD DUP2 PUSH20 0xFFFFFFFFFFFFFFFFFFFFFFFFFFFFFFFFFFFFFFFF MUL NOT AND SWAP1 DUP4 PUSH20 0xFFFFFFFFFFFFFFFFFFFFFFFFFFFFFFFFFFFFFFFF AND MUL OR SWAP1 SSTORE POP CALLVALUE PUSH1 0x1 PUSH1 0x0 CALLER PUSH20 0xFFFFFFFFFFFFFFFFFFFFFFFFFFFFFFFFFFFFFFFF AND PUSH20 0xFFFFFFFFFFFFFFFFFFFFFFFFFFFFFFFFFFFFFFFF AND DUP2 MSTORE PUSH1 0x20 ADD SWAP1 DUP2 MSTORE PUSH1 0x20 ADD PUSH1 0x0 KECCAK256 DUP2 SWAP1 SSTORE POP JUMP JUMPDEST PUSH9 0x2B5E3AF16B1880000 DUP2 JUMP JUMPDEST PUSH32 0x0 PUSH20 0xFFFFFFFFFFFFFFFFFFFFFFFFFFFFFFFFFFFFFFFF AND CALLER PUSH20 0xFFFFFFFFFFFFFFFFFFFFFFFFFFFFFFFFFFFFFFFF AND EQ PUSH2 0x2F2 JUMPI PUSH1 0x40 MLOAD PUSH32 0x30CD747100000000000000000000000000000000000000000000000000000000 DUP2 MSTORE PUSH1 0x4 ADD PUSH1 0x40 MLOAD DUP1 SWAP2 SUB SWAP1 REVERT JUMPDEST PUSH1 0x0 JUMPDEST PUSH1 0x0 DUP1 SLOAD SWAP1 POP DUP2 LT ISZERO PUSH2 0x39D JUMPI PUSH1 0x0 DUP1 DUP3 DUP2 SLOAD DUP2 LT PUSH2 0x317 JUMPI PUSH2 0x316 PUSH2 0x89C JUMP JUMPDEST JUMPDEST SWAP1 PUSH1 0x0 MSTORE PUSH1 0x20 PUSH1 0x0 KECCAK256 ADD PUSH1 0x0 SWAP1 SLOAD SWAP1 PUSH2 0x100 EXP SWAP1 DIV PUSH20 0xFFFFFFFFFFFFFFFFFFFFFFFFFFFFFFFFFFFFFFFF AND SWAP1 POP PUSH1 0x0 PUSH1 0x1 PUSH1 0x0 DUP4 PUSH20 0xFFFFFFFFFFFFFFFFFFFFFFFFFFFFFFFFFFFFFFFF AND PUSH20 0xFFFFFFFFFFFFFFFFFFFFFFFFFFFFFFFFFFFFFFFF AND DUP2 MSTORE PUSH1 0x20 ADD SWAP1 DUP2 MSTORE PUSH1 0x20 ADD PUSH1 0x0 KECCAK256 DUP2 SWAP1 SSTORE POP POP DUP1 DUP1 PUSH2 0x395 SWAP1 PUSH2 0x8FA JUMP JUMPDEST SWAP2 POP POP PUSH2 0x2F5 JUMP JUMPDEST POP PUSH1 0x0 PUSH8 0xFFFFFFFFFFFFFFFF DUP2 GT ISZERO PUSH2 0x3B9 JUMPI PUSH2 0x3B8 PUSH2 0x942 JUMP JUMPDEST JUMPDEST PUSH1 0x40 MLOAD SWAP1 DUP1 DUP3 MSTORE DUP1 PUSH1 0x20 MUL PUSH1 0x20 ADD DUP3 ADD PUSH1 0x40 MSTORE DUP1 ISZERO PUSH2 0x3E7 JUMPI DUP2 PUSH1 0x20 ADD PUSH1 0x20 DUP3 MUL DUP1 CALLDATASIZE DUP4 CALLDATACOPY DUP1 DUP3 ADD SWAP2 POP POP SWAP1 POP JUMPDEST POP PUSH1 0x0 SWAP1 DUP1 MLOAD SWAP1 PUSH1 0x20 ADD SWAP1 PUSH2 0x3FD SWAP3 SWAP2 SWAP1 PUSH2 0x60B JUMP JUMPDEST POP PUSH1 0x0 CALLER PUSH20 0xFFFFFFFFFFFFFFFFFFFFFFFFFFFFFFFFFFFFFFFF AND SELFBALANCE PUSH1 0x40 MLOAD PUSH2 0x424 SWAP1 PUSH2 0x9A2 JUMP JUMPDEST PUSH1 0x0 PUSH1 0x40 MLOAD DUP1 DUP4 SUB DUP2 DUP6 DUP8 GAS CALL SWAP3 POP POP POP RETURNDATASIZE DUP1 PUSH1 0x0 DUP2 EQ PUSH2 0x461 JUMPI PUSH1 0x40 MLOAD SWAP2 POP PUSH1 0x1F NOT PUSH1 0x3F RETURNDATASIZE ADD AND DUP3 ADD PUSH1 0x40 MSTORE RETURNDATASIZE DUP3 MSTORE RETURNDATASIZE PUSH1 0x0 PUSH1 0x20 DUP5 ADD RETURNDATACOPY PUSH2 0x466 JUMP JUMPDEST PUSH1 0x60 SWAP2 POP JUMPDEST POP POP SWAP1 POP DUP1 PUSH2 0x4AA JUMPI PUSH1 0x40 MLOAD PUSH32 0x8C379A000000000000000000000000000000000000000000000000000000000 DUP2 MSTORE PUSH1 0x4 ADD PUSH2 0x4A1 SWAP1 PUSH2 0xA03 JUMP JUMPDEST PUSH1 0x40 MLOAD DUP1 SWAP2 SUB SWAP1 REVERT JUMPDEST POP JUMP JUMPDEST PUSH1 0x1 PUSH1 0x20 MSTORE DUP1 PUSH1 0x0 MSTORE PUSH1 0x40 PUSH1 0x0 KECCAK256 PUSH1 0x0 SWAP2 POP SWAP1 POP SLOAD DUP2 JUMP JUMPDEST PUSH32 0x0 DUP2 JUMP JUMPDEST PUSH1 0x0 DUP2 DUP2 SLOAD DUP2 LT PUSH2 0x4F9 JUMPI PUSH1 0x0 DUP1 REVERT JUMPDEST SWAP1 PUSH1 0x0 MSTORE PUSH1 0x20 PUSH1 0x0 KECCAK256 ADD PUSH1 0x0 SWAP2 POP SLOAD SWAP1 PUSH2 0x100 EXP SWAP1 DIV PUSH20 0xFFFFFFFFFFFFFFFFFFFFFFFFFFFFFFFFFFFFFFFF AND DUP2 JUMP JUMPDEST PUSH1 0x0 DUP1 PUSH2 0x533 PUSH2 0x562 JUMP JUMPDEST SWAP1 POP PUSH1 0x0 PUSH8 0xDE0B6B3A7640000 DUP5 DUP4 PUSH2 0x54C SWAP2 SWAP1 PUSH2 0xA23 JUMP JUMPDEST PUSH2 0x556 SWAP2 SWAP1 PUSH2 0xA94 JUMP JUMPDEST SWAP1 POP DUP1 SWAP3 POP POP POP SWAP2 SWAP1 POP JUMP JUMPDEST PUSH1 0x0 DUP1 PUSH20 0x694AA1769357215DE4FAC081BF1F309ADC325306 SWAP1 POP PUSH1 0x0 DUP2 PUSH20 0xFFFFFFFFFFFFFFFFFFFFFFFFFFFFFFFFFFFFFFFF AND PUSH4 0xFEAF968C PUSH1 0x40 MLOAD DUP2 PUSH4 0xFFFFFFFF AND PUSH1 0xE0 SHL DUP2 MSTORE PUSH1 0x4 ADD PUSH1 0xA0 PUSH1 0x40 MLOAD DUP1 DUP4 SUB DUP2 DUP7 GAS STATICCALL ISZERO DUP1 ISZERO PUSH2 0x5C9 JUMPI RETURNDATASIZE PUSH1 0x0 DUP1 RETURNDATACOPY RETURNDATASIZE PUSH1 0x0 REVERT JUMPDEST POP POP POP POP PUSH1 0x40 MLOAD RETURNDATASIZE PUSH1 0x1F NOT PUSH1 0x1F DUP3 ADD AND DUP3 ADD DUP1 PUSH1 0x40 MSTORE POP DUP2 ADD SWAP1 PUSH2 0x5ED SWAP2 SWAP1 PUSH2 0xB52 JUMP JUMPDEST POP POP POP SWAP2 POP POP PUSH5 0x2540BE400 DUP2 PUSH2 0x604 SWAP2 SWAP1 PUSH2 0xBCD JUMP JUMPDEST SWAP3 POP POP POP SWAP1 JUMP JUMPDEST DUP3 DUP1 SLOAD DUP3 DUP3 SSTORE SWAP1 PUSH1 0x0 MSTORE PUSH1 0x20 PUSH1 0x0 KECCAK256 SWAP1 DUP2 ADD SWAP3 DUP3 ISZERO PUSH2 0x684 JUMPI SWAP2 PUSH1 0x20 MUL DUP3 ADD JUMPDEST DUP3 DUP2 GT ISZERO PUSH2 0x683 JUMPI DUP3 MLOAD DUP3 PUSH1 0x0 PUSH2 0x100 EXP DUP2 SLOAD DUP2 PUSH20 0xFFFFFFFFFFFFFFFFFFFFFFFFFFFFFFFFFFFFFFFF MUL NOT AND SWAP1 DUP4 PUSH20 0xFFFFFFFFFFFFFFFFFFFFFFFFFFFFFFFFFFFFFFFF AND MUL OR SWAP1 SSTORE POP SWAP2 PUSH1 0x20 ADD SWAP2 SWAP1 PUSH1 0x1 ADD SWAP1 PUSH2 0x62B JUMP JUMPDEST JUMPDEST POP SWAP1 POP PUSH2 0x691 SWAP2 SWAP1 PUSH2 0x695 JUMP JUMPDEST POP SWAP1 JUMP JUMPDEST JUMPDEST DUP1 DUP3 GT ISZERO PUSH2 0x6AE JUMPI PUSH1 0x0 DUP2 PUSH1 0x0 SWAP1 SSTORE POP PUSH1 0x1 ADD PUSH2 0x696 JUMP JUMPDEST POP SWAP1 JUMP JUMPDEST PUSH1 0x0 DUP2 SWAP1 POP SWAP2 SWAP1 POP JUMP JUMPDEST PUSH2 0x6C5 DUP2 PUSH2 0x6B2 JUMP JUMPDEST DUP3 MSTORE POP POP JUMP JUMPDEST PUSH1 0x0 PUSH1 0x20 DUP3 ADD SWAP1 POP PUSH2 0x6E0 PUSH1 0x0 DUP4 ADD DUP5 PUSH2 0x6BC JUMP JUMPDEST SWAP3 SWAP2 POP POP JUMP JUMPDEST PUSH1 0x0 DUP1 REVERT JUMPDEST PUSH1 0x0 PUSH20 0xFFFFFFFFFFFFFFFFFFFFFFFFFFFFFFFFFFFFFFFF DUP3 AND SWAP1 POP SWAP2 SWAP1 POP JUMP JUMPDEST PUSH1 0x0 PUSH2 0x716 DUP3 PUSH2 0x6EB JUMP JUMPDEST SWAP1 POP SWAP2 SWAP1 POP JUMP JUMPDEST PUSH2 0x726 DUP2 PUSH2 0x70B JUMP JUMPDEST DUP2 EQ PUSH2 0x731 JUMPI PUSH1 0x0 DUP1 REVERT JUMPDEST POP JUMP JUMPDEST PUSH1 0x0 DUP2 CALLDATALOAD SWAP1 POP PUSH2 0x743 DUP2 PUSH2 0x71D JUMP JUMPDEST SWAP3 SWAP2 POP POP JUMP JUMPDEST PUSH1 0x0 PUSH1 0x20 DUP3 DUP5 SUB SLT ISZERO PUSH2 0x75F JUMPI PUSH2 0x75E PUSH2 0x6E6 JUMP JUMPDEST JUMPDEST PUSH1 0x0 PUSH2 0x76D DUP5 DUP3 DUP6 ADD PUSH2 0x734 JUMP JUMPDEST SWAP2 POP POP SWAP3 SWAP2 POP POP JUMP JUMPDEST PUSH2 0x77F DUP2 PUSH2 0x70B JUMP JUMPDEST DUP3 MSTORE POP POP JUMP JUMPDEST PUSH1 0x0 PUSH1 0x20 DUP3 ADD SWAP1 POP PUSH2 0x79A PUSH1 0x0 DUP4 ADD DUP5 PUSH2 0x776 JUMP JUMPDEST SWAP3 SWAP2 POP POP JUMP JUMPDEST PUSH2 0x7A9 DUP2 PUSH2 0x6B2 JUMP JUMPDEST DUP2 EQ PUSH2 0x7B4 JUMPI PUSH1 0x0 DUP1 REVERT JUMPDEST POP JUMP JUMPDEST PUSH1 0x0 DUP2 CALLDATALOAD SWAP1 POP PUSH2 0x7C6 DUP2 PUSH2 0x7A0 JUMP JUMPDEST SWAP3 SWAP2 POP POP JUMP JUMPDEST PUSH1 0x0 PUSH1 0x20 DUP3 DUP5 SUB SLT ISZERO PUSH2 0x7E2 JUMPI PUSH2 0x7E1 PUSH2 0x6E6 JUMP JUMPDEST JUMPDEST PUSH1 0x0 PUSH2 0x7F0 DUP5 DUP3 DUP6 ADD PUSH2 0x7B7 JUMP JUMPDEST SWAP2 POP POP SWAP3 SWAP2 POP POP JUMP JUMPDEST PUSH1 0x0 DUP3 DUP3 MSTORE PUSH1 0x20 DUP3 ADD SWAP1 POP SWAP3 SWAP2 POP POP JUMP JUMPDEST PUSH32 0x46756E6473206E6F742073756666696369656E742C206D696E696D756D206465 PUSH1 0x0 DUP3 ADD MSTORE PUSH32 0x706F736974206D75737420626520312045544800000000000000000000000000 PUSH1 0x20 DUP3 ADD MSTORE POP JUMP JUMPDEST PUSH1 0x0 PUSH2 0x866 PUSH1 0x33 DUP4 PUSH2 0x7F9 JUMP JUMPDEST SWAP2 POP PUSH2 0x871 DUP3 PUSH2 0x80A JUMP JUMPDEST PUSH1 0x40 DUP3 ADD SWAP1 POP SWAP2 SWAP1 POP JUMP JUMPDEST PUSH1 0x0 PUSH1 0x20 DUP3 ADD SWAP1 POP DUP2 DUP2 SUB PUSH1 0x0 DUP4 ADD MSTORE PUSH2 0x895 DUP2 PUSH2 0x859 JUMP JUMPDEST SWAP1 POP SWAP2 SWAP1 POP JUMP JUMPDEST PUSH32 0x4E487B7100000000000000000000000000000000000000000000000000000000 PUSH1 0x0 MSTORE PUSH1 0x32 PUSH1 0x4 MSTORE PUSH1 0x24 PUSH1 0x0 REVERT JUMPDEST PUSH32 0x4E487B7100000000000000000000000000000000000000000000000000000000 PUSH1 0x0 MSTORE PUSH1 0x11 PUSH1 0x4 MSTORE PUSH1 0x24 PUSH1 0x0 REVERT JUMPDEST PUSH1 0x0 PUSH2 0x905 DUP3 PUSH2 0x6B2 JUMP JUMPDEST SWAP2 POP PUSH32 0xFFFFFFFFFFFFFFFFFFFFFFFFFFFFFFFFFFFFFFFFFFFFFFFFFFFFFFFFFFFFFFFF DUP3 SUB PUSH2 0x937 JUMPI PUSH2 0x936 PUSH2 0x8CB JUMP JUMPDEST JUMPDEST PUSH1 0x1 DUP3 ADD SWAP1 POP SWAP2 SWAP1 POP JUMP JUMPDEST PUSH32 0x4E487B7100000000000000000000000000000000000000000000000000000000 PUSH1 0x0 MSTORE PUSH1 0x41 PUSH1 0x4 MSTORE PUSH1 0x24 PUSH1 0x0 REVERT JUMPDEST PUSH1 0x0 DUP2 SWAP1 POP SWAP3 SWAP2 POP POP JUMP JUMPDEST POP JUMP JUMPDEST PUSH1 0x0 PUSH2 0x98C PUSH1 0x0 DUP4 PUSH2 0x971 JUMP JUMPDEST SWAP2 POP PUSH2 0x997 DUP3 PUSH2 0x97C JUMP JUMPDEST PUSH1 0x0 DUP3 ADD SWAP1 POP SWAP2 SWAP1 POP JUMP JUMPDEST PUSH1 0x0 PUSH2 0x9AD DUP3 PUSH2 0x97F JUMP JUMPDEST SWAP2 POP DUP2 SWAP1 POP SWAP2 SWAP1 POP JUMP JUMPDEST PUSH32 0x63616C6C206661696C6564000000000000000000000000000000000000000000 PUSH1 0x0 DUP3 ADD MSTORE POP JUMP JUMPDEST PUSH1 0x0 PUSH2 0x9ED PUSH1 0xB DUP4 PUSH2 0x7F9 JUMP JUMPDEST SWAP2 POP PUSH2 0x9F8 DUP3 PUSH2 0x9B7 JUMP JUMPDEST PUSH1 0x20 DUP3 ADD SWAP1 POP SWAP2 SWAP1 POP JUMP JUMPDEST PUSH1 0x0 PUSH1 0x20 DUP3 ADD SWAP1 POP DUP2 DUP2 SUB PUSH1 0x0 DUP4 ADD MSTORE PUSH2 0xA1C DUP2 PUSH2 0x9E0 JUMP JUMPDEST SWAP1 POP SWAP2 SWAP1 POP JUMP JUMPDEST PUSH1 0x0 PUSH2 0xA2E DUP3 PUSH2 0x6B2 JUMP JUMPDEST SWAP2 POP PUSH2 0xA39 DUP4 PUSH2 0x6B2 JUMP JUMPDEST SWAP3 POP DUP3 DUP3 MUL PUSH2 0xA47 DUP2 PUSH2 0x6B2 JUMP JUMPDEST SWAP2 POP DUP3 DUP3 DIV DUP5 EQ DUP4 ISZERO OR PUSH2 0xA5E JUMPI PUSH2 0xA5D PUSH2 0x8CB JUMP JUMPDEST JUMPDEST POP SWAP3 SWAP2 POP POP JUMP JUMPDEST PUSH32 0x4E487B7100000000000000000000000000000000000000000000000000000000 PUSH1 0x0 MSTORE PUSH1 0x12 PUSH1 0x4 MSTORE PUSH1 0x24 PUSH1 0x0 REVERT JUMPDEST PUSH1 0x0 PUSH2 0xA9F DUP3 PUSH2 0x6B2 JUMP JUMPDEST SWAP2 POP PUSH2 0xAAA DUP4 PUSH2 0x6B2 JUMP JUMPDEST SWAP3 POP DUP3 PUSH2 0xABA JUMPI PUSH2 0xAB9 PUSH2 0xA65 JUMP JUMPDEST JUMPDEST DUP3 DUP3 DIV SWAP1 POP SWAP3 SWAP2 POP POP JUMP JUMPDEST PUSH1 0x0 PUSH10 0xFFFFFFFFFFFFFFFFFFFF DUP3 AND SWAP1 POP SWAP2 SWAP1 POP JUMP JUMPDEST PUSH2 0xAE4 DUP2 PUSH2 0xAC5 JUMP JUMPDEST DUP2 EQ PUSH2 0xAEF JUMPI PUSH1 0x0 DUP1 REVERT JUMPDEST POP JUMP JUMPDEST PUSH1 0x0 DUP2 MLOAD SWAP1 POP PUSH2 0xB01 DUP2 PUSH2 0xADB JUMP JUMPDEST SWAP3 SWAP2 POP POP JUMP JUMPDEST PUSH1 0x0 DUP2 SWAP1 POP SWAP2 SWAP1 POP JUMP JUMPDEST PUSH2 0xB1A DUP2 PUSH2 0xB07 JUMP JUMPDEST DUP2 EQ PUSH2 0xB25 JUMPI PUSH1 0x0 DUP1 REVERT JUMPDEST POP JUMP JUMPDEST PUSH1 0x0 DUP2 MLOAD SWAP1 POP PUSH2 0xB37 DUP2 PUSH2 0xB11 JUMP JUMPDEST SWAP3 SWAP2 POP POP JUMP JUMPDEST PUSH1 0x0 DUP2 MLOAD SWAP1 POP PUSH2 0xB4C DUP2 PUSH2 0x7A0 JUMP JUMPDEST SWAP3 SWAP2 POP POP JUMP JUMPDEST PUSH1 0x0 DUP1 PUSH1 0x0 DUP1 PUSH1 0x0 PUSH1 0xA0 DUP7 DUP9 SUB SLT ISZERO PUSH2 0xB6E JUMPI PUSH2 0xB6D PUSH2 0x6E6 JUMP JUMPDEST JUMPDEST PUSH1 0x0 PUSH2 0xB7C DUP9 DUP3 DUP10 ADD PUSH2 0xAF2 JUMP JUMPDEST SWAP6 POP POP PUSH1 0x20 PUSH2 0xB8D DUP9 DUP3 DUP10 ADD PUSH2 0xB28 JUMP JUMPDEST SWAP5 POP POP PUSH1 0x40 PUSH2 0xB9E DUP9 DUP3 DUP10 ADD PUSH2 0xB3D JUMP JUMPDEST SWAP4 POP POP PUSH1 0x60 PUSH2 0xBAF DUP9 DUP3 DUP10 ADD PUSH2 0xB3D JUMP JUMPDEST SWAP3 POP POP PUSH1 0x80 PUSH2 0xBC0 DUP9 DUP3 DUP10 ADD PUSH2 0xAF2 JUMP JUMPDEST SWAP2 POP POP SWAP3 SWAP6 POP SWAP3 SWAP6 SWAP1 SWAP4 POP JUMP JUMPDEST PUSH1 0x0 PUSH2 0xBD8 DUP3 PUSH2 0xB07 JUMP JUMPDEST SWAP2 POP PUSH2 0xBE3 DUP4 PUSH2 0xB07 JUMP JUMPDEST SWAP3 POP DUP3 DUP3 MUL PUSH2 0xBF1 DUP2 PUSH2 0xB07 JUMP JUMPDEST SWAP2 POP PUSH32 0x8000000000000000000000000000000000000000000000000000000000000000 DUP5 EQ PUSH1 0x0 DUP5 SLT AND ISZERO PUSH2 0xC29 JUMPI PUSH2 0xC28 PUSH2 0x8CB JUMP JUMPDEST JUMPDEST DUP3 DUP3 SDIV DUP5 EQ DUP4 ISZERO OR PUSH2 0xC3E JUMPI PUSH2 0xC3D PUSH2 0x8CB JUMP JUMPDEST JUMPDEST POP SWAP3 SWAP2 POP POP JUMP INVALID LOG2 PUSH5 0x6970667358 0x22 SLT KECCAK256 0x2F SWAP7 0xD5 0xE0 0xAF DUP14 0xB9 DUP13 0x2B 0xBE EQ 0xAC 0xC9 INVALID ADDMOD SWAP14 TIMESTAMP PUSH30 0x858D4B77B2D4AF661F2D5C3203564736F6C634300081200330000000000 "
				},
				"gasEstimates": {
					"creation": {
						"codeDepositCost": "639000",
						"executionCost": "infinite",
						"totalCost": "infinite"
					},
					"external": {
						"": "infinite",
						"AddressToMoneyFunded(address)": "2858",
						"MIN_USD()": "307",
						"fund()": "infinite",
						"funders(uint256)": "5044",
						"i_owner()": "infinite",
						"withdraw()": "infinite"
					}
				},
				"methodIdentifiers": {
					"AddressToMoneyFunded(address)": "d310a282",
					"MIN_USD()": "213dbea2",
					"fund()": "b60d4288",
					"funders(uint256)": "dc0d3dff",
					"i_owner()": "dba6335f",
					"withdraw()": "3ccfd60b"
				}
			},
			"storageLayout": {
				"storage": [
					{
						"astId": 72,
						"contract": "FundMe/FundMe.sol:FundMe",
						"label": "funders",
						"offset": 0,
						"slot": "0",
						"type": "t_array(t_address)dyn_storage"
					},
					{
						"astId": 76,
						"contract": "FundMe/FundMe.sol:FundMe",
						"label": "AddressToMoneyFunded",
						"offset": 0,
						"slot": "1",
						"type": "t_mapping(t_address,t_uint256)"
					}
				],
				"types": {
					"t_address": {
						"encoding": "inplace",
						"label": "address",
						"numberOfBytes": "20"
					},
					"t_array(t_address)dyn_storage": {
						"base": "t_address",
						"encoding": "dynamic_array",
						"label": "address[]",
						"numberOfBytes": "32"
					},
					"t_mapping(t_address,t_uint256)": {
						"encoding": "mapping",
						"key": "t_address",
						"label": "mapping(address => uint256)",
						"numberOfBytes": "32",
						"value": "t_uint256"
					},
					"t_uint256": {
						"encoding": "inplace",
						"label": "uint256",
						"numberOfBytes": "32"
					}
				}
			},
			"userdoc": {
				"kind": "user",
				"methods": {},
				"version": 1
			}
		}
	}
}