{
	"FundMe/5-FundMe.sol": {
		"FundMe": {
			"abi": [
				{
					"inputs": [
						{
							"internalType": "address",
							"name": "",
							"type": "address"
						}
					],
					"name": "AddressToMoneyFunded",
					"outputs": [
						{
							"internalType": "uint256",
							"name": "",
							"type": "uint256"
						}
					],
					"stateMutability": "view",
					"type": "function"
				},
				{
					"inputs": [],
					"name": "fund",
					"outputs": [],
					"stateMutability": "payable",
					"type": "function"
				},
				{
					"inputs": [
						{
							"internalType": "uint256",
							"name": "",
							"type": "uint256"
						}
					],
					"name": "funders",
					"outputs": [
						{
							"internalType": "address",
							"name": "",
							"type": "address"
						}
					],
					"stateMutability": "view",
					"type": "function"
				},
				{
					"inputs": [
						{
							"internalType": "uint256",
							"name": "ethAmount",
							"type": "uint256"
						}
					],
					"name": "getConversionRate",
					"outputs": [
						{
							"internalType": "uint256",
							"name": "",
							"type": "uint256"
						}
					],
					"stateMutability": "view",
					"type": "function"
				},
				{
					"inputs": [],
					"name": "getPrice",
					"outputs": [
						{
							"internalType": "uint256",
							"name": "",
							"type": "uint256"
						}
					],
					"stateMutability": "view",
					"type": "function"
				},
				{
					"inputs": [],
					"name": "minFundUSD",
					"outputs": [
						{
							"internalType": "uint256",
							"name": "",
							"type": "uint256"
						}
					],
					"stateMutability": "view",
					"type": "function"
				}
			],
			"devdoc": {
				"kind": "dev",
				"methods": {},
				"version": 1
			},
			"evm": {
				"assembly": "    /* \"FundMe/5-FundMe.sol\":170:2115  contract FundMe {... */\n  mstore(0x40, 0x80)\n    /* \"FundMe/5-FundMe.sol\":262:271  50 * 1e18 */\n  0x02b5e3af16b1880000\n    /* \"FundMe/5-FundMe.sol\":234:271  uint256 public minFundUSD = 50 * 1e18 */\n  0x00\n  sstore\n    /* \"FundMe/5-FundMe.sol\":170:2115  contract FundMe {... */\n  callvalue\n  dup1\n  iszero\n  tag_1\n  jumpi\n  0x00\n  dup1\n  revert\ntag_1:\n  pop\n  dataSize(sub_0)\n  dup1\n  dataOffset(sub_0)\n  0x00\n  codecopy\n  0x00\n  return\nstop\n\nsub_0: assembly {\n        /* \"FundMe/5-FundMe.sol\":170:2115  contract FundMe {... */\n      mstore(0x40, 0x80)\n      jumpi(tag_1, lt(calldatasize, 0x04))\n      shr(0xe0, calldataload(0x00))\n      dup1\n      0x203e1b54\n      eq\n      tag_2\n      jumpi\n      dup1\n      0x6e5b6b28\n      eq\n      tag_3\n      jumpi\n      dup1\n      0x98d5fdca\n      eq\n      tag_4\n      jumpi\n      dup1\n      0xb60d4288\n      eq\n      tag_5\n      jumpi\n      dup1\n      0xd310a282\n      eq\n      tag_6\n      jumpi\n      dup1\n      0xdc0d3dff\n      eq\n      tag_7\n      jumpi\n    tag_1:\n      0x00\n      dup1\n      revert\n        /* \"FundMe/5-FundMe.sol\":234:271  uint256 public minFundUSD = 50 * 1e18 */\n    tag_2:\n      callvalue\n      dup1\n      iszero\n      tag_8\n      jumpi\n      0x00\n      dup1\n      revert\n    tag_8:\n      pop\n      tag_9\n      tag_10\n      jump\t// in\n    tag_9:\n      mload(0x40)\n      tag_11\n      swap2\n      swap1\n      tag_12\n      jump\t// in\n    tag_11:\n      mload(0x40)\n      dup1\n      swap2\n      sub\n      swap1\n      return\n        /* \"FundMe/5-FundMe.sol\":1872:2082  function getConversionRate(uint256 ethAmount) public view returns(uint256) {... */\n    tag_3:\n      callvalue\n      dup1\n      iszero\n      tag_13\n      jumpi\n      0x00\n      dup1\n      revert\n    tag_13:\n      pop\n      tag_14\n      0x04\n      dup1\n      calldatasize\n      sub\n      dup2\n      add\n      swap1\n      tag_15\n      swap2\n      swap1\n      tag_16\n      jump\t// in\n    tag_15:\n      tag_17\n      jump\t// in\n    tag_14:\n      mload(0x40)\n      tag_18\n      swap2\n      swap1\n      tag_12\n      jump\t// in\n    tag_18:\n      mload(0x40)\n      dup1\n      swap2\n      sub\n      swap1\n      return\n        /* \"FundMe/5-FundMe.sol\":1039:1492  function getPrice() public view returns (uint256){... */\n    tag_4:\n      callvalue\n      dup1\n      iszero\n      tag_19\n      jumpi\n      0x00\n      dup1\n      revert\n    tag_19:\n      pop\n      tag_20\n      tag_21\n      jump\t// in\n    tag_20:\n      mload(0x40)\n      tag_22\n      swap2\n      swap1\n      tag_12\n      jump\t// in\n    tag_22:\n      mload(0x40)\n      dup1\n      swap2\n      sub\n      swap1\n      return\n        /* \"FundMe/5-FundMe.sol\":434:993  function fund() public payable {... */\n    tag_5:\n      tag_23\n      tag_24\n      jump\t// in\n    tag_23:\n      stop\n        /* \"FundMe/5-FundMe.sol\":327:382  mapping(address => uint256) public AddressToMoneyFunded */\n    tag_6:\n      callvalue\n      dup1\n      iszero\n      tag_25\n      jumpi\n      0x00\n      dup1\n      revert\n    tag_25:\n      pop\n      tag_26\n      0x04\n      dup1\n      calldatasize\n      sub\n      dup2\n      add\n      swap1\n      tag_27\n      swap2\n      swap1\n      tag_28\n      jump\t// in\n    tag_27:\n      tag_29\n      jump\t// in\n    tag_26:\n      mload(0x40)\n      tag_30\n      swap2\n      swap1\n      tag_12\n      jump\t// in\n    tag_30:\n      mload(0x40)\n      dup1\n      swap2\n      sub\n      swap1\n      return\n        /* \"FundMe/5-FundMe.sol\":277:301  address[] public funders */\n    tag_7:\n      callvalue\n      dup1\n      iszero\n      tag_31\n      jumpi\n      0x00\n      dup1\n      revert\n    tag_31:\n      pop\n      tag_32\n      0x04\n      dup1\n      calldatasize\n      sub\n      dup2\n      add\n      swap1\n      tag_33\n      swap2\n      swap1\n      tag_16\n      jump\t// in\n    tag_33:\n      tag_34\n      jump\t// in\n    tag_32:\n      mload(0x40)\n      tag_35\n      swap2\n      swap1\n      tag_36\n      jump\t// in\n    tag_35:\n      mload(0x40)\n      dup1\n      swap2\n      sub\n      swap1\n      return\n        /* \"FundMe/5-FundMe.sol\":234:271  uint256 public minFundUSD = 50 * 1e18 */\n    tag_10:\n      sload(0x00)\n      dup2\n      jump\t// out\n        /* \"FundMe/5-FundMe.sol\":1872:2082  function getConversionRate(uint256 ethAmount) public view returns(uint256) {... */\n    tag_17:\n        /* \"FundMe/5-FundMe.sol\":1938:1945  uint256 */\n      0x00\n        /* \"FundMe/5-FundMe.sol\":1957:1973  uint256 ethPrice */\n      dup1\n        /* \"FundMe/5-FundMe.sol\":1976:1986  getPrice() */\n      tag_38\n        /* \"FundMe/5-FundMe.sol\":1976:1984  getPrice */\n      tag_21\n        /* \"FundMe/5-FundMe.sol\":1976:1986  getPrice() */\n      jump\t// in\n    tag_38:\n        /* \"FundMe/5-FundMe.sol\":1957:1986  uint256 ethPrice = getPrice() */\n      swap1\n      pop\n        /* \"FundMe/5-FundMe.sol\":1996:2016  uint256 ethAmountUSD */\n      0x00\n        /* \"FundMe/5-FundMe.sol\":2042:2046  1e18 */\n      0x0de0b6b3a7640000\n        /* \"FundMe/5-FundMe.sol\":2030:2039  ethAmount */\n      dup5\n        /* \"FundMe/5-FundMe.sol\":2019:2027  ethPrice */\n      dup4\n        /* \"FundMe/5-FundMe.sol\":2019:2039  ethPrice * ethAmount */\n      tag_39\n      swap2\n      swap1\n      tag_40\n      jump\t// in\n    tag_39:\n        /* \"FundMe/5-FundMe.sol\":2019:2046  ethPrice * ethAmount / 1e18 */\n      tag_41\n      swap2\n      swap1\n      tag_42\n      jump\t// in\n    tag_41:\n        /* \"FundMe/5-FundMe.sol\":1996:2046  uint256 ethAmountUSD = ethPrice * ethAmount / 1e18 */\n      swap1\n      pop\n        /* \"FundMe/5-FundMe.sol\":2063:2075  ethAmountUSD */\n      dup1\n        /* \"FundMe/5-FundMe.sol\":2056:2075  return ethAmountUSD */\n      swap3\n      pop\n      pop\n      pop\n        /* \"FundMe/5-FundMe.sol\":1872:2082  function getConversionRate(uint256 ethAmount) public view returns(uint256) {... */\n      swap2\n      swap1\n      pop\n      jump\t// out\n        /* \"FundMe/5-FundMe.sol\":1039:1492  function getPrice() public view returns (uint256){... */\n    tag_21:\n        /* \"FundMe/5-FundMe.sol\":1080:1087  uint256 */\n      0x00\n        /* \"FundMe/5-FundMe.sol\":1254:1285  AggregatorV3Interface priceFeed */\n      dup1\n        /* \"FundMe/5-FundMe.sol\":1310:1352  0x694AA1769357215DE4FAC081bf1f309aDC325306 */\n      0x694aa1769357215de4fac081bf1f309adc325306\n        /* \"FundMe/5-FundMe.sol\":1254:1353  AggregatorV3Interface priceFeed = AggregatorV3Interface(0x694AA1769357215DE4FAC081bf1f309aDC325306) */\n      swap1\n      pop\n        /* \"FundMe/5-FundMe.sol\":1365:1377  int256 price */\n      0x00\n        /* \"FundMe/5-FundMe.sol\":1384:1393  priceFeed */\n      dup2\n        /* \"FundMe/5-FundMe.sol\":1384:1409  priceFeed.latestRoundData */\n      0xffffffffffffffffffffffffffffffffffffffff\n      and\n      0xfeaf968c\n        /* \"FundMe/5-FundMe.sol\":1384:1411  priceFeed.latestRoundData() */\n      mload(0x40)\n      dup2\n      0xffffffff\n      and\n      0xe0\n      shl\n      dup2\n      mstore\n      0x04\n      add\n      0xa0\n      mload(0x40)\n      dup1\n      dup4\n      sub\n      dup2\n      dup7\n      gas\n      staticcall\n      iszero\n      dup1\n      iszero\n      tag_45\n      jumpi\n      returndatasize\n      0x00\n      dup1\n      returndatacopy\n      revert(0x00, returndatasize)\n    tag_45:\n      pop\n      pop\n      pop\n      pop\n      mload(0x40)\n      returndatasize\n      not(0x1f)\n      0x1f\n      dup3\n      add\n      and\n      dup3\n      add\n      dup1\n      0x40\n      mstore\n      pop\n      dup2\n      add\n      swap1\n      tag_46\n      swap2\n      swap1\n      tag_47\n      jump\t// in\n    tag_46:\n        /* \"FundMe/5-FundMe.sol\":1363:1411  (,int256 price,,,) = priceFeed.latestRoundData() */\n      pop\n      pop\n      pop\n      swap2\n      pop\n      pop\n        /* \"FundMe/5-FundMe.sol\":1444:1448  1e10 */\n      0x02540be400\n        /* \"FundMe/5-FundMe.sol\":1436:1441  price */\n      dup2\n        /* \"FundMe/5-FundMe.sol\":1436:1448  price * 1e10 */\n      tag_48\n      swap2\n      swap1\n      tag_49\n      jump\t// in\n    tag_48:\n        /* \"FundMe/5-FundMe.sol\":1421:1449  return uint256(price * 1e10) */\n      swap3\n      pop\n      pop\n      pop\n        /* \"FundMe/5-FundMe.sol\":1039:1492  function getPrice() public view returns (uint256){... */\n      swap1\n      jump\t// out\n        /* \"FundMe/5-FundMe.sol\":434:993  function fund() public payable {... */\n    tag_24:\n        /* \"FundMe/5-FundMe.sol\":573:583  minFundUSD */\n      sload(0x00)\n        /* \"FundMe/5-FundMe.sol\":541:569  getConversionRate(msg.value) */\n      tag_51\n        /* \"FundMe/5-FundMe.sol\":559:568  msg.value */\n      callvalue\n        /* \"FundMe/5-FundMe.sol\":541:558  getConversionRate */\n      tag_17\n        /* \"FundMe/5-FundMe.sol\":541:569  getConversionRate(msg.value) */\n      jump\t// in\n    tag_51:\n        /* \"FundMe/5-FundMe.sol\":541:583  getConversionRate(msg.value) >= minFundUSD */\n      lt\n      iszero\n        /* \"FundMe/5-FundMe.sol\":520:660  require(... */\n      tag_52\n      jumpi\n      mload(0x40)\n      0x08c379a000000000000000000000000000000000000000000000000000000000\n      dup2\n      mstore\n      0x04\n      add\n      tag_53\n      swap1\n      tag_54\n      jump\t// in\n    tag_53:\n      mload(0x40)\n      dup1\n      swap2\n      sub\n      swap1\n      revert\n    tag_52:\n        /* \"FundMe/5-FundMe.sol\":908:915  funders */\n      0x01\n        /* \"FundMe/5-FundMe.sol\":921:931  msg.sender */\n      caller\n        /* \"FundMe/5-FundMe.sol\":908:932  funders.push(msg.sender) */\n      swap1\n      dup1\n      0x01\n      dup2\n      sload\n      add\n      dup1\n      dup3\n      sstore\n      dup1\n      swap2\n      pop\n      pop\n      0x01\n      swap1\n      sub\n      swap1\n      0x00\n      mstore\n      keccak256(0x00, 0x20)\n      add\n      0x00\n      swap1\n      swap2\n      swap1\n      swap2\n      swap1\n      swap2\n      0x0100\n      exp\n      dup2\n      sload\n      dup2\n      0xffffffffffffffffffffffffffffffffffffffff\n      mul\n      not\n      and\n      swap1\n      dup4\n      0xffffffffffffffffffffffffffffffffffffffff\n      and\n      mul\n      or\n      swap1\n      sstore\n      pop\n        /* \"FundMe/5-FundMe.sol\":977:986  msg.value */\n      callvalue\n        /* \"FundMe/5-FundMe.sol\":942:962  AddressToMoneyFunded */\n      0x02\n        /* \"FundMe/5-FundMe.sol\":942:974  AddressToMoneyFunded[msg.sender] */\n      0x00\n        /* \"FundMe/5-FundMe.sol\":963:973  msg.sender */\n      caller\n        /* \"FundMe/5-FundMe.sol\":942:974  AddressToMoneyFunded[msg.sender] */\n      0xffffffffffffffffffffffffffffffffffffffff\n      and\n      0xffffffffffffffffffffffffffffffffffffffff\n      and\n      dup2\n      mstore\n      0x20\n      add\n      swap1\n      dup2\n      mstore\n      0x20\n      add\n      0x00\n      keccak256\n        /* \"FundMe/5-FundMe.sol\":942:986  AddressToMoneyFunded[msg.sender] = msg.value */\n      dup2\n      swap1\n      sstore\n      pop\n        /* \"FundMe/5-FundMe.sol\":434:993  function fund() public payable {... */\n      jump\t// out\n        /* \"FundMe/5-FundMe.sol\":327:382  mapping(address => uint256) public AddressToMoneyFunded */\n    tag_29:\n      mstore(0x20, 0x02)\n      dup1\n      0x00\n      mstore\n      keccak256(0x00, 0x40)\n      0x00\n      swap2\n      pop\n      swap1\n      pop\n      sload\n      dup2\n      jump\t// out\n        /* \"FundMe/5-FundMe.sol\":277:301  address[] public funders */\n    tag_34:\n      0x01\n      dup2\n      dup2\n      sload\n      dup2\n      lt\n      tag_56\n      jumpi\n      0x00\n      dup1\n      revert\n    tag_56:\n      swap1\n      0x00\n      mstore\n      keccak256(0x00, 0x20)\n      add\n      0x00\n      swap2\n      pop\n      sload\n      swap1\n      0x0100\n      exp\n      swap1\n      div\n      0xffffffffffffffffffffffffffffffffffffffff\n      and\n      dup2\n      jump\t// out\n        /* \"#utility.yul\":7:84   */\n    tag_58:\n        /* \"#utility.yul\":44:51   */\n      0x00\n        /* \"#utility.yul\":73:78   */\n      dup2\n        /* \"#utility.yul\":62:78   */\n      swap1\n      pop\n        /* \"#utility.yul\":7:84   */\n      swap2\n      swap1\n      pop\n      jump\t// out\n        /* \"#utility.yul\":90:208   */\n    tag_59:\n        /* \"#utility.yul\":177:201   */\n      tag_85\n        /* \"#utility.yul\":195:200   */\n      dup2\n        /* \"#utility.yul\":177:201   */\n      tag_58\n      jump\t// in\n    tag_85:\n        /* \"#utility.yul\":172:175   */\n      dup3\n        /* \"#utility.yul\":165:202   */\n      mstore\n        /* \"#utility.yul\":90:208   */\n      pop\n      pop\n      jump\t// out\n        /* \"#utility.yul\":214:436   */\n    tag_12:\n        /* \"#utility.yul\":307:311   */\n      0x00\n        /* \"#utility.yul\":345:347   */\n      0x20\n        /* \"#utility.yul\":334:343   */\n      dup3\n        /* \"#utility.yul\":330:348   */\n      add\n        /* \"#utility.yul\":322:348   */\n      swap1\n      pop\n        /* \"#utility.yul\":358:429   */\n      tag_87\n        /* \"#utility.yul\":426:427   */\n      0x00\n        /* \"#utility.yul\":415:424   */\n      dup4\n        /* \"#utility.yul\":411:428   */\n      add\n        /* \"#utility.yul\":402:408   */\n      dup5\n        /* \"#utility.yul\":358:429   */\n      tag_59\n      jump\t// in\n    tag_87:\n        /* \"#utility.yul\":214:436   */\n      swap3\n      swap2\n      pop\n      pop\n      jump\t// out\n        /* \"#utility.yul\":523:640   */\n    tag_61:\n        /* \"#utility.yul\":632:633   */\n      0x00\n        /* \"#utility.yul\":629:630   */\n      dup1\n        /* \"#utility.yul\":622:634   */\n      revert\n        /* \"#utility.yul\":769:891   */\n    tag_63:\n        /* \"#utility.yul\":842:866   */\n      tag_92\n        /* \"#utility.yul\":860:865   */\n      dup2\n        /* \"#utility.yul\":842:866   */\n      tag_58\n      jump\t// in\n    tag_92:\n        /* \"#utility.yul\":835:840   */\n      dup2\n        /* \"#utility.yul\":832:867   */\n      eq\n        /* \"#utility.yul\":822:885   */\n      tag_93\n      jumpi\n        /* \"#utility.yul\":881:882   */\n      0x00\n        /* \"#utility.yul\":878:879   */\n      dup1\n        /* \"#utility.yul\":871:883   */\n      revert\n        /* \"#utility.yul\":822:885   */\n    tag_93:\n        /* \"#utility.yul\":769:891   */\n      pop\n      jump\t// out\n        /* \"#utility.yul\":897:1036   */\n    tag_64:\n        /* \"#utility.yul\":943:948   */\n      0x00\n        /* \"#utility.yul\":981:987   */\n      dup2\n        /* \"#utility.yul\":968:988   */\n      calldataload\n        /* \"#utility.yul\":959:988   */\n      swap1\n      pop\n        /* \"#utility.yul\":997:1030   */\n      tag_95\n        /* \"#utility.yul\":1024:1029   */\n      dup2\n        /* \"#utility.yul\":997:1030   */\n      tag_63\n      jump\t// in\n    tag_95:\n        /* \"#utility.yul\":897:1036   */\n      swap3\n      swap2\n      pop\n      pop\n      jump\t// out\n        /* \"#utility.yul\":1042:1371   */\n    tag_16:\n        /* \"#utility.yul\":1101:1107   */\n      0x00\n        /* \"#utility.yul\":1150:1152   */\n      0x20\n        /* \"#utility.yul\":1138:1147   */\n      dup3\n        /* \"#utility.yul\":1129:1136   */\n      dup5\n        /* \"#utility.yul\":1125:1148   */\n      sub\n        /* \"#utility.yul\":1121:1153   */\n      slt\n        /* \"#utility.yul\":1118:1237   */\n      iszero\n      tag_97\n      jumpi\n        /* \"#utility.yul\":1156:1235   */\n      tag_98\n      tag_61\n      jump\t// in\n    tag_98:\n        /* \"#utility.yul\":1118:1237   */\n    tag_97:\n        /* \"#utility.yul\":1276:1277   */\n      0x00\n        /* \"#utility.yul\":1301:1354   */\n      tag_99\n        /* \"#utility.yul\":1346:1353   */\n      dup5\n        /* \"#utility.yul\":1337:1343   */\n      dup3\n        /* \"#utility.yul\":1326:1335   */\n      dup6\n        /* \"#utility.yul\":1322:1344   */\n      add\n        /* \"#utility.yul\":1301:1354   */\n      tag_64\n      jump\t// in\n    tag_99:\n        /* \"#utility.yul\":1291:1354   */\n      swap2\n      pop\n        /* \"#utility.yul\":1247:1364   */\n      pop\n        /* \"#utility.yul\":1042:1371   */\n      swap3\n      swap2\n      pop\n      pop\n      jump\t// out\n        /* \"#utility.yul\":1377:1503   */\n    tag_65:\n        /* \"#utility.yul\":1414:1421   */\n      0x00\n        /* \"#utility.yul\":1454:1496   */\n      0xffffffffffffffffffffffffffffffffffffffff\n        /* \"#utility.yul\":1447:1452   */\n      dup3\n        /* \"#utility.yul\":1443:1497   */\n      and\n        /* \"#utility.yul\":1432:1497   */\n      swap1\n      pop\n        /* \"#utility.yul\":1377:1503   */\n      swap2\n      swap1\n      pop\n      jump\t// out\n        /* \"#utility.yul\":1509:1605   */\n    tag_66:\n        /* \"#utility.yul\":1546:1553   */\n      0x00\n        /* \"#utility.yul\":1575:1599   */\n      tag_102\n        /* \"#utility.yul\":1593:1598   */\n      dup3\n        /* \"#utility.yul\":1575:1599   */\n      tag_65\n      jump\t// in\n    tag_102:\n        /* \"#utility.yul\":1564:1599   */\n      swap1\n      pop\n        /* \"#utility.yul\":1509:1605   */\n      swap2\n      swap1\n      pop\n      jump\t// out\n        /* \"#utility.yul\":1611:1733   */\n    tag_67:\n        /* \"#utility.yul\":1684:1708   */\n      tag_104\n        /* \"#utility.yul\":1702:1707   */\n      dup2\n        /* \"#utility.yul\":1684:1708   */\n      tag_66\n      jump\t// in\n    tag_104:\n        /* \"#utility.yul\":1677:1682   */\n      dup2\n        /* \"#utility.yul\":1674:1709   */\n      eq\n        /* \"#utility.yul\":1664:1727   */\n      tag_105\n      jumpi\n        /* \"#utility.yul\":1723:1724   */\n      0x00\n        /* \"#utility.yul\":1720:1721   */\n      dup1\n        /* \"#utility.yul\":1713:1725   */\n      revert\n        /* \"#utility.yul\":1664:1727   */\n    tag_105:\n        /* \"#utility.yul\":1611:1733   */\n      pop\n      jump\t// out\n        /* \"#utility.yul\":1739:1878   */\n    tag_68:\n        /* \"#utility.yul\":1785:1790   */\n      0x00\n        /* \"#utility.yul\":1823:1829   */\n      dup2\n        /* \"#utility.yul\":1810:1830   */\n      calldataload\n        /* \"#utility.yul\":1801:1830   */\n      swap1\n      pop\n        /* \"#utility.yul\":1839:1872   */\n      tag_107\n        /* \"#utility.yul\":1866:1871   */\n      dup2\n        /* \"#utility.yul\":1839:1872   */\n      tag_67\n      jump\t// in\n    tag_107:\n        /* \"#utility.yul\":1739:1878   */\n      swap3\n      swap2\n      pop\n      pop\n      jump\t// out\n        /* \"#utility.yul\":1884:2213   */\n    tag_28:\n        /* \"#utility.yul\":1943:1949   */\n      0x00\n        /* \"#utility.yul\":1992:1994   */\n      0x20\n        /* \"#utility.yul\":1980:1989   */\n      dup3\n        /* \"#utility.yul\":1971:1978   */\n      dup5\n        /* \"#utility.yul\":1967:1990   */\n      sub\n        /* \"#utility.yul\":1963:1995   */\n      slt\n        /* \"#utility.yul\":1960:2079   */\n      iszero\n      tag_109\n      jumpi\n        /* \"#utility.yul\":1998:2077   */\n      tag_110\n      tag_61\n      jump\t// in\n    tag_110:\n        /* \"#utility.yul\":1960:2079   */\n    tag_109:\n        /* \"#utility.yul\":2118:2119   */\n      0x00\n        /* \"#utility.yul\":2143:2196   */\n      tag_111\n        /* \"#utility.yul\":2188:2195   */\n      dup5\n        /* \"#utility.yul\":2179:2185   */\n      dup3\n        /* \"#utility.yul\":2168:2177   */\n      dup6\n        /* \"#utility.yul\":2164:2186   */\n      add\n        /* \"#utility.yul\":2143:2196   */\n      tag_68\n      jump\t// in\n    tag_111:\n        /* \"#utility.yul\":2133:2196   */\n      swap2\n      pop\n        /* \"#utility.yul\":2089:2206   */\n      pop\n        /* \"#utility.yul\":1884:2213   */\n      swap3\n      swap2\n      pop\n      pop\n      jump\t// out\n        /* \"#utility.yul\":2219:2337   */\n    tag_69:\n        /* \"#utility.yul\":2306:2330   */\n      tag_113\n        /* \"#utility.yul\":2324:2329   */\n      dup2\n        /* \"#utility.yul\":2306:2330   */\n      tag_66\n      jump\t// in\n    tag_113:\n        /* \"#utility.yul\":2301:2304   */\n      dup3\n        /* \"#utility.yul\":2294:2331   */\n      mstore\n        /* \"#utility.yul\":2219:2337   */\n      pop\n      pop\n      jump\t// out\n        /* \"#utility.yul\":2343:2565   */\n    tag_36:\n        /* \"#utility.yul\":2436:2440   */\n      0x00\n        /* \"#utility.yul\":2474:2476   */\n      0x20\n        /* \"#utility.yul\":2463:2472   */\n      dup3\n        /* \"#utility.yul\":2459:2477   */\n      add\n        /* \"#utility.yul\":2451:2477   */\n      swap1\n      pop\n        /* \"#utility.yul\":2487:2558   */\n      tag_115\n        /* \"#utility.yul\":2555:2556   */\n      0x00\n        /* \"#utility.yul\":2544:2553   */\n      dup4\n        /* \"#utility.yul\":2540:2557   */\n      add\n        /* \"#utility.yul\":2531:2537   */\n      dup5\n        /* \"#utility.yul\":2487:2558   */\n      tag_69\n      jump\t// in\n    tag_115:\n        /* \"#utility.yul\":2343:2565   */\n      swap3\n      swap2\n      pop\n      pop\n      jump\t// out\n        /* \"#utility.yul\":2571:2751   */\n    tag_70:\n        /* \"#utility.yul\":2619:2696   */\n      0x4e487b7100000000000000000000000000000000000000000000000000000000\n        /* \"#utility.yul\":2616:2617   */\n      0x00\n        /* \"#utility.yul\":2609:2697   */\n      mstore\n        /* \"#utility.yul\":2716:2720   */\n      0x11\n        /* \"#utility.yul\":2713:2714   */\n      0x04\n        /* \"#utility.yul\":2706:2721   */\n      mstore\n        /* \"#utility.yul\":2740:2744   */\n      0x24\n        /* \"#utility.yul\":2737:2738   */\n      0x00\n        /* \"#utility.yul\":2730:2745   */\n      revert\n        /* \"#utility.yul\":2757:3167   */\n    tag_40:\n        /* \"#utility.yul\":2797:2804   */\n      0x00\n        /* \"#utility.yul\":2820:2840   */\n      tag_118\n        /* \"#utility.yul\":2838:2839   */\n      dup3\n        /* \"#utility.yul\":2820:2840   */\n      tag_58\n      jump\t// in\n    tag_118:\n        /* \"#utility.yul\":2815:2840   */\n      swap2\n      pop\n        /* \"#utility.yul\":2854:2874   */\n      tag_119\n        /* \"#utility.yul\":2872:2873   */\n      dup4\n        /* \"#utility.yul\":2854:2874   */\n      tag_58\n      jump\t// in\n    tag_119:\n        /* \"#utility.yul\":2849:2874   */\n      swap3\n      pop\n        /* \"#utility.yul\":2909:2910   */\n      dup3\n        /* \"#utility.yul\":2906:2907   */\n      dup3\n        /* \"#utility.yul\":2902:2911   */\n      mul\n        /* \"#utility.yul\":2931:2961   */\n      tag_120\n        /* \"#utility.yul\":2949:2960   */\n      dup2\n        /* \"#utility.yul\":2931:2961   */\n      tag_58\n      jump\t// in\n    tag_120:\n        /* \"#utility.yul\":2920:2961   */\n      swap2\n      pop\n        /* \"#utility.yul\":3110:3111   */\n      dup3\n        /* \"#utility.yul\":3101:3108   */\n      dup3\n        /* \"#utility.yul\":3097:3112   */\n      div\n        /* \"#utility.yul\":3094:3095   */\n      dup5\n        /* \"#utility.yul\":3091:3113   */\n      eq\n        /* \"#utility.yul\":3071:3072   */\n      dup4\n        /* \"#utility.yul\":3064:3073   */\n      iszero\n        /* \"#utility.yul\":3044:3127   */\n      or\n        /* \"#utility.yul\":3021:3160   */\n      tag_121\n      jumpi\n        /* \"#utility.yul\":3140:3158   */\n      tag_122\n      tag_70\n      jump\t// in\n    tag_122:\n        /* \"#utility.yul\":3021:3160   */\n    tag_121:\n        /* \"#utility.yul\":2805:3167   */\n      pop\n        /* \"#utility.yul\":2757:3167   */\n      swap3\n      swap2\n      pop\n      pop\n      jump\t// out\n        /* \"#utility.yul\":3173:3353   */\n    tag_71:\n        /* \"#utility.yul\":3221:3298   */\n      0x4e487b7100000000000000000000000000000000000000000000000000000000\n        /* \"#utility.yul\":3218:3219   */\n      0x00\n        /* \"#utility.yul\":3211:3299   */\n      mstore\n        /* \"#utility.yul\":3318:3322   */\n      0x12\n        /* \"#utility.yul\":3315:3316   */\n      0x04\n        /* \"#utility.yul\":3308:3323   */\n      mstore\n        /* \"#utility.yul\":3342:3346   */\n      0x24\n        /* \"#utility.yul\":3339:3340   */\n      0x00\n        /* \"#utility.yul\":3332:3347   */\n      revert\n        /* \"#utility.yul\":3359:3544   */\n    tag_42:\n        /* \"#utility.yul\":3399:3400   */\n      0x00\n        /* \"#utility.yul\":3416:3436   */\n      tag_125\n        /* \"#utility.yul\":3434:3435   */\n      dup3\n        /* \"#utility.yul\":3416:3436   */\n      tag_58\n      jump\t// in\n    tag_125:\n        /* \"#utility.yul\":3411:3436   */\n      swap2\n      pop\n        /* \"#utility.yul\":3450:3470   */\n      tag_126\n        /* \"#utility.yul\":3468:3469   */\n      dup4\n        /* \"#utility.yul\":3450:3470   */\n      tag_58\n      jump\t// in\n    tag_126:\n        /* \"#utility.yul\":3445:3470   */\n      swap3\n      pop\n        /* \"#utility.yul\":3489:3490   */\n      dup3\n        /* \"#utility.yul\":3479:3514   */\n      tag_127\n      jumpi\n        /* \"#utility.yul\":3494:3512   */\n      tag_128\n      tag_71\n      jump\t// in\n    tag_128:\n        /* \"#utility.yul\":3479:3514   */\n    tag_127:\n        /* \"#utility.yul\":3536:3537   */\n      dup3\n        /* \"#utility.yul\":3533:3534   */\n      dup3\n        /* \"#utility.yul\":3529:3538   */\n      div\n        /* \"#utility.yul\":3524:3538   */\n      swap1\n      pop\n        /* \"#utility.yul\":3359:3544   */\n      swap3\n      swap2\n      pop\n      pop\n      jump\t// out\n        /* \"#utility.yul\":3550:3655   */\n    tag_72:\n        /* \"#utility.yul\":3586:3593   */\n      0x00\n        /* \"#utility.yul\":3626:3648   */\n      0xffffffffffffffffffff\n        /* \"#utility.yul\":3619:3624   */\n      dup3\n        /* \"#utility.yul\":3615:3649   */\n      and\n        /* \"#utility.yul\":3604:3649   */\n      swap1\n      pop\n        /* \"#utility.yul\":3550:3655   */\n      swap2\n      swap1\n      pop\n      jump\t// out\n        /* \"#utility.yul\":3661:3781   */\n    tag_73:\n        /* \"#utility.yul\":3733:3756   */\n      tag_131\n        /* \"#utility.yul\":3750:3755   */\n      dup2\n        /* \"#utility.yul\":3733:3756   */\n      tag_72\n      jump\t// in\n    tag_131:\n        /* \"#utility.yul\":3726:3731   */\n      dup2\n        /* \"#utility.yul\":3723:3757   */\n      eq\n        /* \"#utility.yul\":3713:3775   */\n      tag_132\n      jumpi\n        /* \"#utility.yul\":3771:3772   */\n      0x00\n        /* \"#utility.yul\":3768:3769   */\n      dup1\n        /* \"#utility.yul\":3761:3773   */\n      revert\n        /* \"#utility.yul\":3713:3775   */\n    tag_132:\n        /* \"#utility.yul\":3661:3781   */\n      pop\n      jump\t// out\n        /* \"#utility.yul\":3787:3928   */\n    tag_74:\n        /* \"#utility.yul\":3843:3848   */\n      0x00\n        /* \"#utility.yul\":3874:3880   */\n      dup2\n        /* \"#utility.yul\":3868:3881   */\n      mload\n        /* \"#utility.yul\":3859:3881   */\n      swap1\n      pop\n        /* \"#utility.yul\":3890:3922   */\n      tag_134\n        /* \"#utility.yul\":3916:3921   */\n      dup2\n        /* \"#utility.yul\":3890:3922   */\n      tag_73\n      jump\t// in\n    tag_134:\n        /* \"#utility.yul\":3787:3928   */\n      swap3\n      swap2\n      pop\n      pop\n      jump\t// out\n        /* \"#utility.yul\":3934:4010   */\n    tag_75:\n        /* \"#utility.yul\":3970:3977   */\n      0x00\n        /* \"#utility.yul\":3999:4004   */\n      dup2\n        /* \"#utility.yul\":3988:4004   */\n      swap1\n      pop\n        /* \"#utility.yul\":3934:4010   */\n      swap2\n      swap1\n      pop\n      jump\t// out\n        /* \"#utility.yul\":4016:4136   */\n    tag_76:\n        /* \"#utility.yul\":4088:4111   */\n      tag_137\n        /* \"#utility.yul\":4105:4110   */\n      dup2\n        /* \"#utility.yul\":4088:4111   */\n      tag_75\n      jump\t// in\n    tag_137:\n        /* \"#utility.yul\":4081:4086   */\n      dup2\n        /* \"#utility.yul\":4078:4112   */\n      eq\n        /* \"#utility.yul\":4068:4130   */\n      tag_138\n      jumpi\n        /* \"#utility.yul\":4126:4127   */\n      0x00\n        /* \"#utility.yul\":4123:4124   */\n      dup1\n        /* \"#utility.yul\":4116:4128   */\n      revert\n        /* \"#utility.yul\":4068:4130   */\n    tag_138:\n        /* \"#utility.yul\":4016:4136   */\n      pop\n      jump\t// out\n        /* \"#utility.yul\":4142:4283   */\n    tag_77:\n        /* \"#utility.yul\":4198:4203   */\n      0x00\n        /* \"#utility.yul\":4229:4235   */\n      dup2\n        /* \"#utility.yul\":4223:4236   */\n      mload\n        /* \"#utility.yul\":4214:4236   */\n      swap1\n      pop\n        /* \"#utility.yul\":4245:4277   */\n      tag_140\n        /* \"#utility.yul\":4271:4276   */\n      dup2\n        /* \"#utility.yul\":4245:4277   */\n      tag_76\n      jump\t// in\n    tag_140:\n        /* \"#utility.yul\":4142:4283   */\n      swap3\n      swap2\n      pop\n      pop\n      jump\t// out\n        /* \"#utility.yul\":4289:4432   */\n    tag_78:\n        /* \"#utility.yul\":4346:4351   */\n      0x00\n        /* \"#utility.yul\":4377:4383   */\n      dup2\n        /* \"#utility.yul\":4371:4384   */\n      mload\n        /* \"#utility.yul\":4362:4384   */\n      swap1\n      pop\n        /* \"#utility.yul\":4393:4426   */\n      tag_142\n        /* \"#utility.yul\":4420:4425   */\n      dup2\n        /* \"#utility.yul\":4393:4426   */\n      tag_63\n      jump\t// in\n    tag_142:\n        /* \"#utility.yul\":4289:4432   */\n      swap3\n      swap2\n      pop\n      pop\n      jump\t// out\n        /* \"#utility.yul\":4438:5409   */\n    tag_47:\n        /* \"#utility.yul\":4541:4547   */\n      0x00\n        /* \"#utility.yul\":4549:4555   */\n      dup1\n        /* \"#utility.yul\":4557:4563   */\n      0x00\n        /* \"#utility.yul\":4565:4571   */\n      dup1\n        /* \"#utility.yul\":4573:4579   */\n      0x00\n        /* \"#utility.yul\":4622:4625   */\n      0xa0\n        /* \"#utility.yul\":4610:4619   */\n      dup7\n        /* \"#utility.yul\":4601:4608   */\n      dup9\n        /* \"#utility.yul\":4597:4620   */\n      sub\n        /* \"#utility.yul\":4593:4626   */\n      slt\n        /* \"#utility.yul\":4590:4710   */\n      iszero\n      tag_144\n      jumpi\n        /* \"#utility.yul\":4629:4708   */\n      tag_145\n      tag_61\n      jump\t// in\n    tag_145:\n        /* \"#utility.yul\":4590:4710   */\n    tag_144:\n        /* \"#utility.yul\":4749:4750   */\n      0x00\n        /* \"#utility.yul\":4774:4837   */\n      tag_146\n        /* \"#utility.yul\":4829:4836   */\n      dup9\n        /* \"#utility.yul\":4820:4826   */\n      dup3\n        /* \"#utility.yul\":4809:4818   */\n      dup10\n        /* \"#utility.yul\":4805:4827   */\n      add\n        /* \"#utility.yul\":4774:4837   */\n      tag_74\n      jump\t// in\n    tag_146:\n        /* \"#utility.yul\":4764:4837   */\n      swap6\n      pop\n        /* \"#utility.yul\":4720:4847   */\n      pop\n        /* \"#utility.yul\":4886:4888   */\n      0x20\n        /* \"#utility.yul\":4912:4975   */\n      tag_147\n        /* \"#utility.yul\":4967:4974   */\n      dup9\n        /* \"#utility.yul\":4958:4964   */\n      dup3\n        /* \"#utility.yul\":4947:4956   */\n      dup10\n        /* \"#utility.yul\":4943:4965   */\n      add\n        /* \"#utility.yul\":4912:4975   */\n      tag_77\n      jump\t// in\n    tag_147:\n        /* \"#utility.yul\":4902:4975   */\n      swap5\n      pop\n        /* \"#utility.yul\":4857:4985   */\n      pop\n        /* \"#utility.yul\":5024:5026   */\n      0x40\n        /* \"#utility.yul\":5050:5114   */\n      tag_148\n        /* \"#utility.yul\":5106:5113   */\n      dup9\n        /* \"#utility.yul\":5097:5103   */\n      dup3\n        /* \"#utility.yul\":5086:5095   */\n      dup10\n        /* \"#utility.yul\":5082:5104   */\n      add\n        /* \"#utility.yul\":5050:5114   */\n      tag_78\n      jump\t// in\n    tag_148:\n        /* \"#utility.yul\":5040:5114   */\n      swap4\n      pop\n        /* \"#utility.yul\":4995:5124   */\n      pop\n        /* \"#utility.yul\":5163:5165   */\n      0x60\n        /* \"#utility.yul\":5189:5253   */\n      tag_149\n        /* \"#utility.yul\":5245:5252   */\n      dup9\n        /* \"#utility.yul\":5236:5242   */\n      dup3\n        /* \"#utility.yul\":5225:5234   */\n      dup10\n        /* \"#utility.yul\":5221:5243   */\n      add\n        /* \"#utility.yul\":5189:5253   */\n      tag_78\n      jump\t// in\n    tag_149:\n        /* \"#utility.yul\":5179:5253   */\n      swap3\n      pop\n        /* \"#utility.yul\":5134:5263   */\n      pop\n        /* \"#utility.yul\":5302:5305   */\n      0x80\n        /* \"#utility.yul\":5329:5392   */\n      tag_150\n        /* \"#utility.yul\":5384:5391   */\n      dup9\n        /* \"#utility.yul\":5375:5381   */\n      dup3\n        /* \"#utility.yul\":5364:5373   */\n      dup10\n        /* \"#utility.yul\":5360:5382   */\n      add\n        /* \"#utility.yul\":5329:5392   */\n      tag_74\n      jump\t// in\n    tag_150:\n        /* \"#utility.yul\":5319:5392   */\n      swap2\n      pop\n        /* \"#utility.yul\":5273:5402   */\n      pop\n        /* \"#utility.yul\":4438:5409   */\n      swap3\n      swap6\n      pop\n      swap3\n      swap6\n      swap1\n      swap4\n      pop\n      jump\t// out\n        /* \"#utility.yul\":5415:5971   */\n    tag_49:\n        /* \"#utility.yul\":5454:5461   */\n      0x00\n        /* \"#utility.yul\":5477:5496   */\n      tag_152\n        /* \"#utility.yul\":5494:5495   */\n      dup3\n        /* \"#utility.yul\":5477:5496   */\n      tag_75\n      jump\t// in\n    tag_152:\n        /* \"#utility.yul\":5472:5496   */\n      swap2\n      pop\n        /* \"#utility.yul\":5510:5529   */\n      tag_153\n        /* \"#utility.yul\":5527:5528   */\n      dup4\n        /* \"#utility.yul\":5510:5529   */\n      tag_75\n      jump\t// in\n    tag_153:\n        /* \"#utility.yul\":5505:5529   */\n      swap3\n      pop\n        /* \"#utility.yul\":5564:5565   */\n      dup3\n        /* \"#utility.yul\":5561:5562   */\n      dup3\n        /* \"#utility.yul\":5557:5566   */\n      mul\n        /* \"#utility.yul\":5586:5615   */\n      tag_154\n        /* \"#utility.yul\":5603:5614   */\n      dup2\n        /* \"#utility.yul\":5586:5615   */\n      tag_75\n      jump\t// in\n    tag_154:\n        /* \"#utility.yul\":5575:5615   */\n      swap2\n      pop\n        /* \"#utility.yul\":5673:5739   */\n      0x8000000000000000000000000000000000000000000000000000000000000000\n        /* \"#utility.yul\":5670:5671   */\n      dup5\n        /* \"#utility.yul\":5667:5740   */\n      eq\n        /* \"#utility.yul\":5663:5664   */\n      0x00\n        /* \"#utility.yul\":5660:5661   */\n      dup5\n        /* \"#utility.yul\":5656:5665   */\n      slt\n        /* \"#utility.yul\":5652:5741   */\n      and\n        /* \"#utility.yul\":5649:5764   */\n      iszero\n      tag_155\n      jumpi\n        /* \"#utility.yul\":5744:5762   */\n      tag_156\n      tag_70\n      jump\t// in\n    tag_156:\n        /* \"#utility.yul\":5649:5764   */\n    tag_155:\n        /* \"#utility.yul\":5914:5915   */\n      dup3\n        /* \"#utility.yul\":5905:5912   */\n      dup3\n        /* \"#utility.yul\":5900:5916   */\n      sdiv\n        /* \"#utility.yul\":5897:5898   */\n      dup5\n        /* \"#utility.yul\":5894:5917   */\n      eq\n        /* \"#utility.yul\":5874:5875   */\n      dup4\n        /* \"#utility.yul\":5867:5876   */\n      iszero\n        /* \"#utility.yul\":5847:5931   */\n      or\n        /* \"#utility.yul\":5824:5964   */\n      tag_157\n      jumpi\n        /* \"#utility.yul\":5944:5962   */\n      tag_158\n      tag_70\n      jump\t// in\n    tag_158:\n        /* \"#utility.yul\":5824:5964   */\n    tag_157:\n        /* \"#utility.yul\":5462:5971   */\n      pop\n        /* \"#utility.yul\":5415:5971   */\n      swap3\n      swap2\n      pop\n      pop\n      jump\t// out\n        /* \"#utility.yul\":5977:6146   */\n    tag_79:\n        /* \"#utility.yul\":6061:6072   */\n      0x00\n        /* \"#utility.yul\":6095:6101   */\n      dup3\n        /* \"#utility.yul\":6090:6093   */\n      dup3\n        /* \"#utility.yul\":6083:6102   */\n      mstore\n        /* \"#utility.yul\":6135:6139   */\n      0x20\n        /* \"#utility.yul\":6130:6133   */\n      dup3\n        /* \"#utility.yul\":6126:6140   */\n      add\n        /* \"#utility.yul\":6111:6140   */\n      swap1\n      pop\n        /* \"#utility.yul\":5977:6146   */\n      swap3\n      swap2\n      pop\n      pop\n      jump\t// out\n        /* \"#utility.yul\":6152:6390   */\n    tag_80:\n        /* \"#utility.yul\":6292:6326   */\n      0x46756e6473206e6f742073756666696369656e742c206d696e696d756d206465\n        /* \"#utility.yul\":6288:6289   */\n      0x00\n        /* \"#utility.yul\":6280:6286   */\n      dup3\n        /* \"#utility.yul\":6276:6290   */\n      add\n        /* \"#utility.yul\":6269:6327   */\n      mstore\n        /* \"#utility.yul\":6361:6382   */\n      0x706f736974206d75737420626520312045544800000000000000000000000000\n        /* \"#utility.yul\":6356:6358   */\n      0x20\n        /* \"#utility.yul\":6348:6354   */\n      dup3\n        /* \"#utility.yul\":6344:6359   */\n      add\n        /* \"#utility.yul\":6337:6383   */\n      mstore\n        /* \"#utility.yul\":6152:6390   */\n      pop\n      jump\t// out\n        /* \"#utility.yul\":6396:6762   */\n    tag_81:\n        /* \"#utility.yul\":6538:6541   */\n      0x00\n        /* \"#utility.yul\":6559:6626   */\n      tag_162\n        /* \"#utility.yul\":6623:6625   */\n      0x33\n        /* \"#utility.yul\":6618:6621   */\n      dup4\n        /* \"#utility.yul\":6559:6626   */\n      tag_79\n      jump\t// in\n    tag_162:\n        /* \"#utility.yul\":6552:6626   */\n      swap2\n      pop\n        /* \"#utility.yul\":6635:6728   */\n      tag_163\n        /* \"#utility.yul\":6724:6727   */\n      dup3\n        /* \"#utility.yul\":6635:6728   */\n      tag_80\n      jump\t// in\n    tag_163:\n        /* \"#utility.yul\":6753:6755   */\n      0x40\n        /* \"#utility.yul\":6748:6751   */\n      dup3\n        /* \"#utility.yul\":6744:6756   */\n      add\n        /* \"#utility.yul\":6737:6756   */\n      swap1\n      pop\n        /* \"#utility.yul\":6396:6762   */\n      swap2\n      swap1\n      pop\n      jump\t// out\n        /* \"#utility.yul\":6768:7187   */\n    tag_54:\n        /* \"#utility.yul\":6934:6938   */\n      0x00\n        /* \"#utility.yul\":6972:6974   */\n      0x20\n        /* \"#utility.yul\":6961:6970   */\n      dup3\n        /* \"#utility.yul\":6957:6975   */\n      add\n        /* \"#utility.yul\":6949:6975   */\n      swap1\n      pop\n        /* \"#utility.yul\":7021:7030   */\n      dup2\n        /* \"#utility.yul\":7015:7019   */\n      dup2\n        /* \"#utility.yul\":7011:7031   */\n      sub\n        /* \"#utility.yul\":7007:7008   */\n      0x00\n        /* \"#utility.yul\":6996:7005   */\n      dup4\n        /* \"#utility.yul\":6992:7009   */\n      add\n        /* \"#utility.yul\":6985:7032   */\n      mstore\n        /* \"#utility.yul\":7049:7180   */\n      tag_165\n        /* \"#utility.yul\":7175:7179   */\n      dup2\n        /* \"#utility.yul\":7049:7180   */\n      tag_81\n      jump\t// in\n    tag_165:\n        /* \"#utility.yul\":7041:7180   */\n      swap1\n      pop\n        /* \"#utility.yul\":6768:7187   */\n      swap2\n      swap1\n      pop\n      jump\t// out\n\n    auxdata: 0xa2646970667358221220c0a13d7c2e2cb974fab02778c52b4b66fcb649b8f82658b6930352fe670e1df364736f6c63430008120033\n}\n",
				"bytecode": {
					"linkReferences": {},
					"object": "60806040526802b5e3af16b188000060005534801561001d57600080fd5b506108188061002d6000396000f3fe6080604052600436106100555760003560e01c8063203e1b541461005a5780636e5b6b281461008557806398d5fdca146100c2578063b60d4288146100ed578063d310a282146100f7578063dc0d3dff14610134575b600080fd5b34801561006657600080fd5b5061006f610171565b60405161007c91906103c0565b60405180910390f35b34801561009157600080fd5b506100ac60048036038101906100a7919061040c565b610177565b6040516100b991906103c0565b60405180910390f35b3480156100ce57600080fd5b506100d76101b1565b6040516100e491906103c0565b60405180910390f35b6100f561025a565b005b34801561010357600080fd5b5061011e60048036038101906101199190610497565b610350565b60405161012b91906103c0565b60405180910390f35b34801561014057600080fd5b5061015b6004803603810190610156919061040c565b610368565b60405161016891906104d3565b60405180910390f35b60005481565b6000806101826101b1565b90506000670de0b6b3a7640000848361019b919061051d565b6101a5919061058e565b90508092505050919050565b60008073694aa1769357215de4fac081bf1f309adc325306905060008173ffffffffffffffffffffffffffffffffffffffff1663feaf968c6040518163ffffffff1660e01b815260040160a060405180830381865afa158015610218573d6000803e3d6000fd5b505050506040513d601f19601f8201168201806040525081019061023c919061064c565b5050509150506402540be4008161025391906106c7565b9250505090565b60005461026634610177565b10156102a7576040517f08c379a000000000000000000000000000000000000000000000000000000000815260040161029e906107c2565b60405180910390fd5b6001339080600181540180825580915050600190039060005260206000200160009091909190916101000a81548173ffffffffffffffffffffffffffffffffffffffff021916908373ffffffffffffffffffffffffffffffffffffffff16021790555034600260003373ffffffffffffffffffffffffffffffffffffffff1673ffffffffffffffffffffffffffffffffffffffff16815260200190815260200160002081905550565b60026020528060005260406000206000915090505481565b6001818154811061037857600080fd5b906000526020600020016000915054906101000a900473ffffffffffffffffffffffffffffffffffffffff1681565b6000819050919050565b6103ba816103a7565b82525050565b60006020820190506103d560008301846103b1565b92915050565b600080fd5b6103e9816103a7565b81146103f457600080fd5b50565b600081359050610406816103e0565b92915050565b600060208284031215610422576104216103db565b5b6000610430848285016103f7565b91505092915050565b600073ffffffffffffffffffffffffffffffffffffffff82169050919050565b600061046482610439565b9050919050565b61047481610459565b811461047f57600080fd5b50565b6000813590506104918161046b565b92915050565b6000602082840312156104ad576104ac6103db565b5b60006104bb84828501610482565b91505092915050565b6104cd81610459565b82525050565b60006020820190506104e860008301846104c4565b92915050565b7f4e487b7100000000000000000000000000000000000000000000000000000000600052601160045260246000fd5b6000610528826103a7565b9150610533836103a7565b9250828202610541816103a7565b91508282048414831517610558576105576104ee565b5b5092915050565b7f4e487b7100000000000000000000000000000000000000000000000000000000600052601260045260246000fd5b6000610599826103a7565b91506105a4836103a7565b9250826105b4576105b361055f565b5b828204905092915050565b600069ffffffffffffffffffff82169050919050565b6105de816105bf565b81146105e957600080fd5b50565b6000815190506105fb816105d5565b92915050565b6000819050919050565b61061481610601565b811461061f57600080fd5b50565b6000815190506106318161060b565b92915050565b600081519050610646816103e0565b92915050565b600080600080600060a08688031215610668576106676103db565b5b6000610676888289016105ec565b955050602061068788828901610622565b945050604061069888828901610637565b93505060606106a988828901610637565b92505060806106ba888289016105ec565b9150509295509295909350565b60006106d282610601565b91506106dd83610601565b92508282026106eb81610601565b91507f80000000000000000000000000000000000000000000000000000000000000008414600084121615610723576107226104ee565b5b8282058414831517610738576107376104ee565b5b5092915050565b600082825260208201905092915050565b7f46756e6473206e6f742073756666696369656e742c206d696e696d756d20646560008201527f706f736974206d75737420626520312045544800000000000000000000000000602082015250565b60006107ac60338361073f565b91506107b782610750565b604082019050919050565b600060208201905081810360008301526107db8161079f565b905091905056fea2646970667358221220c0a13d7c2e2cb974fab02778c52b4b66fcb649b8f82658b6930352fe670e1df364736f6c63430008120033",
					"opcodes": "PUSH1 0x80 PUSH1 0x40 MSTORE PUSH9 0x2B5E3AF16B1880000 PUSH1 0x0 SSTORE CALLVALUE DUP1 ISZERO PUSH2 0x1D JUMPI PUSH1 0x0 DUP1 REVERT JUMPDEST POP PUSH2 0x818 DUP1 PUSH2 0x2D PUSH1 0x0 CODECOPY PUSH1 0x0 RETURN INVALID PUSH1 0x80 PUSH1 0x40 MSTORE PUSH1 0x4 CALLDATASIZE LT PUSH2 0x55 JUMPI PUSH1 0x0 CALLDATALOAD PUSH1 0xE0 SHR DUP1 PUSH4 0x203E1B54 EQ PUSH2 0x5A JUMPI DUP1 PUSH4 0x6E5B6B28 EQ PUSH2 0x85 JUMPI DUP1 PUSH4 0x98D5FDCA EQ PUSH2 0xC2 JUMPI DUP1 PUSH4 0xB60D4288 EQ PUSH2 0xED JUMPI DUP1 PUSH4 0xD310A282 EQ PUSH2 0xF7 JUMPI DUP1 PUSH4 0xDC0D3DFF EQ PUSH2 0x134 JUMPI JUMPDEST PUSH1 0x0 DUP1 REVERT JUMPDEST CALLVALUE DUP1 ISZERO PUSH2 0x66 JUMPI PUSH1 0x0 DUP1 REVERT JUMPDEST POP PUSH2 0x6F PUSH2 0x171 JUMP JUMPDEST PUSH1 0x40 MLOAD PUSH2 0x7C SWAP2 SWAP1 PUSH2 0x3C0 JUMP JUMPDEST PUSH1 0x40 MLOAD DUP1 SWAP2 SUB SWAP1 RETURN JUMPDEST CALLVALUE DUP1 ISZERO PUSH2 0x91 JUMPI PUSH1 0x0 DUP1 REVERT JUMPDEST POP PUSH2 0xAC PUSH1 0x4 DUP1 CALLDATASIZE SUB DUP2 ADD SWAP1 PUSH2 0xA7 SWAP2 SWAP1 PUSH2 0x40C JUMP JUMPDEST PUSH2 0x177 JUMP JUMPDEST PUSH1 0x40 MLOAD PUSH2 0xB9 SWAP2 SWAP1 PUSH2 0x3C0 JUMP JUMPDEST PUSH1 0x40 MLOAD DUP1 SWAP2 SUB SWAP1 RETURN JUMPDEST CALLVALUE DUP1 ISZERO PUSH2 0xCE JUMPI PUSH1 0x0 DUP1 REVERT JUMPDEST POP PUSH2 0xD7 PUSH2 0x1B1 JUMP JUMPDEST PUSH1 0x40 MLOAD PUSH2 0xE4 SWAP2 SWAP1 PUSH2 0x3C0 JUMP JUMPDEST PUSH1 0x40 MLOAD DUP1 SWAP2 SUB SWAP1 RETURN JUMPDEST PUSH2 0xF5 PUSH2 0x25A JUMP JUMPDEST STOP JUMPDEST CALLVALUE DUP1 ISZERO PUSH2 0x103 JUMPI PUSH1 0x0 DUP1 REVERT JUMPDEST POP PUSH2 0x11E PUSH1 0x4 DUP1 CALLDATASIZE SUB DUP2 ADD SWAP1 PUSH2 0x119 SWAP2 SWAP1 PUSH2 0x497 JUMP JUMPDEST PUSH2 0x350 JUMP JUMPDEST PUSH1 0x40 MLOAD PUSH2 0x12B SWAP2 SWAP1 PUSH2 0x3C0 JUMP JUMPDEST PUSH1 0x40 MLOAD DUP1 SWAP2 SUB SWAP1 RETURN JUMPDEST CALLVALUE DUP1 ISZERO PUSH2 0x140 JUMPI PUSH1 0x0 DUP1 REVERT JUMPDEST POP PUSH2 0x15B PUSH1 0x4 DUP1 CALLDATASIZE SUB DUP2 ADD SWAP1 PUSH2 0x156 SWAP2 SWAP1 PUSH2 0x40C JUMP JUMPDEST PUSH2 0x368 JUMP JUMPDEST PUSH1 0x40 MLOAD PUSH2 0x168 SWAP2 SWAP1 PUSH2 0x4D3 JUMP JUMPDEST PUSH1 0x40 MLOAD DUP1 SWAP2 SUB SWAP1 RETURN JUMPDEST PUSH1 0x0 SLOAD DUP2 JUMP JUMPDEST PUSH1 0x0 DUP1 PUSH2 0x182 PUSH2 0x1B1 JUMP JUMPDEST SWAP1 POP PUSH1 0x0 PUSH8 0xDE0B6B3A7640000 DUP5 DUP4 PUSH2 0x19B SWAP2 SWAP1 PUSH2 0x51D JUMP JUMPDEST PUSH2 0x1A5 SWAP2 SWAP1 PUSH2 0x58E JUMP JUMPDEST SWAP1 POP DUP1 SWAP3 POP POP POP SWAP2 SWAP1 POP JUMP JUMPDEST PUSH1 0x0 DUP1 PUSH20 0x694AA1769357215DE4FAC081BF1F309ADC325306 SWAP1 POP PUSH1 0x0 DUP2 PUSH20 0xFFFFFFFFFFFFFFFFFFFFFFFFFFFFFFFFFFFFFFFF AND PUSH4 0xFEAF968C PUSH1 0x40 MLOAD DUP2 PUSH4 0xFFFFFFFF AND PUSH1 0xE0 SHL DUP2 MSTORE PUSH1 0x4 ADD PUSH1 0xA0 PUSH1 0x40 MLOAD DUP1 DUP4 SUB DUP2 DUP7 GAS STATICCALL ISZERO DUP1 ISZERO PUSH2 0x218 JUMPI RETURNDATASIZE PUSH1 0x0 DUP1 RETURNDATACOPY RETURNDATASIZE PUSH1 0x0 REVERT JUMPDEST POP POP POP POP PUSH1 0x40 MLOAD RETURNDATASIZE PUSH1 0x1F NOT PUSH1 0x1F DUP3 ADD AND DUP3 ADD DUP1 PUSH1 0x40 MSTORE POP DUP2 ADD SWAP1 PUSH2 0x23C SWAP2 SWAP1 PUSH2 0x64C JUMP JUMPDEST POP POP POP SWAP2 POP POP PUSH5 0x2540BE400 DUP2 PUSH2 0x253 SWAP2 SWAP1 PUSH2 0x6C7 JUMP JUMPDEST SWAP3 POP POP POP SWAP1 JUMP JUMPDEST PUSH1 0x0 SLOAD PUSH2 0x266 CALLVALUE PUSH2 0x177 JUMP JUMPDEST LT ISZERO PUSH2 0x2A7 JUMPI PUSH1 0x40 MLOAD PUSH32 0x8C379A000000000000000000000000000000000000000000000000000000000 DUP2 MSTORE PUSH1 0x4 ADD PUSH2 0x29E SWAP1 PUSH2 0x7C2 JUMP JUMPDEST PUSH1 0x40 MLOAD DUP1 SWAP2 SUB SWAP1 REVERT JUMPDEST PUSH1 0x1 CALLER SWAP1 DUP1 PUSH1 0x1 DUP2 SLOAD ADD DUP1 DUP3 SSTORE DUP1 SWAP2 POP POP PUSH1 0x1 SWAP1 SUB SWAP1 PUSH1 0x0 MSTORE PUSH1 0x20 PUSH1 0x0 KECCAK256 ADD PUSH1 0x0 SWAP1 SWAP2 SWAP1 SWAP2 SWAP1 SWAP2 PUSH2 0x100 EXP DUP2 SLOAD DUP2 PUSH20 0xFFFFFFFFFFFFFFFFFFFFFFFFFFFFFFFFFFFFFFFF MUL NOT AND SWAP1 DUP4 PUSH20 0xFFFFFFFFFFFFFFFFFFFFFFFFFFFFFFFFFFFFFFFF AND MUL OR SWAP1 SSTORE POP CALLVALUE PUSH1 0x2 PUSH1 0x0 CALLER PUSH20 0xFFFFFFFFFFFFFFFFFFFFFFFFFFFFFFFFFFFFFFFF AND PUSH20 0xFFFFFFFFFFFFFFFFFFFFFFFFFFFFFFFFFFFFFFFF AND DUP2 MSTORE PUSH1 0x20 ADD SWAP1 DUP2 MSTORE PUSH1 0x20 ADD PUSH1 0x0 KECCAK256 DUP2 SWAP1 SSTORE POP JUMP JUMPDEST PUSH1 0x2 PUSH1 0x20 MSTORE DUP1 PUSH1 0x0 MSTORE PUSH1 0x40 PUSH1 0x0 KECCAK256 PUSH1 0x0 SWAP2 POP SWAP1 POP SLOAD DUP2 JUMP JUMPDEST PUSH1 0x1 DUP2 DUP2 SLOAD DUP2 LT PUSH2 0x378 JUMPI PUSH1 0x0 DUP1 REVERT JUMPDEST SWAP1 PUSH1 0x0 MSTORE PUSH1 0x20 PUSH1 0x0 KECCAK256 ADD PUSH1 0x0 SWAP2 POP SLOAD SWAP1 PUSH2 0x100 EXP SWAP1 DIV PUSH20 0xFFFFFFFFFFFFFFFFFFFFFFFFFFFFFFFFFFFFFFFF AND DUP2 JUMP JUMPDEST PUSH1 0x0 DUP2 SWAP1 POP SWAP2 SWAP1 POP JUMP JUMPDEST PUSH2 0x3BA DUP2 PUSH2 0x3A7 JUMP JUMPDEST DUP3 MSTORE POP POP JUMP JUMPDEST PUSH1 0x0 PUSH1 0x20 DUP3 ADD SWAP1 POP PUSH2 0x3D5 PUSH1 0x0 DUP4 ADD DUP5 PUSH2 0x3B1 JUMP JUMPDEST SWAP3 SWAP2 POP POP JUMP JUMPDEST PUSH1 0x0 DUP1 REVERT JUMPDEST PUSH2 0x3E9 DUP2 PUSH2 0x3A7 JUMP JUMPDEST DUP2 EQ PUSH2 0x3F4 JUMPI PUSH1 0x0 DUP1 REVERT JUMPDEST POP JUMP JUMPDEST PUSH1 0x0 DUP2 CALLDATALOAD SWAP1 POP PUSH2 0x406 DUP2 PUSH2 0x3E0 JUMP JUMPDEST SWAP3 SWAP2 POP POP JUMP JUMPDEST PUSH1 0x0 PUSH1 0x20 DUP3 DUP5 SUB SLT ISZERO PUSH2 0x422 JUMPI PUSH2 0x421 PUSH2 0x3DB JUMP JUMPDEST JUMPDEST PUSH1 0x0 PUSH2 0x430 DUP5 DUP3 DUP6 ADD PUSH2 0x3F7 JUMP JUMPDEST SWAP2 POP POP SWAP3 SWAP2 POP POP JUMP JUMPDEST PUSH1 0x0 PUSH20 0xFFFFFFFFFFFFFFFFFFFFFFFFFFFFFFFFFFFFFFFF DUP3 AND SWAP1 POP SWAP2 SWAP1 POP JUMP JUMPDEST PUSH1 0x0 PUSH2 0x464 DUP3 PUSH2 0x439 JUMP JUMPDEST SWAP1 POP SWAP2 SWAP1 POP JUMP JUMPDEST PUSH2 0x474 DUP2 PUSH2 0x459 JUMP JUMPDEST DUP2 EQ PUSH2 0x47F JUMPI PUSH1 0x0 DUP1 REVERT JUMPDEST POP JUMP JUMPDEST PUSH1 0x0 DUP2 CALLDATALOAD SWAP1 POP PUSH2 0x491 DUP2 PUSH2 0x46B JUMP JUMPDEST SWAP3 SWAP2 POP POP JUMP JUMPDEST PUSH1 0x0 PUSH1 0x20 DUP3 DUP5 SUB SLT ISZERO PUSH2 0x4AD JUMPI PUSH2 0x4AC PUSH2 0x3DB JUMP JUMPDEST JUMPDEST PUSH1 0x0 PUSH2 0x4BB DUP5 DUP3 DUP6 ADD PUSH2 0x482 JUMP JUMPDEST SWAP2 POP POP SWAP3 SWAP2 POP POP JUMP JUMPDEST PUSH2 0x4CD DUP2 PUSH2 0x459 JUMP JUMPDEST DUP3 MSTORE POP POP JUMP JUMPDEST PUSH1 0x0 PUSH1 0x20 DUP3 ADD SWAP1 POP PUSH2 0x4E8 PUSH1 0x0 DUP4 ADD DUP5 PUSH2 0x4C4 JUMP JUMPDEST SWAP3 SWAP2 POP POP JUMP JUMPDEST PUSH32 0x4E487B7100000000000000000000000000000000000000000000000000000000 PUSH1 0x0 MSTORE PUSH1 0x11 PUSH1 0x4 MSTORE PUSH1 0x24 PUSH1 0x0 REVERT JUMPDEST PUSH1 0x0 PUSH2 0x528 DUP3 PUSH2 0x3A7 JUMP JUMPDEST SWAP2 POP PUSH2 0x533 DUP4 PUSH2 0x3A7 JUMP JUMPDEST SWAP3 POP DUP3 DUP3 MUL PUSH2 0x541 DUP2 PUSH2 0x3A7 JUMP JUMPDEST SWAP2 POP DUP3 DUP3 DIV DUP5 EQ DUP4 ISZERO OR PUSH2 0x558 JUMPI PUSH2 0x557 PUSH2 0x4EE JUMP JUMPDEST JUMPDEST POP SWAP3 SWAP2 POP POP JUMP JUMPDEST PUSH32 0x4E487B7100000000000000000000000000000000000000000000000000000000 PUSH1 0x0 MSTORE PUSH1 0x12 PUSH1 0x4 MSTORE PUSH1 0x24 PUSH1 0x0 REVERT JUMPDEST PUSH1 0x0 PUSH2 0x599 DUP3 PUSH2 0x3A7 JUMP JUMPDEST SWAP2 POP PUSH2 0x5A4 DUP4 PUSH2 0x3A7 JUMP JUMPDEST SWAP3 POP DUP3 PUSH2 0x5B4 JUMPI PUSH2 0x5B3 PUSH2 0x55F JUMP JUMPDEST JUMPDEST DUP3 DUP3 DIV SWAP1 POP SWAP3 SWAP2 POP POP JUMP JUMPDEST PUSH1 0x0 PUSH10 0xFFFFFFFFFFFFFFFFFFFF DUP3 AND SWAP1 POP SWAP2 SWAP1 POP JUMP JUMPDEST PUSH2 0x5DE DUP2 PUSH2 0x5BF JUMP JUMPDEST DUP2 EQ PUSH2 0x5E9 JUMPI PUSH1 0x0 DUP1 REVERT JUMPDEST POP JUMP JUMPDEST PUSH1 0x0 DUP2 MLOAD SWAP1 POP PUSH2 0x5FB DUP2 PUSH2 0x5D5 JUMP JUMPDEST SWAP3 SWAP2 POP POP JUMP JUMPDEST PUSH1 0x0 DUP2 SWAP1 POP SWAP2 SWAP1 POP JUMP JUMPDEST PUSH2 0x614 DUP2 PUSH2 0x601 JUMP JUMPDEST DUP2 EQ PUSH2 0x61F JUMPI PUSH1 0x0 DUP1 REVERT JUMPDEST POP JUMP JUMPDEST PUSH1 0x0 DUP2 MLOAD SWAP1 POP PUSH2 0x631 DUP2 PUSH2 0x60B JUMP JUMPDEST SWAP3 SWAP2 POP POP JUMP JUMPDEST PUSH1 0x0 DUP2 MLOAD SWAP1 POP PUSH2 0x646 DUP2 PUSH2 0x3E0 JUMP JUMPDEST SWAP3 SWAP2 POP POP JUMP JUMPDEST PUSH1 0x0 DUP1 PUSH1 0x0 DUP1 PUSH1 0x0 PUSH1 0xA0 DUP7 DUP9 SUB SLT ISZERO PUSH2 0x668 JUMPI PUSH2 0x667 PUSH2 0x3DB JUMP JUMPDEST JUMPDEST PUSH1 0x0 PUSH2 0x676 DUP9 DUP3 DUP10 ADD PUSH2 0x5EC JUMP JUMPDEST SWAP6 POP POP PUSH1 0x20 PUSH2 0x687 DUP9 DUP3 DUP10 ADD PUSH2 0x622 JUMP JUMPDEST SWAP5 POP POP PUSH1 0x40 PUSH2 0x698 DUP9 DUP3 DUP10 ADD PUSH2 0x637 JUMP JUMPDEST SWAP4 POP POP PUSH1 0x60 PUSH2 0x6A9 DUP9 DUP3 DUP10 ADD PUSH2 0x637 JUMP JUMPDEST SWAP3 POP POP PUSH1 0x80 PUSH2 0x6BA DUP9 DUP3 DUP10 ADD PUSH2 0x5EC JUMP JUMPDEST SWAP2 POP POP SWAP3 SWAP6 POP SWAP3 SWAP6 SWAP1 SWAP4 POP JUMP JUMPDEST PUSH1 0x0 PUSH2 0x6D2 DUP3 PUSH2 0x601 JUMP JUMPDEST SWAP2 POP PUSH2 0x6DD DUP4 PUSH2 0x601 JUMP JUMPDEST SWAP3 POP DUP3 DUP3 MUL PUSH2 0x6EB DUP2 PUSH2 0x601 JUMP JUMPDEST SWAP2 POP PUSH32 0x8000000000000000000000000000000000000000000000000000000000000000 DUP5 EQ PUSH1 0x0 DUP5 SLT AND ISZERO PUSH2 0x723 JUMPI PUSH2 0x722 PUSH2 0x4EE JUMP JUMPDEST JUMPDEST DUP3 DUP3 SDIV DUP5 EQ DUP4 ISZERO OR PUSH2 0x738 JUMPI PUSH2 0x737 PUSH2 0x4EE JUMP JUMPDEST JUMPDEST POP SWAP3 SWAP2 POP POP JUMP JUMPDEST PUSH1 0x0 DUP3 DUP3 MSTORE PUSH1 0x20 DUP3 ADD SWAP1 POP SWAP3 SWAP2 POP POP JUMP JUMPDEST PUSH32 0x46756E6473206E6F742073756666696369656E742C206D696E696D756D206465 PUSH1 0x0 DUP3 ADD MSTORE PUSH32 0x706F736974206D75737420626520312045544800000000000000000000000000 PUSH1 0x20 DUP3 ADD MSTORE POP JUMP JUMPDEST PUSH1 0x0 PUSH2 0x7AC PUSH1 0x33 DUP4 PUSH2 0x73F JUMP JUMPDEST SWAP2 POP PUSH2 0x7B7 DUP3 PUSH2 0x750 JUMP JUMPDEST PUSH1 0x40 DUP3 ADD SWAP1 POP SWAP2 SWAP1 POP JUMP JUMPDEST PUSH1 0x0 PUSH1 0x20 DUP3 ADD SWAP1 POP DUP2 DUP2 SUB PUSH1 0x0 DUP4 ADD MSTORE PUSH2 0x7DB DUP2 PUSH2 0x79F JUMP JUMPDEST SWAP1 POP SWAP2 SWAP1 POP JUMP INVALID LOG2 PUSH5 0x6970667358 0x22 SLT KECCAK256 0xC0 LOG1 RETURNDATASIZE PUSH29 0x2E2CB974FAB02778C52B4B66FCB649B8F82658B6930352FE670E1DF364 PUSH20 0x6F6C634300081200330000000000000000000000 "
				},
				"gasEstimates": {
					"creation": {
						"codeDepositCost": "414400",
						"executionCost": "22555",
						"totalCost": "436955"
					},
					"external": {
						"AddressToMoneyFunded(address)": "2880",
						"fund()": "infinite",
						"funders(uint256)": "5044",
						"getConversionRate(uint256)": "infinite",
						"getPrice()": "infinite",
						"minFundUSD()": "2407"
					}
				},
				"methodIdentifiers": {
					"AddressToMoneyFunded(address)": "d310a282",
					"fund()": "b60d4288",
					"funders(uint256)": "dc0d3dff",
					"getConversionRate(uint256)": "6e5b6b28",
					"getPrice()": "98d5fdca",
					"minFundUSD()": "203e1b54"
				}
			},
			"storageLayout": {
				"storage": [
					{
						"astId": 53,
						"contract": "FundMe/5-FundMe.sol:FundMe",
						"label": "minFundUSD",
						"offset": 0,
						"slot": "0",
						"type": "t_uint256"
					},
					{
						"astId": 56,
						"contract": "FundMe/5-FundMe.sol:FundMe",
						"label": "funders",
						"offset": 0,
						"slot": "1",
						"type": "t_array(t_address)dyn_storage"
					},
					{
						"astId": 60,
						"contract": "FundMe/5-FundMe.sol:FundMe",
						"label": "AddressToMoneyFunded",
						"offset": 0,
						"slot": "2",
						"type": "t_mapping(t_address,t_uint256)"
					}
				],
				"types": {
					"t_address": {
						"encoding": "inplace",
						"label": "address",
						"numberOfBytes": "20"
					},
					"t_array(t_address)dyn_storage": {
						"base": "t_address",
						"encoding": "dynamic_array",
						"label": "address[]",
						"numberOfBytes": "32"
					},
					"t_mapping(t_address,t_uint256)": {
						"encoding": "mapping",
						"key": "t_address",
						"label": "mapping(address => uint256)",
						"numberOfBytes": "32",
						"value": "t_uint256"
					},
					"t_uint256": {
						"encoding": "inplace",
						"label": "uint256",
						"numberOfBytes": "32"
					}
				}
			},
			"userdoc": {
				"kind": "user",
				"methods": {},
				"version": 1
			}
		}
	}
}