{
	"data": {
		"bytecode": {
			"linkReferences": {},
			"object": "608060405260016000806101000a81548160ff0219169083151502179055506101006001556040518060400160405280600481526020017f4669766500000000000000000000000000000000000000000000000000000000815250600290816200006a9190620003e8565b50600560035573e3d5ecbffaff17f7b936a66ccf65121da9d78989600460006101000a81548173ffffffffffffffffffffffffffffffffffffffff021916908373ffffffffffffffffffffffffffffffffffffffff1602179055507f63617400000000000000000000000000000000000000000000000000000000006005556040518060400160405280600281526020016040518060400160405280600781526020017f7061747269636b000000000000000000000000000000000000000000000000008152508152506007600082015181600001556020820151816001019081620001579190620003e8565b5050503480156200016757600080fd5b50620004cf565b600081519050919050565b7f4e487b7100000000000000000000000000000000000000000000000000000000600052604160045260246000fd5b7f4e487b7100000000000000000000000000000000000000000000000000000000600052602260045260246000fd5b60006002820490506001821680620001f057607f821691505b602082108103620002065762000205620001a8565b5b50919050565b60008190508160005260206000209050919050565b60006020601f8301049050919050565b600082821b905092915050565b600060088302620002707fffffffffffffffffffffffffffffffffffffffffffffffffffffffffffffffff8262000231565b6200027c868362000231565b95508019841693508086168417925050509392505050565b6000819050919050565b6000819050919050565b6000620002c9620002c3620002bd8462000294565b6200029e565b62000294565b9050919050565b6000819050919050565b620002e583620002a8565b620002fd620002f482620002d0565b8484546200023e565b825550505050565b600090565b6200031462000305565b62000321818484620002da565b505050565b5b8181101562000349576200033d6000826200030a565b60018101905062000327565b5050565b601f821115620003985762000362816200020c565b6200036d8462000221565b810160208510156200037d578190505b620003956200038c8562000221565b83018262000326565b50505b505050565b600082821c905092915050565b6000620003bd600019846008026200039d565b1980831691505092915050565b6000620003d88383620003aa565b9150826002028217905092915050565b620003f3826200016e565b67ffffffffffffffff8111156200040f576200040e62000179565b5b6200041b8254620001d7565b620004288282856200034d565b600060209050601f8311600181146200046057600084156200044b578287015190505b620004578582620003ca565b865550620004c7565b601f19841662000470866200020c565b60005b828110156200049a5784890151825560018201915060208501945060208101905062000473565b86831015620004ba5784890151620004b6601f891682620003aa565b8355505b6001600288020188555050505b505050505050565b610b0b80620004df6000396000f3fe608060405234801561001057600080fd5b50600436106100935760003560e01c806377ec2b551161006657806377ec2b551461010c578063841841331461012b5780639e7a13ad14610149578063b2ac62ef1461017a578063e1b3202a146101aa57610093565b80632e64cec11461009857806346f2eedf146100b65780634f2be91f146100d25780636057361d146100f0575b600080fd5b6100a06101c6565b6040516100ad919061041f565b60405180910390f35b6100d060048036038101906100cb91906105c0565b6101d0565b005b6100da6101f7565b6040516100e7919061041f565b60405180910390f35b61010a6004803603810190610105919061061c565b610200565b005b610114610216565b6040516101229291906106c8565b60405180910390f35b6101336102b0565b604051610140919061041f565b60405180910390f35b610163600480360381019061015e919061061c565b6102b6565b6040516101719291906106c8565b60405180910390f35b610194600480360381019061018f91906106f8565b610372565b6040516101a1919061041f565b60405180910390f35b6101c460048036038101906101bf91906105c0565b6103a0565b005b6000600154905090565b80600a836040516101e1919061077d565b9081526020016040518091039020819055505050565b60006002905090565b60058161020d91906107c3565b60068190555050565b600780600001549080600101805461022d90610826565b80601f016020809104026020016040519081016040528092919081815260200182805461025990610826565b80156102a65780601f1061027b576101008083540402835291602001916102a6565b820191906000526020600020905b81548152906001019060200180831161028957829003601f168201915b5050505050905082565b60065481565b600981815481106102c657600080fd5b90600052602060002090600202016000915090508060000154908060010180546102ef90610826565b80601f016020809104026020016040519081016040528092919081815260200182805461031b90610826565b80156103685780601f1061033d57610100808354040283529160200191610368565b820191906000526020600020905b81548152906001019060200180831161034b57829003601f168201915b5050505050905082565b600a818051602081018201805184825260208301602085012081835280955050505050506000915090505481565b600960405180604001604052808381526020018481525090806001815401808255809150506001900390600052602060002090600202016000909190919091506000820151816000015560208201518160010190816103ff9190610a03565b5050505050565b6000819050919050565b61041981610406565b82525050565b60006020820190506104346000830184610410565b92915050565b6000604051905090565b600080fd5b600080fd5b600080fd5b600080fd5b6000601f19601f8301169050919050565b7f4e487b7100000000000000000000000000000000000000000000000000000000600052604160045260246000fd5b6104a182610458565b810181811067ffffffffffffffff821117156104c0576104bf610469565b5b80604052505050565b60006104d361043a565b90506104df8282610498565b919050565b600067ffffffffffffffff8211156104ff576104fe610469565b5b61050882610458565b9050602081019050919050565b82818337600083830152505050565b6000610537610532846104e4565b6104c9565b90508281526020810184848401111561055357610552610453565b5b61055e848285610515565b509392505050565b600082601f83011261057b5761057a61044e565b5b813561058b848260208601610524565b91505092915050565b61059d81610406565b81146105a857600080fd5b50565b6000813590506105ba81610594565b92915050565b600080604083850312156105d7576105d6610444565b5b600083013567ffffffffffffffff8111156105f5576105f4610449565b5b61060185828601610566565b9250506020610612858286016105ab565b9150509250929050565b60006020828403121561063257610631610444565b5b6000610640848285016105ab565b91505092915050565b600081519050919050565b600082825260208201905092915050565b60005b83811015610683578082015181840152602081019050610668565b60008484015250505050565b600061069a82610649565b6106a48185610654565b93506106b4818560208601610665565b6106bd81610458565b840191505092915050565b60006040820190506106dd6000830185610410565b81810360208301526106ef818461068f565b90509392505050565b60006020828403121561070e5761070d610444565b5b600082013567ffffffffffffffff81111561072c5761072b610449565b5b61073884828501610566565b91505092915050565b600081905092915050565b600061075782610649565b6107618185610741565b9350610771818560208601610665565b80840191505092915050565b6000610789828461074c565b915081905092915050565b7f4e487b7100000000000000000000000000000000000000000000000000000000600052601160045260246000fd5b60006107ce82610406565b91506107d983610406565b92508282019050808211156107f1576107f0610794565b5b92915050565b7f4e487b7100000000000000000000000000000000000000000000000000000000600052602260045260246000fd5b6000600282049050600182168061083e57607f821691505b602082108103610851576108506107f7565b5b50919050565b60008190508160005260206000209050919050565b60006020601f8301049050919050565b600082821b905092915050565b6000600883026108b97fffffffffffffffffffffffffffffffffffffffffffffffffffffffffffffffff8261087c565b6108c3868361087c565b95508019841693508086168417925050509392505050565b6000819050919050565b60006109006108fb6108f684610406565b6108db565b610406565b9050919050565b6000819050919050565b61091a836108e5565b61092e61092682610907565b848454610889565b825550505050565b600090565b610943610936565b61094e818484610911565b505050565b5b818110156109725761096760008261093b565b600181019050610954565b5050565b601f8211156109b75761098881610857565b6109918461086c565b810160208510156109a0578190505b6109b46109ac8561086c565b830182610953565b50505b505050565b600082821c905092915050565b60006109da600019846008026109bc565b1980831691505092915050565b60006109f383836109c9565b9150826002028217905092915050565b610a0c82610649565b67ffffffffffffffff811115610a2557610a24610469565b5b610a2f8254610826565b610a3a828285610976565b600060209050601f831160018114610a6d5760008415610a5b578287015190505b610a6585826109e7565b865550610acd565b601f198416610a7b86610857565b60005b82811015610aa357848901518255600182019150602085019450602081019050610a7e565b86831015610ac05784890151610abc601f8916826109c9565b8355505b6001600288020188555050505b50505050505056fea26469706673582212204726ada0681f0648c030955834c0d1622f7f8cda8845c87e870e3715a87ad8da64736f6c63430008120033",
			"opcodes": "PUSH1 0x80 PUSH1 0x40 MSTORE PUSH1 0x1 PUSH1 0x0 DUP1 PUSH2 0x100 EXP DUP2 SLOAD DUP2 PUSH1 0xFF MUL NOT AND SWAP1 DUP4 ISZERO ISZERO MUL OR SWAP1 SSTORE POP PUSH2 0x100 PUSH1 0x1 SSTORE PUSH1 0x40 MLOAD DUP1 PUSH1 0x40 ADD PUSH1 0x40 MSTORE DUP1 PUSH1 0x4 DUP2 MSTORE PUSH1 0x20 ADD PUSH32 0x4669766500000000000000000000000000000000000000000000000000000000 DUP2 MSTORE POP PUSH1 0x2 SWAP1 DUP2 PUSH3 0x6A SWAP2 SWAP1 PUSH3 0x3E8 JUMP JUMPDEST POP PUSH1 0x5 PUSH1 0x3 SSTORE PUSH20 0xE3D5ECBFFAFF17F7B936A66CCF65121DA9D78989 PUSH1 0x4 PUSH1 0x0 PUSH2 0x100 EXP DUP2 SLOAD DUP2 PUSH20 0xFFFFFFFFFFFFFFFFFFFFFFFFFFFFFFFFFFFFFFFF MUL NOT AND SWAP1 DUP4 PUSH20 0xFFFFFFFFFFFFFFFFFFFFFFFFFFFFFFFFFFFFFFFF AND MUL OR SWAP1 SSTORE POP PUSH32 0x6361740000000000000000000000000000000000000000000000000000000000 PUSH1 0x5 SSTORE PUSH1 0x40 MLOAD DUP1 PUSH1 0x40 ADD PUSH1 0x40 MSTORE DUP1 PUSH1 0x2 DUP2 MSTORE PUSH1 0x20 ADD PUSH1 0x40 MLOAD DUP1 PUSH1 0x40 ADD PUSH1 0x40 MSTORE DUP1 PUSH1 0x7 DUP2 MSTORE PUSH1 0x20 ADD PUSH32 0x7061747269636B00000000000000000000000000000000000000000000000000 DUP2 MSTORE POP DUP2 MSTORE POP PUSH1 0x7 PUSH1 0x0 DUP3 ADD MLOAD DUP2 PUSH1 0x0 ADD SSTORE PUSH1 0x20 DUP3 ADD MLOAD DUP2 PUSH1 0x1 ADD SWAP1 DUP2 PUSH3 0x157 SWAP2 SWAP1 PUSH3 0x3E8 JUMP JUMPDEST POP POP POP CALLVALUE DUP1 ISZERO PUSH3 0x167 JUMPI PUSH1 0x0 DUP1 REVERT JUMPDEST POP PUSH3 0x4CF JUMP JUMPDEST PUSH1 0x0 DUP2 MLOAD SWAP1 POP SWAP2 SWAP1 POP JUMP JUMPDEST PUSH32 0x4E487B7100000000000000000000000000000000000000000000000000000000 PUSH1 0x0 MSTORE PUSH1 0x41 PUSH1 0x4 MSTORE PUSH1 0x24 PUSH1 0x0 REVERT JUMPDEST PUSH32 0x4E487B7100000000000000000000000000000000000000000000000000000000 PUSH1 0x0 MSTORE PUSH1 0x22 PUSH1 0x4 MSTORE PUSH1 0x24 PUSH1 0x0 REVERT JUMPDEST PUSH1 0x0 PUSH1 0x2 DUP3 DIV SWAP1 POP PUSH1 0x1 DUP3 AND DUP1 PUSH3 0x1F0 JUMPI PUSH1 0x7F DUP3 AND SWAP2 POP JUMPDEST PUSH1 0x20 DUP3 LT DUP2 SUB PUSH3 0x206 JUMPI PUSH3 0x205 PUSH3 0x1A8 JUMP JUMPDEST JUMPDEST POP SWAP2 SWAP1 POP JUMP JUMPDEST PUSH1 0x0 DUP2 SWAP1 POP DUP2 PUSH1 0x0 MSTORE PUSH1 0x20 PUSH1 0x0 KECCAK256 SWAP1 POP SWAP2 SWAP1 POP JUMP JUMPDEST PUSH1 0x0 PUSH1 0x20 PUSH1 0x1F DUP4 ADD DIV SWAP1 POP SWAP2 SWAP1 POP JUMP JUMPDEST PUSH1 0x0 DUP3 DUP3 SHL SWAP1 POP SWAP3 SWAP2 POP POP JUMP JUMPDEST PUSH1 0x0 PUSH1 0x8 DUP4 MUL PUSH3 0x270 PUSH32 0xFFFFFFFFFFFFFFFFFFFFFFFFFFFFFFFFFFFFFFFFFFFFFFFFFFFFFFFFFFFFFFFF DUP3 PUSH3 0x231 JUMP JUMPDEST PUSH3 0x27C DUP7 DUP4 PUSH3 0x231 JUMP JUMPDEST SWAP6 POP DUP1 NOT DUP5 AND SWAP4 POP DUP1 DUP7 AND DUP5 OR SWAP3 POP POP POP SWAP4 SWAP3 POP POP POP JUMP JUMPDEST PUSH1 0x0 DUP2 SWAP1 POP SWAP2 SWAP1 POP JUMP JUMPDEST PUSH1 0x0 DUP2 SWAP1 POP SWAP2 SWAP1 POP JUMP JUMPDEST PUSH1 0x0 PUSH3 0x2C9 PUSH3 0x2C3 PUSH3 0x2BD DUP5 PUSH3 0x294 JUMP JUMPDEST PUSH3 0x29E JUMP JUMPDEST PUSH3 0x294 JUMP JUMPDEST SWAP1 POP SWAP2 SWAP1 POP JUMP JUMPDEST PUSH1 0x0 DUP2 SWAP1 POP SWAP2 SWAP1 POP JUMP JUMPDEST PUSH3 0x2E5 DUP4 PUSH3 0x2A8 JUMP JUMPDEST PUSH3 0x2FD PUSH3 0x2F4 DUP3 PUSH3 0x2D0 JUMP JUMPDEST DUP5 DUP5 SLOAD PUSH3 0x23E JUMP JUMPDEST DUP3 SSTORE POP POP POP POP JUMP JUMPDEST PUSH1 0x0 SWAP1 JUMP JUMPDEST PUSH3 0x314 PUSH3 0x305 JUMP JUMPDEST PUSH3 0x321 DUP2 DUP5 DUP5 PUSH3 0x2DA JUMP JUMPDEST POP POP POP JUMP JUMPDEST JUMPDEST DUP2 DUP2 LT ISZERO PUSH3 0x349 JUMPI PUSH3 0x33D PUSH1 0x0 DUP3 PUSH3 0x30A JUMP JUMPDEST PUSH1 0x1 DUP2 ADD SWAP1 POP PUSH3 0x327 JUMP JUMPDEST POP POP JUMP JUMPDEST PUSH1 0x1F DUP3 GT ISZERO PUSH3 0x398 JUMPI PUSH3 0x362 DUP2 PUSH3 0x20C JUMP JUMPDEST PUSH3 0x36D DUP5 PUSH3 0x221 JUMP JUMPDEST DUP2 ADD PUSH1 0x20 DUP6 LT ISZERO PUSH3 0x37D JUMPI DUP2 SWAP1 POP JUMPDEST PUSH3 0x395 PUSH3 0x38C DUP6 PUSH3 0x221 JUMP JUMPDEST DUP4 ADD DUP3 PUSH3 0x326 JUMP JUMPDEST POP POP JUMPDEST POP POP POP JUMP JUMPDEST PUSH1 0x0 DUP3 DUP3 SHR SWAP1 POP SWAP3 SWAP2 POP POP JUMP JUMPDEST PUSH1 0x0 PUSH3 0x3BD PUSH1 0x0 NOT DUP5 PUSH1 0x8 MUL PUSH3 0x39D JUMP JUMPDEST NOT DUP1 DUP4 AND SWAP2 POP POP SWAP3 SWAP2 POP POP JUMP JUMPDEST PUSH1 0x0 PUSH3 0x3D8 DUP4 DUP4 PUSH3 0x3AA JUMP JUMPDEST SWAP2 POP DUP3 PUSH1 0x2 MUL DUP3 OR SWAP1 POP SWAP3 SWAP2 POP POP JUMP JUMPDEST PUSH3 0x3F3 DUP3 PUSH3 0x16E JUMP JUMPDEST PUSH8 0xFFFFFFFFFFFFFFFF DUP2 GT ISZERO PUSH3 0x40F JUMPI PUSH3 0x40E PUSH3 0x179 JUMP JUMPDEST JUMPDEST PUSH3 0x41B DUP3 SLOAD PUSH3 0x1D7 JUMP JUMPDEST PUSH3 0x428 DUP3 DUP3 DUP6 PUSH3 0x34D JUMP JUMPDEST PUSH1 0x0 PUSH1 0x20 SWAP1 POP PUSH1 0x1F DUP4 GT PUSH1 0x1 DUP2 EQ PUSH3 0x460 JUMPI PUSH1 0x0 DUP5 ISZERO PUSH3 0x44B JUMPI DUP3 DUP8 ADD MLOAD SWAP1 POP JUMPDEST PUSH3 0x457 DUP6 DUP3 PUSH3 0x3CA JUMP JUMPDEST DUP7 SSTORE POP PUSH3 0x4C7 JUMP JUMPDEST PUSH1 0x1F NOT DUP5 AND PUSH3 0x470 DUP7 PUSH3 0x20C JUMP JUMPDEST PUSH1 0x0 JUMPDEST DUP3 DUP2 LT ISZERO PUSH3 0x49A JUMPI DUP5 DUP10 ADD MLOAD DUP3 SSTORE PUSH1 0x1 DUP3 ADD SWAP2 POP PUSH1 0x20 DUP6 ADD SWAP5 POP PUSH1 0x20 DUP2 ADD SWAP1 POP PUSH3 0x473 JUMP JUMPDEST DUP7 DUP4 LT ISZERO PUSH3 0x4BA JUMPI DUP5 DUP10 ADD MLOAD PUSH3 0x4B6 PUSH1 0x1F DUP10 AND DUP3 PUSH3 0x3AA JUMP JUMPDEST DUP4 SSTORE POP JUMPDEST PUSH1 0x1 PUSH1 0x2 DUP9 MUL ADD DUP9 SSTORE POP POP POP JUMPDEST POP POP POP POP POP POP JUMP JUMPDEST PUSH2 0xB0B DUP1 PUSH3 0x4DF PUSH1 0x0 CODECOPY PUSH1 0x0 RETURN INVALID PUSH1 0x80 PUSH1 0x40 MSTORE CALLVALUE DUP1 ISZERO PUSH2 0x10 JUMPI PUSH1 0x0 DUP1 REVERT JUMPDEST POP PUSH1 0x4 CALLDATASIZE LT PUSH2 0x93 JUMPI PUSH1 0x0 CALLDATALOAD PUSH1 0xE0 SHR DUP1 PUSH4 0x77EC2B55 GT PUSH2 0x66 JUMPI DUP1 PUSH4 0x77EC2B55 EQ PUSH2 0x10C JUMPI DUP1 PUSH4 0x84184133 EQ PUSH2 0x12B JUMPI DUP1 PUSH4 0x9E7A13AD EQ PUSH2 0x149 JUMPI DUP1 PUSH4 0xB2AC62EF EQ PUSH2 0x17A JUMPI DUP1 PUSH4 0xE1B3202A EQ PUSH2 0x1AA JUMPI PUSH2 0x93 JUMP JUMPDEST DUP1 PUSH4 0x2E64CEC1 EQ PUSH2 0x98 JUMPI DUP1 PUSH4 0x46F2EEDF EQ PUSH2 0xB6 JUMPI DUP1 PUSH4 0x4F2BE91F EQ PUSH2 0xD2 JUMPI DUP1 PUSH4 0x6057361D EQ PUSH2 0xF0 JUMPI JUMPDEST PUSH1 0x0 DUP1 REVERT JUMPDEST PUSH2 0xA0 PUSH2 0x1C6 JUMP JUMPDEST PUSH1 0x40 MLOAD PUSH2 0xAD SWAP2 SWAP1 PUSH2 0x41F JUMP JUMPDEST PUSH1 0x40 MLOAD DUP1 SWAP2 SUB SWAP1 RETURN JUMPDEST PUSH2 0xD0 PUSH1 0x4 DUP1 CALLDATASIZE SUB DUP2 ADD SWAP1 PUSH2 0xCB SWAP2 SWAP1 PUSH2 0x5C0 JUMP JUMPDEST PUSH2 0x1D0 JUMP JUMPDEST STOP JUMPDEST PUSH2 0xDA PUSH2 0x1F7 JUMP JUMPDEST PUSH1 0x40 MLOAD PUSH2 0xE7 SWAP2 SWAP1 PUSH2 0x41F JUMP JUMPDEST PUSH1 0x40 MLOAD DUP1 SWAP2 SUB SWAP1 RETURN JUMPDEST PUSH2 0x10A PUSH1 0x4 DUP1 CALLDATASIZE SUB DUP2 ADD SWAP1 PUSH2 0x105 SWAP2 SWAP1 PUSH2 0x61C JUMP JUMPDEST PUSH2 0x200 JUMP JUMPDEST STOP JUMPDEST PUSH2 0x114 PUSH2 0x216 JUMP JUMPDEST PUSH1 0x40 MLOAD PUSH2 0x122 SWAP3 SWAP2 SWAP1 PUSH2 0x6C8 JUMP JUMPDEST PUSH1 0x40 MLOAD DUP1 SWAP2 SUB SWAP1 RETURN JUMPDEST PUSH2 0x133 PUSH2 0x2B0 JUMP JUMPDEST PUSH1 0x40 MLOAD PUSH2 0x140 SWAP2 SWAP1 PUSH2 0x41F JUMP JUMPDEST PUSH1 0x40 MLOAD DUP1 SWAP2 SUB SWAP1 RETURN JUMPDEST PUSH2 0x163 PUSH1 0x4 DUP1 CALLDATASIZE SUB DUP2 ADD SWAP1 PUSH2 0x15E SWAP2 SWAP1 PUSH2 0x61C JUMP JUMPDEST PUSH2 0x2B6 JUMP JUMPDEST PUSH1 0x40 MLOAD PUSH2 0x171 SWAP3 SWAP2 SWAP1 PUSH2 0x6C8 JUMP JUMPDEST PUSH1 0x40 MLOAD DUP1 SWAP2 SUB SWAP1 RETURN JUMPDEST PUSH2 0x194 PUSH1 0x4 DUP1 CALLDATASIZE SUB DUP2 ADD SWAP1 PUSH2 0x18F SWAP2 SWAP1 PUSH2 0x6F8 JUMP JUMPDEST PUSH2 0x372 JUMP JUMPDEST PUSH1 0x40 MLOAD PUSH2 0x1A1 SWAP2 SWAP1 PUSH2 0x41F JUMP JUMPDEST PUSH1 0x40 MLOAD DUP1 SWAP2 SUB SWAP1 RETURN JUMPDEST PUSH2 0x1C4 PUSH1 0x4 DUP1 CALLDATASIZE SUB DUP2 ADD SWAP1 PUSH2 0x1BF SWAP2 SWAP1 PUSH2 0x5C0 JUMP JUMPDEST PUSH2 0x3A0 JUMP JUMPDEST STOP JUMPDEST PUSH1 0x0 PUSH1 0x1 SLOAD SWAP1 POP SWAP1 JUMP JUMPDEST DUP1 PUSH1 0xA DUP4 PUSH1 0x40 MLOAD PUSH2 0x1E1 SWAP2 SWAP1 PUSH2 0x77D JUMP JUMPDEST SWAP1 DUP2 MSTORE PUSH1 0x20 ADD PUSH1 0x40 MLOAD DUP1 SWAP2 SUB SWAP1 KECCAK256 DUP2 SWAP1 SSTORE POP POP POP JUMP JUMPDEST PUSH1 0x0 PUSH1 0x2 SWAP1 POP SWAP1 JUMP JUMPDEST PUSH1 0x5 DUP2 PUSH2 0x20D SWAP2 SWAP1 PUSH2 0x7C3 JUMP JUMPDEST PUSH1 0x6 DUP2 SWAP1 SSTORE POP POP JUMP JUMPDEST PUSH1 0x7 DUP1 PUSH1 0x0 ADD SLOAD SWAP1 DUP1 PUSH1 0x1 ADD DUP1 SLOAD PUSH2 0x22D SWAP1 PUSH2 0x826 JUMP JUMPDEST DUP1 PUSH1 0x1F ADD PUSH1 0x20 DUP1 SWAP2 DIV MUL PUSH1 0x20 ADD PUSH1 0x40 MLOAD SWAP1 DUP2 ADD PUSH1 0x40 MSTORE DUP1 SWAP3 SWAP2 SWAP1 DUP2 DUP2 MSTORE PUSH1 0x20 ADD DUP3 DUP1 SLOAD PUSH2 0x259 SWAP1 PUSH2 0x826 JUMP JUMPDEST DUP1 ISZERO PUSH2 0x2A6 JUMPI DUP1 PUSH1 0x1F LT PUSH2 0x27B JUMPI PUSH2 0x100 DUP1 DUP4 SLOAD DIV MUL DUP4 MSTORE SWAP2 PUSH1 0x20 ADD SWAP2 PUSH2 0x2A6 JUMP JUMPDEST DUP3 ADD SWAP2 SWAP1 PUSH1 0x0 MSTORE PUSH1 0x20 PUSH1 0x0 KECCAK256 SWAP1 JUMPDEST DUP2 SLOAD DUP2 MSTORE SWAP1 PUSH1 0x1 ADD SWAP1 PUSH1 0x20 ADD DUP1 DUP4 GT PUSH2 0x289 JUMPI DUP3 SWAP1 SUB PUSH1 0x1F AND DUP3 ADD SWAP2 JUMPDEST POP POP POP POP POP SWAP1 POP DUP3 JUMP JUMPDEST PUSH1 0x6 SLOAD DUP2 JUMP JUMPDEST PUSH1 0x9 DUP2 DUP2 SLOAD DUP2 LT PUSH2 0x2C6 JUMPI PUSH1 0x0 DUP1 REVERT JUMPDEST SWAP1 PUSH1 0x0 MSTORE PUSH1 0x20 PUSH1 0x0 KECCAK256 SWAP1 PUSH1 0x2 MUL ADD PUSH1 0x0 SWAP2 POP SWAP1 POP DUP1 PUSH1 0x0 ADD SLOAD SWAP1 DUP1 PUSH1 0x1 ADD DUP1 SLOAD PUSH2 0x2EF SWAP1 PUSH2 0x826 JUMP JUMPDEST DUP1 PUSH1 0x1F ADD PUSH1 0x20 DUP1 SWAP2 DIV MUL PUSH1 0x20 ADD PUSH1 0x40 MLOAD SWAP1 DUP2 ADD PUSH1 0x40 MSTORE DUP1 SWAP3 SWAP2 SWAP1 DUP2 DUP2 MSTORE PUSH1 0x20 ADD DUP3 DUP1 SLOAD PUSH2 0x31B SWAP1 PUSH2 0x826 JUMP JUMPDEST DUP1 ISZERO PUSH2 0x368 JUMPI DUP1 PUSH1 0x1F LT PUSH2 0x33D JUMPI PUSH2 0x100 DUP1 DUP4 SLOAD DIV MUL DUP4 MSTORE SWAP2 PUSH1 0x20 ADD SWAP2 PUSH2 0x368 JUMP JUMPDEST DUP3 ADD SWAP2 SWAP1 PUSH1 0x0 MSTORE PUSH1 0x20 PUSH1 0x0 KECCAK256 SWAP1 JUMPDEST DUP2 SLOAD DUP2 MSTORE SWAP1 PUSH1 0x1 ADD SWAP1 PUSH1 0x20 ADD DUP1 DUP4 GT PUSH2 0x34B JUMPI DUP3 SWAP1 SUB PUSH1 0x1F AND DUP3 ADD SWAP2 JUMPDEST POP POP POP POP POP SWAP1 POP DUP3 JUMP JUMPDEST PUSH1 0xA DUP2 DUP1 MLOAD PUSH1 0x20 DUP2 ADD DUP3 ADD DUP1 MLOAD DUP5 DUP3 MSTORE PUSH1 0x20 DUP4 ADD PUSH1 0x20 DUP6 ADD KECCAK256 DUP2 DUP4 MSTORE DUP1 SWAP6 POP POP POP POP POP POP PUSH1 0x0 SWAP2 POP SWAP1 POP SLOAD DUP2 JUMP JUMPDEST PUSH1 0x9 PUSH1 0x40 MLOAD DUP1 PUSH1 0x40 ADD PUSH1 0x40 MSTORE DUP1 DUP4 DUP2 MSTORE PUSH1 0x20 ADD DUP5 DUP2 MSTORE POP SWAP1 DUP1 PUSH1 0x1 DUP2 SLOAD ADD DUP1 DUP3 SSTORE DUP1 SWAP2 POP POP PUSH1 0x1 SWAP1 SUB SWAP1 PUSH1 0x0 MSTORE PUSH1 0x20 PUSH1 0x0 KECCAK256 SWAP1 PUSH1 0x2 MUL ADD PUSH1 0x0 SWAP1 SWAP2 SWAP1 SWAP2 SWAP1 SWAP2 POP PUSH1 0x0 DUP3 ADD MLOAD DUP2 PUSH1 0x0 ADD SSTORE PUSH1 0x20 DUP3 ADD MLOAD DUP2 PUSH1 0x1 ADD SWAP1 DUP2 PUSH2 0x3FF SWAP2 SWAP1 PUSH2 0xA03 JUMP JUMPDEST POP POP POP POP POP JUMP JUMPDEST PUSH1 0x0 DUP2 SWAP1 POP SWAP2 SWAP1 POP JUMP JUMPDEST PUSH2 0x419 DUP2 PUSH2 0x406 JUMP JUMPDEST DUP3 MSTORE POP POP JUMP JUMPDEST PUSH1 0x0 PUSH1 0x20 DUP3 ADD SWAP1 POP PUSH2 0x434 PUSH1 0x0 DUP4 ADD DUP5 PUSH2 0x410 JUMP JUMPDEST SWAP3 SWAP2 POP POP JUMP JUMPDEST PUSH1 0x0 PUSH1 0x40 MLOAD SWAP1 POP SWAP1 JUMP JUMPDEST PUSH1 0x0 DUP1 REVERT JUMPDEST PUSH1 0x0 DUP1 REVERT JUMPDEST PUSH1 0x0 DUP1 REVERT JUMPDEST PUSH1 0x0 DUP1 REVERT JUMPDEST PUSH1 0x0 PUSH1 0x1F NOT PUSH1 0x1F DUP4 ADD AND SWAP1 POP SWAP2 SWAP1 POP JUMP JUMPDEST PUSH32 0x4E487B7100000000000000000000000000000000000000000000000000000000 PUSH1 0x0 MSTORE PUSH1 0x41 PUSH1 0x4 MSTORE PUSH1 0x24 PUSH1 0x0 REVERT JUMPDEST PUSH2 0x4A1 DUP3 PUSH2 0x458 JUMP JUMPDEST DUP2 ADD DUP2 DUP2 LT PUSH8 0xFFFFFFFFFFFFFFFF DUP3 GT OR ISZERO PUSH2 0x4C0 JUMPI PUSH2 0x4BF PUSH2 0x469 JUMP JUMPDEST JUMPDEST DUP1 PUSH1 0x40 MSTORE POP POP POP JUMP JUMPDEST PUSH1 0x0 PUSH2 0x4D3 PUSH2 0x43A JUMP JUMPDEST SWAP1 POP PUSH2 0x4DF DUP3 DUP3 PUSH2 0x498 JUMP JUMPDEST SWAP2 SWAP1 POP JUMP JUMPDEST PUSH1 0x0 PUSH8 0xFFFFFFFFFFFFFFFF DUP3 GT ISZERO PUSH2 0x4FF JUMPI PUSH2 0x4FE PUSH2 0x469 JUMP JUMPDEST JUMPDEST PUSH2 0x508 DUP3 PUSH2 0x458 JUMP JUMPDEST SWAP1 POP PUSH1 0x20 DUP2 ADD SWAP1 POP SWAP2 SWAP1 POP JUMP JUMPDEST DUP3 DUP2 DUP4 CALLDATACOPY PUSH1 0x0 DUP4 DUP4 ADD MSTORE POP POP POP JUMP JUMPDEST PUSH1 0x0 PUSH2 0x537 PUSH2 0x532 DUP5 PUSH2 0x4E4 JUMP JUMPDEST PUSH2 0x4C9 JUMP JUMPDEST SWAP1 POP DUP3 DUP2 MSTORE PUSH1 0x20 DUP2 ADD DUP5 DUP5 DUP5 ADD GT ISZERO PUSH2 0x553 JUMPI PUSH2 0x552 PUSH2 0x453 JUMP JUMPDEST JUMPDEST PUSH2 0x55E DUP5 DUP3 DUP6 PUSH2 0x515 JUMP JUMPDEST POP SWAP4 SWAP3 POP POP POP JUMP JUMPDEST PUSH1 0x0 DUP3 PUSH1 0x1F DUP4 ADD SLT PUSH2 0x57B JUMPI PUSH2 0x57A PUSH2 0x44E JUMP JUMPDEST JUMPDEST DUP2 CALLDATALOAD PUSH2 0x58B DUP5 DUP3 PUSH1 0x20 DUP7 ADD PUSH2 0x524 JUMP JUMPDEST SWAP2 POP POP SWAP3 SWAP2 POP POP JUMP JUMPDEST PUSH2 0x59D DUP2 PUSH2 0x406 JUMP JUMPDEST DUP2 EQ PUSH2 0x5A8 JUMPI PUSH1 0x0 DUP1 REVERT JUMPDEST POP JUMP JUMPDEST PUSH1 0x0 DUP2 CALLDATALOAD SWAP1 POP PUSH2 0x5BA DUP2 PUSH2 0x594 JUMP JUMPDEST SWAP3 SWAP2 POP POP JUMP JUMPDEST PUSH1 0x0 DUP1 PUSH1 0x40 DUP4 DUP6 SUB SLT ISZERO PUSH2 0x5D7 JUMPI PUSH2 0x5D6 PUSH2 0x444 JUMP JUMPDEST JUMPDEST PUSH1 0x0 DUP4 ADD CALLDATALOAD PUSH8 0xFFFFFFFFFFFFFFFF DUP2 GT ISZERO PUSH2 0x5F5 JUMPI PUSH2 0x5F4 PUSH2 0x449 JUMP JUMPDEST JUMPDEST PUSH2 0x601 DUP6 DUP3 DUP7 ADD PUSH2 0x566 JUMP JUMPDEST SWAP3 POP POP PUSH1 0x20 PUSH2 0x612 DUP6 DUP3 DUP7 ADD PUSH2 0x5AB JUMP JUMPDEST SWAP2 POP POP SWAP3 POP SWAP3 SWAP1 POP JUMP JUMPDEST PUSH1 0x0 PUSH1 0x20 DUP3 DUP5 SUB SLT ISZERO PUSH2 0x632 JUMPI PUSH2 0x631 PUSH2 0x444 JUMP JUMPDEST JUMPDEST PUSH1 0x0 PUSH2 0x640 DUP5 DUP3 DUP6 ADD PUSH2 0x5AB JUMP JUMPDEST SWAP2 POP POP SWAP3 SWAP2 POP POP JUMP JUMPDEST PUSH1 0x0 DUP2 MLOAD SWAP1 POP SWAP2 SWAP1 POP JUMP JUMPDEST PUSH1 0x0 DUP3 DUP3 MSTORE PUSH1 0x20 DUP3 ADD SWAP1 POP SWAP3 SWAP2 POP POP JUMP JUMPDEST PUSH1 0x0 JUMPDEST DUP4 DUP2 LT ISZERO PUSH2 0x683 JUMPI DUP1 DUP3 ADD MLOAD DUP2 DUP5 ADD MSTORE PUSH1 0x20 DUP2 ADD SWAP1 POP PUSH2 0x668 JUMP JUMPDEST PUSH1 0x0 DUP5 DUP5 ADD MSTORE POP POP POP POP JUMP JUMPDEST PUSH1 0x0 PUSH2 0x69A DUP3 PUSH2 0x649 JUMP JUMPDEST PUSH2 0x6A4 DUP2 DUP6 PUSH2 0x654 JUMP JUMPDEST SWAP4 POP PUSH2 0x6B4 DUP2 DUP6 PUSH1 0x20 DUP7 ADD PUSH2 0x665 JUMP JUMPDEST PUSH2 0x6BD DUP2 PUSH2 0x458 JUMP JUMPDEST DUP5 ADD SWAP2 POP POP SWAP3 SWAP2 POP POP JUMP JUMPDEST PUSH1 0x0 PUSH1 0x40 DUP3 ADD SWAP1 POP PUSH2 0x6DD PUSH1 0x0 DUP4 ADD DUP6 PUSH2 0x410 JUMP JUMPDEST DUP2 DUP2 SUB PUSH1 0x20 DUP4 ADD MSTORE PUSH2 0x6EF DUP2 DUP5 PUSH2 0x68F JUMP JUMPDEST SWAP1 POP SWAP4 SWAP3 POP POP POP JUMP JUMPDEST PUSH1 0x0 PUSH1 0x20 DUP3 DUP5 SUB SLT ISZERO PUSH2 0x70E JUMPI PUSH2 0x70D PUSH2 0x444 JUMP JUMPDEST JUMPDEST PUSH1 0x0 DUP3 ADD CALLDATALOAD PUSH8 0xFFFFFFFFFFFFFFFF DUP2 GT ISZERO PUSH2 0x72C JUMPI PUSH2 0x72B PUSH2 0x449 JUMP JUMPDEST JUMPDEST PUSH2 0x738 DUP5 DUP3 DUP6 ADD PUSH2 0x566 JUMP JUMPDEST SWAP2 POP POP SWAP3 SWAP2 POP POP JUMP JUMPDEST PUSH1 0x0 DUP2 SWAP1 POP SWAP3 SWAP2 POP POP JUMP JUMPDEST PUSH1 0x0 PUSH2 0x757 DUP3 PUSH2 0x649 JUMP JUMPDEST PUSH2 0x761 DUP2 DUP6 PUSH2 0x741 JUMP JUMPDEST SWAP4 POP PUSH2 0x771 DUP2 DUP6 PUSH1 0x20 DUP7 ADD PUSH2 0x665 JUMP JUMPDEST DUP1 DUP5 ADD SWAP2 POP POP SWAP3 SWAP2 POP POP JUMP JUMPDEST PUSH1 0x0 PUSH2 0x789 DUP3 DUP5 PUSH2 0x74C JUMP JUMPDEST SWAP2 POP DUP2 SWAP1 POP SWAP3 SWAP2 POP POP JUMP JUMPDEST PUSH32 0x4E487B7100000000000000000000000000000000000000000000000000000000 PUSH1 0x0 MSTORE PUSH1 0x11 PUSH1 0x4 MSTORE PUSH1 0x24 PUSH1 0x0 REVERT JUMPDEST PUSH1 0x0 PUSH2 0x7CE DUP3 PUSH2 0x406 JUMP JUMPDEST SWAP2 POP PUSH2 0x7D9 DUP4 PUSH2 0x406 JUMP JUMPDEST SWAP3 POP DUP3 DUP3 ADD SWAP1 POP DUP1 DUP3 GT ISZERO PUSH2 0x7F1 JUMPI PUSH2 0x7F0 PUSH2 0x794 JUMP JUMPDEST JUMPDEST SWAP3 SWAP2 POP POP JUMP JUMPDEST PUSH32 0x4E487B7100000000000000000000000000000000000000000000000000000000 PUSH1 0x0 MSTORE PUSH1 0x22 PUSH1 0x4 MSTORE PUSH1 0x24 PUSH1 0x0 REVERT JUMPDEST PUSH1 0x0 PUSH1 0x2 DUP3 DIV SWAP1 POP PUSH1 0x1 DUP3 AND DUP1 PUSH2 0x83E JUMPI PUSH1 0x7F DUP3 AND SWAP2 POP JUMPDEST PUSH1 0x20 DUP3 LT DUP2 SUB PUSH2 0x851 JUMPI PUSH2 0x850 PUSH2 0x7F7 JUMP JUMPDEST JUMPDEST POP SWAP2 SWAP1 POP JUMP JUMPDEST PUSH1 0x0 DUP2 SWAP1 POP DUP2 PUSH1 0x0 MSTORE PUSH1 0x20 PUSH1 0x0 KECCAK256 SWAP1 POP SWAP2 SWAP1 POP JUMP JUMPDEST PUSH1 0x0 PUSH1 0x20 PUSH1 0x1F DUP4 ADD DIV SWAP1 POP SWAP2 SWAP1 POP JUMP JUMPDEST PUSH1 0x0 DUP3 DUP3 SHL SWAP1 POP SWAP3 SWAP2 POP POP JUMP JUMPDEST PUSH1 0x0 PUSH1 0x8 DUP4 MUL PUSH2 0x8B9 PUSH32 0xFFFFFFFFFFFFFFFFFFFFFFFFFFFFFFFFFFFFFFFFFFFFFFFFFFFFFFFFFFFFFFFF DUP3 PUSH2 0x87C JUMP JUMPDEST PUSH2 0x8C3 DUP7 DUP4 PUSH2 0x87C JUMP JUMPDEST SWAP6 POP DUP1 NOT DUP5 AND SWAP4 POP DUP1 DUP7 AND DUP5 OR SWAP3 POP POP POP SWAP4 SWAP3 POP POP POP JUMP JUMPDEST PUSH1 0x0 DUP2 SWAP1 POP SWAP2 SWAP1 POP JUMP JUMPDEST PUSH1 0x0 PUSH2 0x900 PUSH2 0x8FB PUSH2 0x8F6 DUP5 PUSH2 0x406 JUMP JUMPDEST PUSH2 0x8DB JUMP JUMPDEST PUSH2 0x406 JUMP JUMPDEST SWAP1 POP SWAP2 SWAP1 POP JUMP JUMPDEST PUSH1 0x0 DUP2 SWAP1 POP SWAP2 SWAP1 POP JUMP JUMPDEST PUSH2 0x91A DUP4 PUSH2 0x8E5 JUMP JUMPDEST PUSH2 0x92E PUSH2 0x926 DUP3 PUSH2 0x907 JUMP JUMPDEST DUP5 DUP5 SLOAD PUSH2 0x889 JUMP JUMPDEST DUP3 SSTORE POP POP POP POP JUMP JUMPDEST PUSH1 0x0 SWAP1 JUMP JUMPDEST PUSH2 0x943 PUSH2 0x936 JUMP JUMPDEST PUSH2 0x94E DUP2 DUP5 DUP5 PUSH2 0x911 JUMP JUMPDEST POP POP POP JUMP JUMPDEST JUMPDEST DUP2 DUP2 LT ISZERO PUSH2 0x972 JUMPI PUSH2 0x967 PUSH1 0x0 DUP3 PUSH2 0x93B JUMP JUMPDEST PUSH1 0x1 DUP2 ADD SWAP1 POP PUSH2 0x954 JUMP JUMPDEST POP POP JUMP JUMPDEST PUSH1 0x1F DUP3 GT ISZERO PUSH2 0x9B7 JUMPI PUSH2 0x988 DUP2 PUSH2 0x857 JUMP JUMPDEST PUSH2 0x991 DUP5 PUSH2 0x86C JUMP JUMPDEST DUP2 ADD PUSH1 0x20 DUP6 LT ISZERO PUSH2 0x9A0 JUMPI DUP2 SWAP1 POP JUMPDEST PUSH2 0x9B4 PUSH2 0x9AC DUP6 PUSH2 0x86C JUMP JUMPDEST DUP4 ADD DUP3 PUSH2 0x953 JUMP JUMPDEST POP POP JUMPDEST POP POP POP JUMP JUMPDEST PUSH1 0x0 DUP3 DUP3 SHR SWAP1 POP SWAP3 SWAP2 POP POP JUMP JUMPDEST PUSH1 0x0 PUSH2 0x9DA PUSH1 0x0 NOT DUP5 PUSH1 0x8 MUL PUSH2 0x9BC JUMP JUMPDEST NOT DUP1 DUP4 AND SWAP2 POP POP SWAP3 SWAP2 POP POP JUMP JUMPDEST PUSH1 0x0 PUSH2 0x9F3 DUP4 DUP4 PUSH2 0x9C9 JUMP JUMPDEST SWAP2 POP DUP3 PUSH1 0x2 MUL DUP3 OR SWAP1 POP SWAP3 SWAP2 POP POP JUMP JUMPDEST PUSH2 0xA0C DUP3 PUSH2 0x649 JUMP JUMPDEST PUSH8 0xFFFFFFFFFFFFFFFF DUP2 GT ISZERO PUSH2 0xA25 JUMPI PUSH2 0xA24 PUSH2 0x469 JUMP JUMPDEST JUMPDEST PUSH2 0xA2F DUP3 SLOAD PUSH2 0x826 JUMP JUMPDEST PUSH2 0xA3A DUP3 DUP3 DUP6 PUSH2 0x976 JUMP JUMPDEST PUSH1 0x0 PUSH1 0x20 SWAP1 POP PUSH1 0x1F DUP4 GT PUSH1 0x1 DUP2 EQ PUSH2 0xA6D JUMPI PUSH1 0x0 DUP5 ISZERO PUSH2 0xA5B JUMPI DUP3 DUP8 ADD MLOAD SWAP1 POP JUMPDEST PUSH2 0xA65 DUP6 DUP3 PUSH2 0x9E7 JUMP JUMPDEST DUP7 SSTORE POP PUSH2 0xACD JUMP JUMPDEST PUSH1 0x1F NOT DUP5 AND PUSH2 0xA7B DUP7 PUSH2 0x857 JUMP JUMPDEST PUSH1 0x0 JUMPDEST DUP3 DUP2 LT ISZERO PUSH2 0xAA3 JUMPI DUP5 DUP10 ADD MLOAD DUP3 SSTORE PUSH1 0x1 DUP3 ADD SWAP2 POP PUSH1 0x20 DUP6 ADD SWAP5 POP PUSH1 0x20 DUP2 ADD SWAP1 POP PUSH2 0xA7E JUMP JUMPDEST DUP7 DUP4 LT ISZERO PUSH2 0xAC0 JUMPI DUP5 DUP10 ADD MLOAD PUSH2 0xABC PUSH1 0x1F DUP10 AND DUP3 PUSH2 0x9C9 JUMP JUMPDEST DUP4 SSTORE POP JUMPDEST PUSH1 0x1 PUSH1 0x2 DUP9 MUL ADD DUP9 SSTORE POP POP POP JUMPDEST POP POP POP POP POP POP JUMP INVALID LOG2 PUSH5 0x6970667358 0x22 SLT KECCAK256 SELFBALANCE 0x26 0xAD LOG0 PUSH9 0x1F0648C030955834C0 0xD1 PUSH3 0x2F7F8C 0xDA DUP9 GASLIMIT 0xC8 PUSH31 0x870E3715A87AD8DA64736F6C63430008120033000000000000000000000000 "
		},
		"gasEstimates": {
			"creation": {
				"codeDepositCost": "565400",
				"executionCost": "infinite",
				"totalCost": "infinite"
			},
			"external": {
				"FavouriteNumber()": "2451",
				"add()": "382",
				"addperson(string,uint256)": "infinite",
				"nameToFavouriteNumber(string)": "infinite",
				"people(uint256)": "infinite",
				"person()": "infinite",
				"retrieve()": "2438",
				"setmap(string,uint256)": "infinite",
				"store(uint256)": "infinite"
			}
		},
		"methodIdentifiers": {
			"FavouriteNumber()": "84184133",
			"add()": "4f2be91f",
			"addperson(string,uint256)": "e1b3202a",
			"nameToFavouriteNumber(string)": "b2ac62ef",
			"people(uint256)": "9e7a13ad",
			"person()": "77ec2b55",
			"retrieve()": "2e64cec1",
			"setmap(string,uint256)": "46f2eedf",
			"store(uint256)": "6057361d"
		}
	},
	"abi": [
		{
			"inputs": [],
			"name": "FavouriteNumber",
			"outputs": [
				{
					"internalType": "uint256",
					"name": "",
					"type": "uint256"
				}
			],
			"stateMutability": "view",
			"type": "function"
		},
		{
			"inputs": [],
			"name": "add",
			"outputs": [
				{
					"internalType": "uint256",
					"name": "",
					"type": "uint256"
				}
			],
			"stateMutability": "pure",
			"type": "function"
		},
		{
			"inputs": [
				{
					"internalType": "string",
					"name": "_name",
					"type": "string"
				},
				{
					"internalType": "uint256",
					"name": "_favouriteNumber",
					"type": "uint256"
				}
			],
			"name": "addperson",
			"outputs": [],
			"stateMutability": "nonpayable",
			"type": "function"
		},
		{
			"inputs": [
				{
					"internalType": "string",
					"name": "",
					"type": "string"
				}
			],
			"name": "nameToFavouriteNumber",
			"outputs": [
				{
					"internalType": "uint256",
					"name": "",
					"type": "uint256"
				}
			],
			"stateMutability": "view",
			"type": "function"
		},
		{
			"inputs": [
				{
					"internalType": "uint256",
					"name": "",
					"type": "uint256"
				}
			],
			"name": "people",
			"outputs": [
				{
					"internalType": "uint256",
					"name": "favouriteNumber",
					"type": "uint256"
				},
				{
					"internalType": "string",
					"name": "name",
					"type": "string"
				}
			],
			"stateMutability": "view",
			"type": "function"
		},
		{
			"inputs": [],
			"name": "person",
			"outputs": [
				{
					"internalType": "uint256",
					"name": "favouriteNumber",
					"type": "uint256"
				},
				{
					"internalType": "string",
					"name": "name",
					"type": "string"
				}
			],
			"stateMutability": "view",
			"type": "function"
		},
		{
			"inputs": [],
			"name": "retrieve",
			"outputs": [
				{
					"internalType": "uint256",
					"name": "",
					"type": "uint256"
				}
			],
			"stateMutability": "view",
			"type": "function"
		},
		{
			"inputs": [
				{
					"internalType": "string",
					"name": "_name",
					"type": "string"
				},
				{
					"internalType": "uint256",
					"name": "_favouriteNumber",
					"type": "uint256"
				}
			],
			"name": "setmap",
			"outputs": [],
			"stateMutability": "nonpayable",
			"type": "function"
		},
		{
			"inputs": [
				{
					"internalType": "uint256",
					"name": "_favoriteNumber",
					"type": "uint256"
				}
			],
			"name": "store",
			"outputs": [],
			"stateMutability": "nonpayable",
			"type": "function"
		}
	]
}