{
	"1-SimpleStorage.sol": {
		"SimpleStorage": {
			"abi": [
				{
					"inputs": [],
					"name": "FavouriteNumber",
					"outputs": [
						{
							"internalType": "uint256",
							"name": "",
							"type": "uint256"
						}
					],
					"stateMutability": "view",
					"type": "function"
				},
				{
					"inputs": [],
					"name": "add",
					"outputs": [
						{
							"internalType": "uint256",
							"name": "",
							"type": "uint256"
						}
					],
					"stateMutability": "pure",
					"type": "function"
				},
				{
					"inputs": [
						{
							"internalType": "string",
							"name": "_name",
							"type": "string"
						},
						{
							"internalType": "uint256",
							"name": "_favouriteNumber",
							"type": "uint256"
						}
					],
					"name": "addperson",
					"outputs": [],
					"stateMutability": "nonpayable",
					"type": "function"
				},
				{
					"inputs": [
						{
							"internalType": "string",
							"name": "",
							"type": "string"
						}
					],
					"name": "nameToFavouriteNumber",
					"outputs": [
						{
							"internalType": "uint256",
							"name": "",
							"type": "uint256"
						}
					],
					"stateMutability": "view",
					"type": "function"
				},
				{
					"inputs": [
						{
							"internalType": "uint256",
							"name": "",
							"type": "uint256"
						}
					],
					"name": "people",
					"outputs": [
						{
							"internalType": "uint256",
							"name": "favouriteNumber",
							"type": "uint256"
						},
						{
							"internalType": "string",
							"name": "name",
							"type": "string"
						}
					],
					"stateMutability": "view",
					"type": "function"
				},
				{
					"inputs": [],
					"name": "person",
					"outputs": [
						{
							"internalType": "uint256",
							"name": "favouriteNumber",
							"type": "uint256"
						},
						{
							"internalType": "string",
							"name": "name",
							"type": "string"
						}
					],
					"stateMutability": "view",
					"type": "function"
				},
				{
					"inputs": [],
					"name": "retrieve",
					"outputs": [
						{
							"internalType": "uint256",
							"name": "",
							"type": "uint256"
						}
					],
					"stateMutability": "view",
					"type": "function"
				},
				{
					"inputs": [
						{
							"internalType": "string",
							"name": "_name",
							"type": "string"
						},
						{
							"internalType": "uint256",
							"name": "_favouriteNumber",
							"type": "uint256"
						}
					],
					"name": "setmap",
					"outputs": [],
					"stateMutability": "nonpayable",
					"type": "function"
				},
				{
					"inputs": [
						{
							"internalType": "uint256",
							"name": "_favouriteNumber",
							"type": "uint256"
						}
					],
					"name": "store",
					"outputs": [],
					"stateMutability": "nonpayable",
					"type": "function"
				}
			],
			"devdoc": {
				"kind": "dev",
				"methods": {},
				"version": 1
			},
			"evm": {
				"assembly": "    /* \"1-SimpleStorage.sol\":429:3531  contract SimpleStorage {... */\n  mstore(0x40, 0x80)\n    /* \"1-SimpleStorage.sol\":555:559  true */\n  0x01\n    /* \"1-SimpleStorage.sol\":529:559  bool hasFavouriteNumber = true */\n  0x00\n  dup1\n  0x0100\n  exp\n  dup2\n  sload\n  dup2\n  0xff\n  mul\n  not\n  and\n  swap1\n  dup4\n  iszero\n  iszero\n  mul\n  or\n  swap1\n  sstore\n  pop\n    /* \"1-SimpleStorage.sol\":637:640  256 */\n  0x0100\n    /* \"1-SimpleStorage.sol\":618:640  uint FavouriteNo = 256 */\n  0x01\n  sstore\n    /* \"1-SimpleStorage.sol\":706:741  string FavouriteNumberText = \"Five\" */\n  mload(0x40)\n  dup1\n  0x40\n  add\n  0x40\n  mstore\n  dup1\n  0x04\n  dup2\n  mstore\n  0x20\n  add\n  0x4669766500000000000000000000000000000000000000000000000000000000\n  dup2\n  mstore\n  pop\n  0x02\n  swap1\n  dup2\n  tag_1\n  swap2\n  swap1\n  tag_2\n  jump\t// in\ntag_1:\n  pop\n    /* \"1-SimpleStorage.sol\":764:765  5 */\n  0x05\n    /* \"1-SimpleStorage.sol\":748:765  int256 Number = 5 */\n  0x03\n  sstore\n    /* \"1-SimpleStorage.sol\":792:834  0xE3D5EcbfFaff17f7b936A66CCF65121da9d78989 */\n  0xe3d5ecbffaff17f7b936a66ccf65121da9d78989\n    /* \"1-SimpleStorage.sol\":772:834  address myAddress = 0xE3D5EcbfFaff17f7b936A66CCF65121da9d78989 */\n  0x04\n  exp(0x0100, 0x00)\n  dup2\n  sload\n  dup2\n  0xffffffffffffffffffffffffffffffffffffffff\n  mul\n  not\n  and\n  swap1\n  dup4\n  0xffffffffffffffffffffffffffffffffffffffff\n  and\n  mul\n  or\n  swap1\n  sstore\n  pop\n    /* \"1-SimpleStorage.sol\":866:895  bytes32 Favouritebyte = \"cat\" */\n  sstore(0x05, 0x6361740000000000000000000000000000000000000000000000000000000000)\n    /* \"1-SimpleStorage.sol\":2416:2463  People({favouriteNumber : 2, name : \"patrick\"}) */\n  mload(0x40)\n  dup1\n  0x40\n  add\n  0x40\n  mstore\n  dup1\n    /* \"1-SimpleStorage.sol\":2442:2443  2 */\n  0x02\n    /* \"1-SimpleStorage.sol\":2416:2463  People({favouriteNumber : 2, name : \"patrick\"}) */\n  dup2\n  mstore\n  0x20\n  add\n  mload(0x40)\n  dup1\n  0x40\n  add\n  0x40\n  mstore\n  dup1\n  0x07\n  dup2\n  mstore\n  0x20\n  add\n  0x7061747269636b00000000000000000000000000000000000000000000000000\n  dup2\n  mstore\n  pop\n  dup2\n  mstore\n  pop\n    /* \"1-SimpleStorage.sol\":2393:2463  People public person = People({favouriteNumber : 2, name : \"patrick\"}) */\n  0x07\n  0x00\n  dup3\n  add\n  mload\n  dup2\n  0x00\n  add\n  sstore\n  0x20\n  dup3\n  add\n  mload\n  dup2\n  0x01\n  add\n  swap1\n  dup2\n  tag_3\n  swap2\n  swap1\n  tag_2\n  jump\t// in\ntag_3:\n  pop\n  pop\n  pop\n    /* \"1-SimpleStorage.sol\":429:3531  contract SimpleStorage {... */\n  callvalue\n  dup1\n  iszero\n  tag_4\n  jumpi\n  0x00\n  dup1\n  revert\ntag_4:\n  pop\n  jump(tag_5)\n    /* \"#utility.yul\":7:106   */\ntag_6:\n    /* \"#utility.yul\":59:65   */\n  0x00\n    /* \"#utility.yul\":93:98   */\n  dup2\n    /* \"#utility.yul\":87:99   */\n  mload\n    /* \"#utility.yul\":77:99   */\n  swap1\n  pop\n    /* \"#utility.yul\":7:106   */\n  swap2\n  swap1\n  pop\n  jump\t// out\n    /* \"#utility.yul\":112:292   */\ntag_7:\n    /* \"#utility.yul\":160:237   */\n  0x4e487b7100000000000000000000000000000000000000000000000000000000\n    /* \"#utility.yul\":157:158   */\n  0x00\n    /* \"#utility.yul\":150:238   */\n  mstore\n    /* \"#utility.yul\":257:261   */\n  0x41\n    /* \"#utility.yul\":254:255   */\n  0x04\n    /* \"#utility.yul\":247:262   */\n  mstore\n    /* \"#utility.yul\":281:285   */\n  0x24\n    /* \"#utility.yul\":278:279   */\n  0x00\n    /* \"#utility.yul\":271:286   */\n  revert\n    /* \"#utility.yul\":298:478   */\ntag_8:\n    /* \"#utility.yul\":346:423   */\n  0x4e487b7100000000000000000000000000000000000000000000000000000000\n    /* \"#utility.yul\":343:344   */\n  0x00\n    /* \"#utility.yul\":336:424   */\n  mstore\n    /* \"#utility.yul\":443:447   */\n  0x22\n    /* \"#utility.yul\":440:441   */\n  0x04\n    /* \"#utility.yul\":433:448   */\n  mstore\n    /* \"#utility.yul\":467:471   */\n  0x24\n    /* \"#utility.yul\":464:465   */\n  0x00\n    /* \"#utility.yul\":457:472   */\n  revert\n    /* \"#utility.yul\":484:804   */\ntag_9:\n    /* \"#utility.yul\":528:534   */\n  0x00\n    /* \"#utility.yul\":565:566   */\n  0x02\n    /* \"#utility.yul\":559:563   */\n  dup3\n    /* \"#utility.yul\":555:567   */\n  div\n    /* \"#utility.yul\":545:567   */\n  swap1\n  pop\n    /* \"#utility.yul\":612:613   */\n  0x01\n    /* \"#utility.yul\":606:610   */\n  dup3\n    /* \"#utility.yul\":602:614   */\n  and\n    /* \"#utility.yul\":633:651   */\n  dup1\n    /* \"#utility.yul\":623:704   */\n  tag_31\n  jumpi\n    /* \"#utility.yul\":689:693   */\n  0x7f\n    /* \"#utility.yul\":681:687   */\n  dup3\n    /* \"#utility.yul\":677:694   */\n  and\n    /* \"#utility.yul\":667:694   */\n  swap2\n  pop\n    /* \"#utility.yul\":623:704   */\ntag_31:\n    /* \"#utility.yul\":751:753   */\n  0x20\n    /* \"#utility.yul\":743:749   */\n  dup3\n    /* \"#utility.yul\":740:754   */\n  lt\n    /* \"#utility.yul\":720:738   */\n  dup2\n    /* \"#utility.yul\":717:755   */\n  sub\n    /* \"#utility.yul\":714:798   */\n  tag_32\n  jumpi\n    /* \"#utility.yul\":770:788   */\n  tag_33\n  tag_8\n  jump\t// in\ntag_33:\n    /* \"#utility.yul\":714:798   */\ntag_32:\n    /* \"#utility.yul\":535:804   */\n  pop\n    /* \"#utility.yul\":484:804   */\n  swap2\n  swap1\n  pop\n  jump\t// out\n    /* \"#utility.yul\":810:951   */\ntag_10:\n    /* \"#utility.yul\":859:863   */\n  0x00\n    /* \"#utility.yul\":882:885   */\n  dup2\n    /* \"#utility.yul\":874:885   */\n  swap1\n  pop\n    /* \"#utility.yul\":905:908   */\n  dup2\n    /* \"#utility.yul\":902:903   */\n  0x00\n    /* \"#utility.yul\":895:909   */\n  mstore\n    /* \"#utility.yul\":939:943   */\n  0x20\n    /* \"#utility.yul\":936:937   */\n  0x00\n    /* \"#utility.yul\":926:944   */\n  keccak256\n    /* \"#utility.yul\":918:944   */\n  swap1\n  pop\n    /* \"#utility.yul\":810:951   */\n  swap2\n  swap1\n  pop\n  jump\t// out\n    /* \"#utility.yul\":957:1050   */\ntag_11:\n    /* \"#utility.yul\":994:1000   */\n  0x00\n    /* \"#utility.yul\":1041:1043   */\n  0x20\n    /* \"#utility.yul\":1036:1038   */\n  0x1f\n    /* \"#utility.yul\":1029:1034   */\n  dup4\n    /* \"#utility.yul\":1025:1039   */\n  add\n    /* \"#utility.yul\":1021:1044   */\n  div\n    /* \"#utility.yul\":1011:1044   */\n  swap1\n  pop\n    /* \"#utility.yul\":957:1050   */\n  swap2\n  swap1\n  pop\n  jump\t// out\n    /* \"#utility.yul\":1056:1163   */\ntag_12:\n    /* \"#utility.yul\":1100:1108   */\n  0x00\n    /* \"#utility.yul\":1150:1155   */\n  dup3\n    /* \"#utility.yul\":1144:1148   */\n  dup3\n    /* \"#utility.yul\":1140:1156   */\n  shl\n    /* \"#utility.yul\":1119:1156   */\n  swap1\n  pop\n    /* \"#utility.yul\":1056:1163   */\n  swap3\n  swap2\n  pop\n  pop\n  jump\t// out\n    /* \"#utility.yul\":1169:1562   */\ntag_13:\n    /* \"#utility.yul\":1238:1244   */\n  0x00\n    /* \"#utility.yul\":1288:1289   */\n  0x08\n    /* \"#utility.yul\":1276:1286   */\n  dup4\n    /* \"#utility.yul\":1272:1290   */\n  mul\n    /* \"#utility.yul\":1311:1408   */\n  tag_38\n    /* \"#utility.yul\":1341:1407   */\n  0xffffffffffffffffffffffffffffffffffffffffffffffffffffffffffffffff\n    /* \"#utility.yul\":1330:1339   */\n  dup3\n    /* \"#utility.yul\":1311:1408   */\n  tag_12\n  jump\t// in\ntag_38:\n    /* \"#utility.yul\":1429:1468   */\n  tag_39\n    /* \"#utility.yul\":1459:1467   */\n  dup7\n    /* \"#utility.yul\":1448:1457   */\n  dup4\n    /* \"#utility.yul\":1429:1468   */\n  tag_12\n  jump\t// in\ntag_39:\n    /* \"#utility.yul\":1417:1468   */\n  swap6\n  pop\n    /* \"#utility.yul\":1501:1505   */\n  dup1\n    /* \"#utility.yul\":1497:1506   */\n  not\n    /* \"#utility.yul\":1490:1495   */\n  dup5\n    /* \"#utility.yul\":1486:1507   */\n  and\n    /* \"#utility.yul\":1477:1507   */\n  swap4\n  pop\n    /* \"#utility.yul\":1550:1554   */\n  dup1\n    /* \"#utility.yul\":1540:1548   */\n  dup7\n    /* \"#utility.yul\":1536:1555   */\n  and\n    /* \"#utility.yul\":1529:1534   */\n  dup5\n    /* \"#utility.yul\":1526:1556   */\n  or\n    /* \"#utility.yul\":1516:1556   */\n  swap3\n  pop\n    /* \"#utility.yul\":1245:1562   */\n  pop\n  pop\n    /* \"#utility.yul\":1169:1562   */\n  swap4\n  swap3\n  pop\n  pop\n  pop\n  jump\t// out\n    /* \"#utility.yul\":1568:1645   */\ntag_14:\n    /* \"#utility.yul\":1605:1612   */\n  0x00\n    /* \"#utility.yul\":1634:1639   */\n  dup2\n    /* \"#utility.yul\":1623:1639   */\n  swap1\n  pop\n    /* \"#utility.yul\":1568:1645   */\n  swap2\n  swap1\n  pop\n  jump\t// out\n    /* \"#utility.yul\":1651:1711   */\ntag_15:\n    /* \"#utility.yul\":1679:1682   */\n  0x00\n    /* \"#utility.yul\":1700:1705   */\n  dup2\n    /* \"#utility.yul\":1693:1705   */\n  swap1\n  pop\n    /* \"#utility.yul\":1651:1711   */\n  swap2\n  swap1\n  pop\n  jump\t// out\n    /* \"#utility.yul\":1717:1859   */\ntag_16:\n    /* \"#utility.yul\":1767:1776   */\n  0x00\n    /* \"#utility.yul\":1800:1853   */\n  tag_43\n    /* \"#utility.yul\":1818:1852   */\n  tag_44\n    /* \"#utility.yul\":1827:1851   */\n  tag_45\n    /* \"#utility.yul\":1845:1850   */\n  dup5\n    /* \"#utility.yul\":1827:1851   */\n  tag_14\n  jump\t// in\ntag_45:\n    /* \"#utility.yul\":1818:1852   */\n  tag_15\n  jump\t// in\ntag_44:\n    /* \"#utility.yul\":1800:1853   */\n  tag_14\n  jump\t// in\ntag_43:\n    /* \"#utility.yul\":1787:1853   */\n  swap1\n  pop\n    /* \"#utility.yul\":1717:1859   */\n  swap2\n  swap1\n  pop\n  jump\t// out\n    /* \"#utility.yul\":1865:1940   */\ntag_17:\n    /* \"#utility.yul\":1908:1911   */\n  0x00\n    /* \"#utility.yul\":1929:1934   */\n  dup2\n    /* \"#utility.yul\":1922:1934   */\n  swap1\n  pop\n    /* \"#utility.yul\":1865:1940   */\n  swap2\n  swap1\n  pop\n  jump\t// out\n    /* \"#utility.yul\":1946:2215   */\ntag_18:\n    /* \"#utility.yul\":2056:2095   */\n  tag_48\n    /* \"#utility.yul\":2087:2094   */\n  dup4\n    /* \"#utility.yul\":2056:2095   */\n  tag_16\n  jump\t// in\ntag_48:\n    /* \"#utility.yul\":2117:2208   */\n  tag_49\n    /* \"#utility.yul\":2166:2207   */\n  tag_50\n    /* \"#utility.yul\":2190:2206   */\n  dup3\n    /* \"#utility.yul\":2166:2207   */\n  tag_17\n  jump\t// in\ntag_50:\n    /* \"#utility.yul\":2158:2164   */\n  dup5\n    /* \"#utility.yul\":2151:2155   */\n  dup5\n    /* \"#utility.yul\":2145:2156   */\n  sload\n    /* \"#utility.yul\":2117:2208   */\n  tag_13\n  jump\t// in\ntag_49:\n    /* \"#utility.yul\":2111:2115   */\n  dup3\n    /* \"#utility.yul\":2104:2209   */\n  sstore\n    /* \"#utility.yul\":2022:2215   */\n  pop\n    /* \"#utility.yul\":1946:2215   */\n  pop\n  pop\n  pop\n  jump\t// out\n    /* \"#utility.yul\":2221:2294   */\ntag_19:\n    /* \"#utility.yul\":2266:2269   */\n  0x00\n    /* \"#utility.yul\":2221:2294   */\n  swap1\n  jump\t// out\n    /* \"#utility.yul\":2300:2489   */\ntag_20:\n    /* \"#utility.yul\":2377:2409   */\n  tag_53\n  tag_19\n  jump\t// in\ntag_53:\n    /* \"#utility.yul\":2418:2483   */\n  tag_54\n    /* \"#utility.yul\":2476:2482   */\n  dup2\n    /* \"#utility.yul\":2468:2474   */\n  dup5\n    /* \"#utility.yul\":2462:2466   */\n  dup5\n    /* \"#utility.yul\":2418:2483   */\n  tag_18\n  jump\t// in\ntag_54:\n    /* \"#utility.yul\":2353:2489   */\n  pop\n    /* \"#utility.yul\":2300:2489   */\n  pop\n  pop\n  jump\t// out\n    /* \"#utility.yul\":2495:2681   */\ntag_21:\n    /* \"#utility.yul\":2555:2675   */\ntag_56:\n    /* \"#utility.yul\":2572:2575   */\n  dup2\n    /* \"#utility.yul\":2565:2570   */\n  dup2\n    /* \"#utility.yul\":2562:2576   */\n  lt\n    /* \"#utility.yul\":2555:2675   */\n  iszero\n  tag_58\n  jumpi\n    /* \"#utility.yul\":2626:2665   */\n  tag_59\n    /* \"#utility.yul\":2663:2664   */\n  0x00\n    /* \"#utility.yul\":2656:2661   */\n  dup3\n    /* \"#utility.yul\":2626:2665   */\n  tag_20\n  jump\t// in\ntag_59:\n    /* \"#utility.yul\":2599:2600   */\n  0x01\n    /* \"#utility.yul\":2592:2597   */\n  dup2\n    /* \"#utility.yul\":2588:2601   */\n  add\n    /* \"#utility.yul\":2579:2601   */\n  swap1\n  pop\n    /* \"#utility.yul\":2555:2675   */\n  jump(tag_56)\ntag_58:\n    /* \"#utility.yul\":2495:2681   */\n  pop\n  pop\n  jump\t// out\n    /* \"#utility.yul\":2687:3230   */\ntag_22:\n    /* \"#utility.yul\":2788:2790   */\n  0x1f\n    /* \"#utility.yul\":2783:2786   */\n  dup3\n    /* \"#utility.yul\":2780:2791   */\n  gt\n    /* \"#utility.yul\":2777:3223   */\n  iszero\n  tag_61\n  jumpi\n    /* \"#utility.yul\":2822:2860   */\n  tag_62\n    /* \"#utility.yul\":2854:2859   */\n  dup2\n    /* \"#utility.yul\":2822:2860   */\n  tag_10\n  jump\t// in\ntag_62:\n    /* \"#utility.yul\":2906:2935   */\n  tag_63\n    /* \"#utility.yul\":2924:2934   */\n  dup5\n    /* \"#utility.yul\":2906:2935   */\n  tag_11\n  jump\t// in\ntag_63:\n    /* \"#utility.yul\":2896:2904   */\n  dup2\n    /* \"#utility.yul\":2892:2936   */\n  add\n    /* \"#utility.yul\":3089:3091   */\n  0x20\n    /* \"#utility.yul\":3077:3087   */\n  dup6\n    /* \"#utility.yul\":3074:3092   */\n  lt\n    /* \"#utility.yul\":3071:3120   */\n  iszero\n  tag_64\n  jumpi\n    /* \"#utility.yul\":3110:3118   */\n  dup2\n    /* \"#utility.yul\":3095:3118   */\n  swap1\n  pop\n    /* \"#utility.yul\":3071:3120   */\ntag_64:\n    /* \"#utility.yul\":3133:3213   */\n  tag_65\n    /* \"#utility.yul\":3189:3211   */\n  tag_66\n    /* \"#utility.yul\":3207:3210   */\n  dup6\n    /* \"#utility.yul\":3189:3211   */\n  tag_11\n  jump\t// in\ntag_66:\n    /* \"#utility.yul\":3179:3187   */\n  dup4\n    /* \"#utility.yul\":3175:3212   */\n  add\n    /* \"#utility.yul\":3162:3173   */\n  dup3\n    /* \"#utility.yul\":3133:3213   */\n  tag_21\n  jump\t// in\ntag_65:\n    /* \"#utility.yul\":2792:3223   */\n  pop\n  pop\n    /* \"#utility.yul\":2777:3223   */\ntag_61:\n    /* \"#utility.yul\":2687:3230   */\n  pop\n  pop\n  pop\n  jump\t// out\n    /* \"#utility.yul\":3236:3353   */\ntag_23:\n    /* \"#utility.yul\":3290:3298   */\n  0x00\n    /* \"#utility.yul\":3340:3345   */\n  dup3\n    /* \"#utility.yul\":3334:3338   */\n  dup3\n    /* \"#utility.yul\":3330:3346   */\n  shr\n    /* \"#utility.yul\":3309:3346   */\n  swap1\n  pop\n    /* \"#utility.yul\":3236:3353   */\n  swap3\n  swap2\n  pop\n  pop\n  jump\t// out\n    /* \"#utility.yul\":3359:3528   */\ntag_24:\n    /* \"#utility.yul\":3403:3409   */\n  0x00\n    /* \"#utility.yul\":3436:3487   */\n  tag_69\n    /* \"#utility.yul\":3484:3485   */\n  0x00\n    /* \"#utility.yul\":3480:3486   */\n  not\n    /* \"#utility.yul\":3472:3477   */\n  dup5\n    /* \"#utility.yul\":3469:3470   */\n  0x08\n    /* \"#utility.yul\":3465:3478   */\n  mul\n    /* \"#utility.yul\":3436:3487   */\n  tag_23\n  jump\t// in\ntag_69:\n    /* \"#utility.yul\":3432:3488   */\n  not\n    /* \"#utility.yul\":3517:3521   */\n  dup1\n    /* \"#utility.yul\":3511:3515   */\n  dup4\n    /* \"#utility.yul\":3507:3522   */\n  and\n    /* \"#utility.yul\":3497:3522   */\n  swap2\n  pop\n    /* \"#utility.yul\":3410:3528   */\n  pop\n    /* \"#utility.yul\":3359:3528   */\n  swap3\n  swap2\n  pop\n  pop\n  jump\t// out\n    /* \"#utility.yul\":3533:3828   */\ntag_25:\n    /* \"#utility.yul\":3609:3613   */\n  0x00\n    /* \"#utility.yul\":3755:3784   */\n  tag_71\n    /* \"#utility.yul\":3780:3783   */\n  dup4\n    /* \"#utility.yul\":3774:3778   */\n  dup4\n    /* \"#utility.yul\":3755:3784   */\n  tag_24\n  jump\t// in\ntag_71:\n    /* \"#utility.yul\":3747:3784   */\n  swap2\n  pop\n    /* \"#utility.yul\":3817:3820   */\n  dup3\n    /* \"#utility.yul\":3814:3815   */\n  0x02\n    /* \"#utility.yul\":3810:3821   */\n  mul\n    /* \"#utility.yul\":3804:3808   */\n  dup3\n    /* \"#utility.yul\":3801:3822   */\n  or\n    /* \"#utility.yul\":3793:3822   */\n  swap1\n  pop\n    /* \"#utility.yul\":3533:3828   */\n  swap3\n  swap2\n  pop\n  pop\n  jump\t// out\n    /* \"#utility.yul\":3833:5228   */\ntag_2:\n    /* \"#utility.yul\":3950:3987   */\n  tag_73\n    /* \"#utility.yul\":3983:3986   */\n  dup3\n    /* \"#utility.yul\":3950:3987   */\n  tag_6\n  jump\t// in\ntag_73:\n    /* \"#utility.yul\":4052:4070   */\n  0xffffffffffffffff\n    /* \"#utility.yul\":4044:4050   */\n  dup2\n    /* \"#utility.yul\":4041:4071   */\n  gt\n    /* \"#utility.yul\":4038:4094   */\n  iszero\n  tag_74\n  jumpi\n    /* \"#utility.yul\":4074:4092   */\n  tag_75\n  tag_7\n  jump\t// in\ntag_75:\n    /* \"#utility.yul\":4038:4094   */\ntag_74:\n    /* \"#utility.yul\":4118:4156   */\n  tag_76\n    /* \"#utility.yul\":4150:4154   */\n  dup3\n    /* \"#utility.yul\":4144:4155   */\n  sload\n    /* \"#utility.yul\":4118:4156   */\n  tag_9\n  jump\t// in\ntag_76:\n    /* \"#utility.yul\":4203:4270   */\n  tag_77\n    /* \"#utility.yul\":4263:4269   */\n  dup3\n    /* \"#utility.yul\":4255:4261   */\n  dup3\n    /* \"#utility.yul\":4249:4253   */\n  dup6\n    /* \"#utility.yul\":4203:4270   */\n  tag_22\n  jump\t// in\ntag_77:\n    /* \"#utility.yul\":4297:4298   */\n  0x00\n    /* \"#utility.yul\":4321:4325   */\n  0x20\n    /* \"#utility.yul\":4308:4325   */\n  swap1\n  pop\n    /* \"#utility.yul\":4353:4355   */\n  0x1f\n    /* \"#utility.yul\":4345:4351   */\n  dup4\n    /* \"#utility.yul\":4342:4356   */\n  gt\n    /* \"#utility.yul\":4370:4371   */\n  0x01\n    /* \"#utility.yul\":4365:4983   */\n  dup2\n  eq\n  tag_79\n  jumpi\n    /* \"#utility.yul\":5027:5028   */\n  0x00\n    /* \"#utility.yul\":5044:5050   */\n  dup5\n    /* \"#utility.yul\":5041:5118   */\n  iszero\n  tag_80\n  jumpi\n    /* \"#utility.yul\":5093:5102   */\n  dup3\n    /* \"#utility.yul\":5088:5091   */\n  dup8\n    /* \"#utility.yul\":5084:5103   */\n  add\n    /* \"#utility.yul\":5078:5104   */\n  mload\n    /* \"#utility.yul\":5069:5104   */\n  swap1\n  pop\n    /* \"#utility.yul\":5041:5118   */\ntag_80:\n    /* \"#utility.yul\":5144:5211   */\n  tag_81\n    /* \"#utility.yul\":5204:5210   */\n  dup6\n    /* \"#utility.yul\":5197:5202   */\n  dup3\n    /* \"#utility.yul\":5144:5211   */\n  tag_25\n  jump\t// in\ntag_81:\n    /* \"#utility.yul\":5138:5142   */\n  dup7\n    /* \"#utility.yul\":5131:5212   */\n  sstore\n    /* \"#utility.yul\":5000:5222   */\n  pop\n    /* \"#utility.yul\":4335:5222   */\n  jump(tag_78)\n    /* \"#utility.yul\":4365:4983   */\ntag_79:\n    /* \"#utility.yul\":4417:4421   */\n  0x1f\n    /* \"#utility.yul\":4413:4422   */\n  not\n    /* \"#utility.yul\":4405:4411   */\n  dup5\n    /* \"#utility.yul\":4401:4423   */\n  and\n    /* \"#utility.yul\":4451:4488   */\n  tag_82\n    /* \"#utility.yul\":4483:4487   */\n  dup7\n    /* \"#utility.yul\":4451:4488   */\n  tag_10\n  jump\t// in\ntag_82:\n    /* \"#utility.yul\":4510:4511   */\n  0x00\n    /* \"#utility.yul\":4524:4732   */\ntag_83:\n    /* \"#utility.yul\":4538:4545   */\n  dup3\n    /* \"#utility.yul\":4535:4536   */\n  dup2\n    /* \"#utility.yul\":4532:4546   */\n  lt\n    /* \"#utility.yul\":4524:4732   */\n  iszero\n  tag_85\n  jumpi\n    /* \"#utility.yul\":4617:4626   */\n  dup5\n    /* \"#utility.yul\":4612:4615   */\n  dup10\n    /* \"#utility.yul\":4608:4627   */\n  add\n    /* \"#utility.yul\":4602:4628   */\n  mload\n    /* \"#utility.yul\":4594:4600   */\n  dup3\n    /* \"#utility.yul\":4587:4629   */\n  sstore\n    /* \"#utility.yul\":4668:4669   */\n  0x01\n    /* \"#utility.yul\":4660:4666   */\n  dup3\n    /* \"#utility.yul\":4656:4670   */\n  add\n    /* \"#utility.yul\":4646:4670   */\n  swap2\n  pop\n    /* \"#utility.yul\":4715:4717   */\n  0x20\n    /* \"#utility.yul\":4704:4713   */\n  dup6\n    /* \"#utility.yul\":4700:4718   */\n  add\n    /* \"#utility.yul\":4687:4718   */\n  swap5\n  pop\n    /* \"#utility.yul\":4561:4565   */\n  0x20\n    /* \"#utility.yul\":4558:4559   */\n  dup2\n    /* \"#utility.yul\":4554:4566   */\n  add\n    /* \"#utility.yul\":4549:4566   */\n  swap1\n  pop\n    /* \"#utility.yul\":4524:4732   */\n  jump(tag_83)\ntag_85:\n    /* \"#utility.yul\":4760:4766   */\n  dup7\n    /* \"#utility.yul\":4751:4758   */\n  dup4\n    /* \"#utility.yul\":4748:4767   */\n  lt\n    /* \"#utility.yul\":4745:4924   */\n  iszero\n  tag_86\n  jumpi\n    /* \"#utility.yul\":4818:4827   */\n  dup5\n    /* \"#utility.yul\":4813:4816   */\n  dup10\n    /* \"#utility.yul\":4809:4828   */\n  add\n    /* \"#utility.yul\":4803:4829   */\n  mload\n    /* \"#utility.yul\":4861:4909   */\n  tag_87\n    /* \"#utility.yul\":4903:4907   */\n  0x1f\n    /* \"#utility.yul\":4895:4901   */\n  dup10\n    /* \"#utility.yul\":4891:4908   */\n  and\n    /* \"#utility.yul\":4880:4889   */\n  dup3\n    /* \"#utility.yul\":4861:4909   */\n  tag_24\n  jump\t// in\ntag_87:\n    /* \"#utility.yul\":4853:4859   */\n  dup4\n    /* \"#utility.yul\":4846:4910   */\n  sstore\n    /* \"#utility.yul\":4768:4924   */\n  pop\n    /* \"#utility.yul\":4745:4924   */\ntag_86:\n    /* \"#utility.yul\":4970:4971   */\n  0x01\n    /* \"#utility.yul\":4966:4967   */\n  0x02\n    /* \"#utility.yul\":4958:4964   */\n  dup9\n    /* \"#utility.yul\":4954:4968   */\n  mul\n    /* \"#utility.yul\":4950:4972   */\n  add\n    /* \"#utility.yul\":4944:4948   */\n  dup9\n    /* \"#utility.yul\":4937:4973   */\n  sstore\n    /* \"#utility.yul\":4372:4983   */\n  pop\n  pop\n  pop\n    /* \"#utility.yul\":4335:5222   */\ntag_78:\n  pop\n    /* \"#utility.yul\":3925:5228   */\n  pop\n  pop\n  pop\n    /* \"#utility.yul\":3833:5228   */\n  pop\n  pop\n  jump\t// out\n    /* \"1-SimpleStorage.sol\":429:3531  contract SimpleStorage {... */\ntag_5:\n  dataSize(sub_0)\n  dup1\n  dataOffset(sub_0)\n  0x00\n  codecopy\n  0x00\n  return\nstop\n\nsub_0: assembly {\n        /* \"1-SimpleStorage.sol\":429:3531  contract SimpleStorage {... */\n      mstore(0x40, 0x80)\n      callvalue\n      dup1\n      iszero\n      tag_1\n      jumpi\n      0x00\n      dup1\n      revert\n    tag_1:\n      pop\n      jumpi(tag_2, lt(calldatasize, 0x04))\n      shr(0xe0, calldataload(0x00))\n      dup1\n      0x77ec2b55\n      gt\n      tag_12\n      jumpi\n      dup1\n      0x77ec2b55\n      eq\n      tag_7\n      jumpi\n      dup1\n      0x84184133\n      eq\n      tag_8\n      jumpi\n      dup1\n      0x9e7a13ad\n      eq\n      tag_9\n      jumpi\n      dup1\n      0xb2ac62ef\n      eq\n      tag_10\n      jumpi\n      dup1\n      0xe1b3202a\n      eq\n      tag_11\n      jumpi\n      jump(tag_2)\n    tag_12:\n      dup1\n      0x2e64cec1\n      eq\n      tag_3\n      jumpi\n      dup1\n      0x46f2eedf\n      eq\n      tag_4\n      jumpi\n      dup1\n      0x4f2be91f\n      eq\n      tag_5\n      jumpi\n      dup1\n      0x6057361d\n      eq\n      tag_6\n      jumpi\n    tag_2:\n      0x00\n      dup1\n      revert\n        /* \"1-SimpleStorage.sol\":2028:2115  function retrieve() public view returns(uint256) { ... */\n    tag_3:\n      tag_13\n      tag_14\n      jump\t// in\n    tag_13:\n      mload(0x40)\n      tag_15\n      swap2\n      swap1\n      tag_16\n      jump\t// in\n    tag_15:\n      mload(0x40)\n      dup1\n      swap2\n      sub\n      swap1\n      return\n        /* \"1-SimpleStorage.sol\":3345:3481  function setmap(string memory _name, uint256 _favouriteNumber) public {... */\n    tag_4:\n      tag_17\n      0x04\n      dup1\n      calldatasize\n      sub\n      dup2\n      add\n      swap1\n      tag_18\n      swap2\n      swap1\n      tag_19\n      jump\t// in\n    tag_18:\n      tag_20\n      jump\t// in\n    tag_17:\n      stop\n        /* \"1-SimpleStorage.sol\":2169:2242  function add() public pure returns(uint256){... */\n    tag_5:\n      tag_21\n      tag_22\n      jump\t// in\n    tag_21:\n      mload(0x40)\n      tag_23\n      swap2\n      swap1\n      tag_16\n      jump\t// in\n    tag_23:\n      mload(0x40)\n      dup1\n      swap2\n      sub\n      swap1\n      return\n        /* \"1-SimpleStorage.sol\":1261:1471  function store(uint256 _favouriteNumber) public virtual  {... */\n    tag_6:\n      tag_24\n      0x04\n      dup1\n      calldatasize\n      sub\n      dup2\n      add\n      swap1\n      tag_25\n      swap2\n      swap1\n      tag_26\n      jump\t// in\n    tag_25:\n      tag_27\n      jump\t// in\n    tag_24:\n      stop\n        /* \"1-SimpleStorage.sol\":2393:2463  People public person = People({favouriteNumber : 2, name : \"patrick\"}) */\n    tag_7:\n      tag_28\n      tag_29\n      jump\t// in\n    tag_28:\n      mload(0x40)\n      tag_30\n      swap3\n      swap2\n      swap1\n      tag_31\n      jump\t// in\n    tag_30:\n      mload(0x40)\n      dup1\n      swap2\n      sub\n      swap1\n      return\n        /* \"1-SimpleStorage.sol\":1008:1038  uint256 public FavouriteNumber */\n    tag_8:\n      tag_32\n      tag_33\n      jump\t// in\n    tag_32:\n      mload(0x40)\n      tag_34\n      swap2\n      swap1\n      tag_16\n      jump\t// in\n    tag_34:\n      mload(0x40)\n      dup1\n      swap2\n      sub\n      swap1\n      return\n        /* \"1-SimpleStorage.sol\":2524:2546  People[] public people */\n    tag_9:\n      tag_35\n      0x04\n      dup1\n      calldatasize\n      sub\n      dup2\n      add\n      swap1\n      tag_36\n      swap2\n      swap1\n      tag_26\n      jump\t// in\n    tag_36:\n      tag_37\n      jump\t// in\n    tag_35:\n      mload(0x40)\n      tag_38\n      swap3\n      swap2\n      swap1\n      tag_31\n      jump\t// in\n    tag_38:\n      mload(0x40)\n      dup1\n      swap2\n      sub\n      swap1\n      return\n        /* \"1-SimpleStorage.sol\":3256:3311  mapping(string => uint256) public nameToFavouriteNumber */\n    tag_10:\n      tag_39\n      0x04\n      dup1\n      calldatasize\n      sub\n      dup2\n      add\n      swap1\n      tag_40\n      swap2\n      swap1\n      tag_41\n      jump\t// in\n    tag_40:\n      tag_42\n      jump\t// in\n    tag_39:\n      mload(0x40)\n      tag_43\n      swap2\n      swap1\n      tag_16\n      jump\t// in\n    tag_43:\n      mload(0x40)\n      dup1\n      swap2\n      sub\n      swap1\n      return\n        /* \"1-SimpleStorage.sol\":3069:3205  function addperson(string memory _name, uint256 _favouriteNumber) public {... */\n    tag_11:\n      tag_44\n      0x04\n      dup1\n      calldatasize\n      sub\n      dup2\n      add\n      swap1\n      tag_45\n      swap2\n      swap1\n      tag_19\n      jump\t// in\n    tag_45:\n      tag_46\n      jump\t// in\n    tag_44:\n      stop\n        /* \"1-SimpleStorage.sol\":2028:2115  function retrieve() public view returns(uint256) { ... */\n    tag_14:\n        /* \"1-SimpleStorage.sol\":2068:2075  uint256 */\n      0x00\n        /* \"1-SimpleStorage.sol\":2096:2107  FavouriteNo */\n      sload(0x01)\n        /* \"1-SimpleStorage.sol\":2089:2107  return FavouriteNo */\n      swap1\n      pop\n        /* \"1-SimpleStorage.sol\":2028:2115  function retrieve() public view returns(uint256) { ... */\n      swap1\n      jump\t// out\n        /* \"1-SimpleStorage.sol\":3345:3481  function setmap(string memory _name, uint256 _favouriteNumber) public {... */\n    tag_20:\n        /* \"1-SimpleStorage.sol\":3457:3473  _favouriteNumber */\n      dup1\n        /* \"1-SimpleStorage.sol\":3426:3447  nameToFavouriteNumber */\n      0x0a\n        /* \"1-SimpleStorage.sol\":3448:3453  _name */\n      dup4\n        /* \"1-SimpleStorage.sol\":3426:3454  nameToFavouriteNumber[_name] */\n      mload(0x40)\n      tag_49\n      swap2\n      swap1\n      tag_50\n      jump\t// in\n    tag_49:\n      swap1\n      dup2\n      mstore\n      0x20\n      add\n      mload(0x40)\n      dup1\n      swap2\n      sub\n      swap1\n      keccak256\n        /* \"1-SimpleStorage.sol\":3426:3473  nameToFavouriteNumber[_name] = _favouriteNumber */\n      dup2\n      swap1\n      sstore\n      pop\n        /* \"1-SimpleStorage.sol\":3345:3481  function setmap(string memory _name, uint256 _favouriteNumber) public {... */\n      pop\n      pop\n      jump\t// out\n        /* \"1-SimpleStorage.sol\":2169:2242  function add() public pure returns(uint256){... */\n    tag_22:\n        /* \"1-SimpleStorage.sol\":2204:2211  uint256 */\n      0x00\n        /* \"1-SimpleStorage.sol\":2230:2233  1+1 */\n      0x02\n        /* \"1-SimpleStorage.sol\":2223:2234  return(1+1) */\n      swap1\n      pop\n        /* \"1-SimpleStorage.sol\":2169:2242  function add() public pure returns(uint256){... */\n      swap1\n      jump\t// out\n        /* \"1-SimpleStorage.sol\":1261:1471  function store(uint256 _favouriteNumber) public virtual  {... */\n    tag_27:\n        /* \"1-SimpleStorage.sol\":1347:1363  _favouriteNumber */\n      dup1\n        /* \"1-SimpleStorage.sol\":1329:1344  FavouriteNumber */\n      0x06\n        /* \"1-SimpleStorage.sol\":1329:1363  FavouriteNumber = _favouriteNumber */\n      dup2\n      swap1\n      sstore\n      pop\n        /* \"1-SimpleStorage.sol\":1374:1387  uint256 local */\n      0x00\n        /* \"1-SimpleStorage.sol\":1390:1392  12 */\n      0x0c\n        /* \"1-SimpleStorage.sol\":1374:1392  uint256 local = 12 */\n      swap1\n      pop\n        /* \"1-SimpleStorage.sol\":1462:1463  1 */\n      0x01\n        /* \"1-SimpleStorage.sol\":1456:1461  local */\n      dup2\n        /* \"1-SimpleStorage.sol\":1456:1463  local+1 */\n      tag_53\n      swap2\n      swap1\n      tag_54\n      jump\t// in\n    tag_53:\n        /* \"1-SimpleStorage.sol\":1448:1463  local = local+1 */\n      swap1\n      pop\n        /* \"1-SimpleStorage.sol\":1318:1471  {... */\n      pop\n        /* \"1-SimpleStorage.sol\":1261:1471  function store(uint256 _favouriteNumber) public virtual  {... */\n      pop\n      jump\t// out\n        /* \"1-SimpleStorage.sol\":2393:2463  People public person = People({favouriteNumber : 2, name : \"patrick\"}) */\n    tag_29:\n      0x07\n      dup1\n      0x00\n      add\n      sload\n      swap1\n      dup1\n      0x01\n      add\n      dup1\n      sload\n      tag_55\n      swap1\n      tag_56\n      jump\t// in\n    tag_55:\n      dup1\n      0x1f\n      add\n      0x20\n      dup1\n      swap2\n      div\n      mul\n      0x20\n      add\n      mload(0x40)\n      swap1\n      dup2\n      add\n      0x40\n      mstore\n      dup1\n      swap3\n      swap2\n      swap1\n      dup2\n      dup2\n      mstore\n      0x20\n      add\n      dup3\n      dup1\n      sload\n      tag_57\n      swap1\n      tag_56\n      jump\t// in\n    tag_57:\n      dup1\n      iszero\n      tag_58\n      jumpi\n      dup1\n      0x1f\n      lt\n      tag_59\n      jumpi\n      0x0100\n      dup1\n      dup4\n      sload\n      div\n      mul\n      dup4\n      mstore\n      swap2\n      0x20\n      add\n      swap2\n      jump(tag_58)\n    tag_59:\n      dup3\n      add\n      swap2\n      swap1\n      0x00\n      mstore\n      keccak256(0x00, 0x20)\n      swap1\n    tag_60:\n      dup2\n      sload\n      dup2\n      mstore\n      swap1\n      0x01\n      add\n      swap1\n      0x20\n      add\n      dup1\n      dup4\n      gt\n      tag_60\n      jumpi\n      dup3\n      swap1\n      sub\n      0x1f\n      and\n      dup3\n      add\n      swap2\n    tag_58:\n      pop\n      pop\n      pop\n      pop\n      pop\n      swap1\n      pop\n      dup3\n      jump\t// out\n        /* \"1-SimpleStorage.sol\":1008:1038  uint256 public FavouriteNumber */\n    tag_33:\n      sload(0x06)\n      dup2\n      jump\t// out\n        /* \"1-SimpleStorage.sol\":2524:2546  People[] public people */\n    tag_37:\n      0x09\n      dup2\n      dup2\n      sload\n      dup2\n      lt\n      tag_61\n      jumpi\n      0x00\n      dup1\n      revert\n    tag_61:\n      swap1\n      0x00\n      mstore\n      keccak256(0x00, 0x20)\n      swap1\n      0x02\n      mul\n      add\n      0x00\n      swap2\n      pop\n      swap1\n      pop\n      dup1\n      0x00\n      add\n      sload\n      swap1\n      dup1\n      0x01\n      add\n      dup1\n      sload\n      tag_63\n      swap1\n      tag_56\n      jump\t// in\n    tag_63:\n      dup1\n      0x1f\n      add\n      0x20\n      dup1\n      swap2\n      div\n      mul\n      0x20\n      add\n      mload(0x40)\n      swap1\n      dup2\n      add\n      0x40\n      mstore\n      dup1\n      swap3\n      swap2\n      swap1\n      dup2\n      dup2\n      mstore\n      0x20\n      add\n      dup3\n      dup1\n      sload\n      tag_64\n      swap1\n      tag_56\n      jump\t// in\n    tag_64:\n      dup1\n      iszero\n      tag_65\n      jumpi\n      dup1\n      0x1f\n      lt\n      tag_66\n      jumpi\n      0x0100\n      dup1\n      dup4\n      sload\n      div\n      mul\n      dup4\n      mstore\n      swap2\n      0x20\n      add\n      swap2\n      jump(tag_65)\n    tag_66:\n      dup3\n      add\n      swap2\n      swap1\n      0x00\n      mstore\n      keccak256(0x00, 0x20)\n      swap1\n    tag_67:\n      dup2\n      sload\n      dup2\n      mstore\n      swap1\n      0x01\n      add\n      swap1\n      0x20\n      add\n      dup1\n      dup4\n      gt\n      tag_67\n      jumpi\n      dup3\n      swap1\n      sub\n      0x1f\n      and\n      dup3\n      add\n      swap2\n    tag_65:\n      pop\n      pop\n      pop\n      pop\n      pop\n      swap1\n      pop\n      dup3\n      jump\t// out\n        /* \"1-SimpleStorage.sol\":3256:3311  mapping(string => uint256) public nameToFavouriteNumber */\n    tag_42:\n      0x0a\n      dup2\n      dup1\n      mload\n      0x20\n      dup2\n      add\n      dup3\n      add\n      dup1\n      mload\n      dup5\n      dup3\n      mstore\n      0x20\n      dup4\n      add\n      0x20\n      dup6\n      add\n      keccak256\n      dup2\n      dup4\n      mstore\n      dup1\n      swap6\n      pop\n      pop\n      pop\n      pop\n      pop\n      pop\n      0x00\n      swap2\n      pop\n      swap1\n      pop\n      sload\n      dup2\n      jump\t// out\n        /* \"1-SimpleStorage.sol\":3069:3205  function addperson(string memory _name, uint256 _favouriteNumber) public {... */\n    tag_46:\n        /* \"1-SimpleStorage.sol\":3153:3159  people */\n      0x09\n        /* \"1-SimpleStorage.sol\":3165:3196  People(_favouriteNumber, _name) */\n      mload(0x40)\n      dup1\n      0x40\n      add\n      0x40\n      mstore\n      dup1\n        /* \"1-SimpleStorage.sol\":3172:3188  _favouriteNumber */\n      dup4\n        /* \"1-SimpleStorage.sol\":3165:3196  People(_favouriteNumber, _name) */\n      dup2\n      mstore\n      0x20\n      add\n        /* \"1-SimpleStorage.sol\":3190:3195  _name */\n      dup5\n        /* \"1-SimpleStorage.sol\":3165:3196  People(_favouriteNumber, _name) */\n      dup2\n      mstore\n      pop\n        /* \"1-SimpleStorage.sol\":3153:3197  people.push(People(_favouriteNumber, _name)) */\n      swap1\n      dup1\n      0x01\n      dup2\n      sload\n      add\n      dup1\n      dup3\n      sstore\n      dup1\n      swap2\n      pop\n      pop\n      0x01\n      swap1\n      sub\n      swap1\n      0x00\n      mstore\n      keccak256(0x00, 0x20)\n      swap1\n      0x02\n      mul\n      add\n      0x00\n      swap1\n      swap2\n      swap1\n      swap2\n      swap1\n      swap2\n      pop\n      0x00\n      dup3\n      add\n      mload\n      dup2\n      0x00\n      add\n      sstore\n      0x20\n      dup3\n      add\n      mload\n      dup2\n      0x01\n      add\n      swap1\n      dup2\n      tag_70\n      swap2\n      swap1\n      tag_71\n      jump\t// in\n    tag_70:\n      pop\n      pop\n      pop\n        /* \"1-SimpleStorage.sol\":3069:3205  function addperson(string memory _name, uint256 _favouriteNumber) public {... */\n      pop\n      pop\n      jump\t// out\n        /* \"#utility.yul\":7:84   */\n    tag_72:\n        /* \"#utility.yul\":44:51   */\n      0x00\n        /* \"#utility.yul\":73:78   */\n      dup2\n        /* \"#utility.yul\":62:78   */\n      swap1\n      pop\n        /* \"#utility.yul\":7:84   */\n      swap2\n      swap1\n      pop\n      jump\t// out\n        /* \"#utility.yul\":90:208   */\n    tag_73:\n        /* \"#utility.yul\":177:201   */\n      tag_115\n        /* \"#utility.yul\":195:200   */\n      dup2\n        /* \"#utility.yul\":177:201   */\n      tag_72\n      jump\t// in\n    tag_115:\n        /* \"#utility.yul\":172:175   */\n      dup3\n        /* \"#utility.yul\":165:202   */\n      mstore\n        /* \"#utility.yul\":90:208   */\n      pop\n      pop\n      jump\t// out\n        /* \"#utility.yul\":214:436   */\n    tag_16:\n        /* \"#utility.yul\":307:311   */\n      0x00\n        /* \"#utility.yul\":345:347   */\n      0x20\n        /* \"#utility.yul\":334:343   */\n      dup3\n        /* \"#utility.yul\":330:348   */\n      add\n        /* \"#utility.yul\":322:348   */\n      swap1\n      pop\n        /* \"#utility.yul\":358:429   */\n      tag_117\n        /* \"#utility.yul\":426:427   */\n      0x00\n        /* \"#utility.yul\":415:424   */\n      dup4\n        /* \"#utility.yul\":411:428   */\n      add\n        /* \"#utility.yul\":402:408   */\n      dup5\n        /* \"#utility.yul\":358:429   */\n      tag_73\n      jump\t// in\n    tag_117:\n        /* \"#utility.yul\":214:436   */\n      swap3\n      swap2\n      pop\n      pop\n      jump\t// out\n        /* \"#utility.yul\":442:517   */\n    tag_74:\n        /* \"#utility.yul\":475:481   */\n      0x00\n        /* \"#utility.yul\":508:510   */\n      0x40\n        /* \"#utility.yul\":502:511   */\n      mload\n        /* \"#utility.yul\":492:511   */\n      swap1\n      pop\n        /* \"#utility.yul\":442:517   */\n      swap1\n      jump\t// out\n        /* \"#utility.yul\":523:640   */\n    tag_75:\n        /* \"#utility.yul\":632:633   */\n      0x00\n        /* \"#utility.yul\":629:630   */\n      dup1\n        /* \"#utility.yul\":622:634   */\n      revert\n        /* \"#utility.yul\":646:763   */\n    tag_76:\n        /* \"#utility.yul\":755:756   */\n      0x00\n        /* \"#utility.yul\":752:753   */\n      dup1\n        /* \"#utility.yul\":745:757   */\n      revert\n        /* \"#utility.yul\":769:886   */\n    tag_77:\n        /* \"#utility.yul\":878:879   */\n      0x00\n        /* \"#utility.yul\":875:876   */\n      dup1\n        /* \"#utility.yul\":868:880   */\n      revert\n        /* \"#utility.yul\":892:1009   */\n    tag_78:\n        /* \"#utility.yul\":1001:1002   */\n      0x00\n        /* \"#utility.yul\":998:999   */\n      dup1\n        /* \"#utility.yul\":991:1003   */\n      revert\n        /* \"#utility.yul\":1015:1117   */\n    tag_79:\n        /* \"#utility.yul\":1056:1062   */\n      0x00\n        /* \"#utility.yul\":1107:1109   */\n      0x1f\n        /* \"#utility.yul\":1103:1110   */\n      not\n        /* \"#utility.yul\":1098:1100   */\n      0x1f\n        /* \"#utility.yul\":1091:1096   */\n      dup4\n        /* \"#utility.yul\":1087:1101   */\n      add\n        /* \"#utility.yul\":1083:1111   */\n      and\n        /* \"#utility.yul\":1073:1111   */\n      swap1\n      pop\n        /* \"#utility.yul\":1015:1117   */\n      swap2\n      swap1\n      pop\n      jump\t// out\n        /* \"#utility.yul\":1123:1303   */\n    tag_80:\n        /* \"#utility.yul\":1171:1248   */\n      0x4e487b7100000000000000000000000000000000000000000000000000000000\n        /* \"#utility.yul\":1168:1169   */\n      0x00\n        /* \"#utility.yul\":1161:1249   */\n      mstore\n        /* \"#utility.yul\":1268:1272   */\n      0x41\n        /* \"#utility.yul\":1265:1266   */\n      0x04\n        /* \"#utility.yul\":1258:1273   */\n      mstore\n        /* \"#utility.yul\":1292:1296   */\n      0x24\n        /* \"#utility.yul\":1289:1290   */\n      0x00\n        /* \"#utility.yul\":1282:1297   */\n      revert\n        /* \"#utility.yul\":1309:1590   */\n    tag_81:\n        /* \"#utility.yul\":1392:1419   */\n      tag_126\n        /* \"#utility.yul\":1414:1418   */\n      dup3\n        /* \"#utility.yul\":1392:1419   */\n      tag_79\n      jump\t// in\n    tag_126:\n        /* \"#utility.yul\":1384:1390   */\n      dup2\n        /* \"#utility.yul\":1380:1420   */\n      add\n        /* \"#utility.yul\":1522:1528   */\n      dup2\n        /* \"#utility.yul\":1510:1520   */\n      dup2\n        /* \"#utility.yul\":1507:1529   */\n      lt\n        /* \"#utility.yul\":1486:1504   */\n      0xffffffffffffffff\n        /* \"#utility.yul\":1474:1484   */\n      dup3\n        /* \"#utility.yul\":1471:1505   */\n      gt\n        /* \"#utility.yul\":1468:1530   */\n      or\n        /* \"#utility.yul\":1465:1553   */\n      iszero\n      tag_127\n      jumpi\n        /* \"#utility.yul\":1533:1551   */\n      tag_128\n      tag_80\n      jump\t// in\n    tag_128:\n        /* \"#utility.yul\":1465:1553   */\n    tag_127:\n        /* \"#utility.yul\":1573:1583   */\n      dup1\n        /* \"#utility.yul\":1569:1571   */\n      0x40\n        /* \"#utility.yul\":1562:1584   */\n      mstore\n        /* \"#utility.yul\":1352:1590   */\n      pop\n        /* \"#utility.yul\":1309:1590   */\n      pop\n      pop\n      jump\t// out\n        /* \"#utility.yul\":1596:1725   */\n    tag_82:\n        /* \"#utility.yul\":1630:1636   */\n      0x00\n        /* \"#utility.yul\":1657:1677   */\n      tag_130\n      tag_74\n      jump\t// in\n    tag_130:\n        /* \"#utility.yul\":1647:1677   */\n      swap1\n      pop\n        /* \"#utility.yul\":1686:1719   */\n      tag_131\n        /* \"#utility.yul\":1714:1718   */\n      dup3\n        /* \"#utility.yul\":1706:1712   */\n      dup3\n        /* \"#utility.yul\":1686:1719   */\n      tag_81\n      jump\t// in\n    tag_131:\n        /* \"#utility.yul\":1596:1725   */\n      swap2\n      swap1\n      pop\n      jump\t// out\n        /* \"#utility.yul\":1731:2039   */\n    tag_83:\n        /* \"#utility.yul\":1793:1797   */\n      0x00\n        /* \"#utility.yul\":1883:1901   */\n      0xffffffffffffffff\n        /* \"#utility.yul\":1875:1881   */\n      dup3\n        /* \"#utility.yul\":1872:1902   */\n      gt\n        /* \"#utility.yul\":1869:1925   */\n      iszero\n      tag_133\n      jumpi\n        /* \"#utility.yul\":1905:1923   */\n      tag_134\n      tag_80\n      jump\t// in\n    tag_134:\n        /* \"#utility.yul\":1869:1925   */\n    tag_133:\n        /* \"#utility.yul\":1943:1972   */\n      tag_135\n        /* \"#utility.yul\":1965:1971   */\n      dup3\n        /* \"#utility.yul\":1943:1972   */\n      tag_79\n      jump\t// in\n    tag_135:\n        /* \"#utility.yul\":1935:1972   */\n      swap1\n      pop\n        /* \"#utility.yul\":2027:2031   */\n      0x20\n        /* \"#utility.yul\":2021:2025   */\n      dup2\n        /* \"#utility.yul\":2017:2032   */\n      add\n        /* \"#utility.yul\":2009:2032   */\n      swap1\n      pop\n        /* \"#utility.yul\":1731:2039   */\n      swap2\n      swap1\n      pop\n      jump\t// out\n        /* \"#utility.yul\":2045:2191   */\n    tag_84:\n        /* \"#utility.yul\":2142:2148   */\n      dup3\n        /* \"#utility.yul\":2137:2140   */\n      dup2\n        /* \"#utility.yul\":2132:2135   */\n      dup4\n        /* \"#utility.yul\":2119:2149   */\n      calldatacopy\n        /* \"#utility.yul\":2183:2184   */\n      0x00\n        /* \"#utility.yul\":2174:2180   */\n      dup4\n        /* \"#utility.yul\":2169:2172   */\n      dup4\n        /* \"#utility.yul\":2165:2181   */\n      add\n        /* \"#utility.yul\":2158:2185   */\n      mstore\n        /* \"#utility.yul\":2045:2191   */\n      pop\n      pop\n      pop\n      jump\t// out\n        /* \"#utility.yul\":2197:2622   */\n    tag_85:\n        /* \"#utility.yul\":2275:2280   */\n      0x00\n        /* \"#utility.yul\":2300:2366   */\n      tag_138\n        /* \"#utility.yul\":2316:2365   */\n      tag_139\n        /* \"#utility.yul\":2358:2364   */\n      dup5\n        /* \"#utility.yul\":2316:2365   */\n      tag_83\n      jump\t// in\n    tag_139:\n        /* \"#utility.yul\":2300:2366   */\n      tag_82\n      jump\t// in\n    tag_138:\n        /* \"#utility.yul\":2291:2366   */\n      swap1\n      pop\n        /* \"#utility.yul\":2389:2395   */\n      dup3\n        /* \"#utility.yul\":2382:2387   */\n      dup2\n        /* \"#utility.yul\":2375:2396   */\n      mstore\n        /* \"#utility.yul\":2427:2431   */\n      0x20\n        /* \"#utility.yul\":2420:2425   */\n      dup2\n        /* \"#utility.yul\":2416:2432   */\n      add\n        /* \"#utility.yul\":2465:2468   */\n      dup5\n        /* \"#utility.yul\":2456:2462   */\n      dup5\n        /* \"#utility.yul\":2451:2454   */\n      dup5\n        /* \"#utility.yul\":2447:2463   */\n      add\n        /* \"#utility.yul\":2444:2469   */\n      gt\n        /* \"#utility.yul\":2441:2553   */\n      iszero\n      tag_140\n      jumpi\n        /* \"#utility.yul\":2472:2551   */\n      tag_141\n      tag_78\n      jump\t// in\n    tag_141:\n        /* \"#utility.yul\":2441:2553   */\n    tag_140:\n        /* \"#utility.yul\":2562:2616   */\n      tag_142\n        /* \"#utility.yul\":2609:2615   */\n      dup5\n        /* \"#utility.yul\":2604:2607   */\n      dup3\n        /* \"#utility.yul\":2599:2602   */\n      dup6\n        /* \"#utility.yul\":2562:2616   */\n      tag_84\n      jump\t// in\n    tag_142:\n        /* \"#utility.yul\":2281:2622   */\n      pop\n        /* \"#utility.yul\":2197:2622   */\n      swap4\n      swap3\n      pop\n      pop\n      pop\n      jump\t// out\n        /* \"#utility.yul\":2642:2982   */\n    tag_86:\n        /* \"#utility.yul\":2698:2703   */\n      0x00\n        /* \"#utility.yul\":2747:2750   */\n      dup3\n        /* \"#utility.yul\":2740:2744   */\n      0x1f\n        /* \"#utility.yul\":2732:2738   */\n      dup4\n        /* \"#utility.yul\":2728:2745   */\n      add\n        /* \"#utility.yul\":2724:2751   */\n      slt\n        /* \"#utility.yul\":2714:2836   */\n      tag_144\n      jumpi\n        /* \"#utility.yul\":2755:2834   */\n      tag_145\n      tag_77\n      jump\t// in\n    tag_145:\n        /* \"#utility.yul\":2714:2836   */\n    tag_144:\n        /* \"#utility.yul\":2872:2878   */\n      dup2\n        /* \"#utility.yul\":2859:2879   */\n      calldataload\n        /* \"#utility.yul\":2897:2976   */\n      tag_146\n        /* \"#utility.yul\":2972:2975   */\n      dup5\n        /* \"#utility.yul\":2964:2970   */\n      dup3\n        /* \"#utility.yul\":2957:2961   */\n      0x20\n        /* \"#utility.yul\":2949:2955   */\n      dup7\n        /* \"#utility.yul\":2945:2962   */\n      add\n        /* \"#utility.yul\":2897:2976   */\n      tag_85\n      jump\t// in\n    tag_146:\n        /* \"#utility.yul\":2888:2976   */\n      swap2\n      pop\n        /* \"#utility.yul\":2704:2982   */\n      pop\n        /* \"#utility.yul\":2642:2982   */\n      swap3\n      swap2\n      pop\n      pop\n      jump\t// out\n        /* \"#utility.yul\":2988:3110   */\n    tag_87:\n        /* \"#utility.yul\":3061:3085   */\n      tag_148\n        /* \"#utility.yul\":3079:3084   */\n      dup2\n        /* \"#utility.yul\":3061:3085   */\n      tag_72\n      jump\t// in\n    tag_148:\n        /* \"#utility.yul\":3054:3059   */\n      dup2\n        /* \"#utility.yul\":3051:3086   */\n      eq\n        /* \"#utility.yul\":3041:3104   */\n      tag_149\n      jumpi\n        /* \"#utility.yul\":3100:3101   */\n      0x00\n        /* \"#utility.yul\":3097:3098   */\n      dup1\n        /* \"#utility.yul\":3090:3102   */\n      revert\n        /* \"#utility.yul\":3041:3104   */\n    tag_149:\n        /* \"#utility.yul\":2988:3110   */\n      pop\n      jump\t// out\n        /* \"#utility.yul\":3116:3255   */\n    tag_88:\n        /* \"#utility.yul\":3162:3167   */\n      0x00\n        /* \"#utility.yul\":3200:3206   */\n      dup2\n        /* \"#utility.yul\":3187:3207   */\n      calldataload\n        /* \"#utility.yul\":3178:3207   */\n      swap1\n      pop\n        /* \"#utility.yul\":3216:3249   */\n      tag_151\n        /* \"#utility.yul\":3243:3248   */\n      dup2\n        /* \"#utility.yul\":3216:3249   */\n      tag_87\n      jump\t// in\n    tag_151:\n        /* \"#utility.yul\":3116:3255   */\n      swap3\n      swap2\n      pop\n      pop\n      jump\t// out\n        /* \"#utility.yul\":3261:3915   */\n    tag_19:\n        /* \"#utility.yul\":3339:3345   */\n      0x00\n        /* \"#utility.yul\":3347:3353   */\n      dup1\n        /* \"#utility.yul\":3396:3398   */\n      0x40\n        /* \"#utility.yul\":3384:3393   */\n      dup4\n        /* \"#utility.yul\":3375:3382   */\n      dup6\n        /* \"#utility.yul\":3371:3394   */\n      sub\n        /* \"#utility.yul\":3367:3399   */\n      slt\n        /* \"#utility.yul\":3364:3483   */\n      iszero\n      tag_153\n      jumpi\n        /* \"#utility.yul\":3402:3481   */\n      tag_154\n      tag_75\n      jump\t// in\n    tag_154:\n        /* \"#utility.yul\":3364:3483   */\n    tag_153:\n        /* \"#utility.yul\":3550:3551   */\n      0x00\n        /* \"#utility.yul\":3539:3548   */\n      dup4\n        /* \"#utility.yul\":3535:3552   */\n      add\n        /* \"#utility.yul\":3522:3553   */\n      calldataload\n        /* \"#utility.yul\":3580:3598   */\n      0xffffffffffffffff\n        /* \"#utility.yul\":3572:3578   */\n      dup2\n        /* \"#utility.yul\":3569:3599   */\n      gt\n        /* \"#utility.yul\":3566:3683   */\n      iszero\n      tag_155\n      jumpi\n        /* \"#utility.yul\":3602:3681   */\n      tag_156\n      tag_76\n      jump\t// in\n    tag_156:\n        /* \"#utility.yul\":3566:3683   */\n    tag_155:\n        /* \"#utility.yul\":3707:3770   */\n      tag_157\n        /* \"#utility.yul\":3762:3769   */\n      dup6\n        /* \"#utility.yul\":3753:3759   */\n      dup3\n        /* \"#utility.yul\":3742:3751   */\n      dup7\n        /* \"#utility.yul\":3738:3760   */\n      add\n        /* \"#utility.yul\":3707:3770   */\n      tag_86\n      jump\t// in\n    tag_157:\n        /* \"#utility.yul\":3697:3770   */\n      swap3\n      pop\n        /* \"#utility.yul\":3493:3780   */\n      pop\n        /* \"#utility.yul\":3819:3821   */\n      0x20\n        /* \"#utility.yul\":3845:3898   */\n      tag_158\n        /* \"#utility.yul\":3890:3897   */\n      dup6\n        /* \"#utility.yul\":3881:3887   */\n      dup3\n        /* \"#utility.yul\":3870:3879   */\n      dup7\n        /* \"#utility.yul\":3866:3888   */\n      add\n        /* \"#utility.yul\":3845:3898   */\n      tag_88\n      jump\t// in\n    tag_158:\n        /* \"#utility.yul\":3835:3898   */\n      swap2\n      pop\n        /* \"#utility.yul\":3790:3908   */\n      pop\n        /* \"#utility.yul\":3261:3915   */\n      swap3\n      pop\n      swap3\n      swap1\n      pop\n      jump\t// out\n        /* \"#utility.yul\":3921:4250   */\n    tag_26:\n        /* \"#utility.yul\":3980:3986   */\n      0x00\n        /* \"#utility.yul\":4029:4031   */\n      0x20\n        /* \"#utility.yul\":4017:4026   */\n      dup3\n        /* \"#utility.yul\":4008:4015   */\n      dup5\n        /* \"#utility.yul\":4004:4027   */\n      sub\n        /* \"#utility.yul\":4000:4032   */\n      slt\n        /* \"#utility.yul\":3997:4116   */\n      iszero\n      tag_160\n      jumpi\n        /* \"#utility.yul\":4035:4114   */\n      tag_161\n      tag_75\n      jump\t// in\n    tag_161:\n        /* \"#utility.yul\":3997:4116   */\n    tag_160:\n        /* \"#utility.yul\":4155:4156   */\n      0x00\n        /* \"#utility.yul\":4180:4233   */\n      tag_162\n        /* \"#utility.yul\":4225:4232   */\n      dup5\n        /* \"#utility.yul\":4216:4222   */\n      dup3\n        /* \"#utility.yul\":4205:4214   */\n      dup6\n        /* \"#utility.yul\":4201:4223   */\n      add\n        /* \"#utility.yul\":4180:4233   */\n      tag_88\n      jump\t// in\n    tag_162:\n        /* \"#utility.yul\":4170:4233   */\n      swap2\n      pop\n        /* \"#utility.yul\":4126:4243   */\n      pop\n        /* \"#utility.yul\":3921:4250   */\n      swap3\n      swap2\n      pop\n      pop\n      jump\t// out\n        /* \"#utility.yul\":4256:4355   */\n    tag_89:\n        /* \"#utility.yul\":4308:4314   */\n      0x00\n        /* \"#utility.yul\":4342:4347   */\n      dup2\n        /* \"#utility.yul\":4336:4348   */\n      mload\n        /* \"#utility.yul\":4326:4348   */\n      swap1\n      pop\n        /* \"#utility.yul\":4256:4355   */\n      swap2\n      swap1\n      pop\n      jump\t// out\n        /* \"#utility.yul\":4361:4530   */\n    tag_90:\n        /* \"#utility.yul\":4445:4456   */\n      0x00\n        /* \"#utility.yul\":4479:4485   */\n      dup3\n        /* \"#utility.yul\":4474:4477   */\n      dup3\n        /* \"#utility.yul\":4467:4486   */\n      mstore\n        /* \"#utility.yul\":4519:4523   */\n      0x20\n        /* \"#utility.yul\":4514:4517   */\n      dup3\n        /* \"#utility.yul\":4510:4524   */\n      add\n        /* \"#utility.yul\":4495:4524   */\n      swap1\n      pop\n        /* \"#utility.yul\":4361:4530   */\n      swap3\n      swap2\n      pop\n      pop\n      jump\t// out\n        /* \"#utility.yul\":4536:4782   */\n    tag_91:\n        /* \"#utility.yul\":4617:4618   */\n      0x00\n        /* \"#utility.yul\":4627:4740   */\n    tag_166:\n        /* \"#utility.yul\":4641:4647   */\n      dup4\n        /* \"#utility.yul\":4638:4639   */\n      dup2\n        /* \"#utility.yul\":4635:4648   */\n      lt\n        /* \"#utility.yul\":4627:4740   */\n      iszero\n      tag_168\n      jumpi\n        /* \"#utility.yul\":4726:4727   */\n      dup1\n        /* \"#utility.yul\":4721:4724   */\n      dup3\n        /* \"#utility.yul\":4717:4728   */\n      add\n        /* \"#utility.yul\":4711:4729   */\n      mload\n        /* \"#utility.yul\":4707:4708   */\n      dup2\n        /* \"#utility.yul\":4702:4705   */\n      dup5\n        /* \"#utility.yul\":4698:4709   */\n      add\n        /* \"#utility.yul\":4691:4730   */\n      mstore\n        /* \"#utility.yul\":4663:4665   */\n      0x20\n        /* \"#utility.yul\":4660:4661   */\n      dup2\n        /* \"#utility.yul\":4656:4666   */\n      add\n        /* \"#utility.yul\":4651:4666   */\n      swap1\n      pop\n        /* \"#utility.yul\":4627:4740   */\n      jump(tag_166)\n    tag_168:\n        /* \"#utility.yul\":4774:4775   */\n      0x00\n        /* \"#utility.yul\":4765:4771   */\n      dup5\n        /* \"#utility.yul\":4760:4763   */\n      dup5\n        /* \"#utility.yul\":4756:4772   */\n      add\n        /* \"#utility.yul\":4749:4776   */\n      mstore\n        /* \"#utility.yul\":4598:4782   */\n      pop\n        /* \"#utility.yul\":4536:4782   */\n      pop\n      pop\n      pop\n      jump\t// out\n        /* \"#utility.yul\":4788:5165   */\n    tag_92:\n        /* \"#utility.yul\":4876:4879   */\n      0x00\n        /* \"#utility.yul\":4904:4943   */\n      tag_170\n        /* \"#utility.yul\":4937:4942   */\n      dup3\n        /* \"#utility.yul\":4904:4943   */\n      tag_89\n      jump\t// in\n    tag_170:\n        /* \"#utility.yul\":4959:5030   */\n      tag_171\n        /* \"#utility.yul\":5023:5029   */\n      dup2\n        /* \"#utility.yul\":5018:5021   */\n      dup6\n        /* \"#utility.yul\":4959:5030   */\n      tag_90\n      jump\t// in\n    tag_171:\n        /* \"#utility.yul\":4952:5030   */\n      swap4\n      pop\n        /* \"#utility.yul\":5039:5104   */\n      tag_172\n        /* \"#utility.yul\":5097:5103   */\n      dup2\n        /* \"#utility.yul\":5092:5095   */\n      dup6\n        /* \"#utility.yul\":5085:5089   */\n      0x20\n        /* \"#utility.yul\":5078:5083   */\n      dup7\n        /* \"#utility.yul\":5074:5090   */\n      add\n        /* \"#utility.yul\":5039:5104   */\n      tag_91\n      jump\t// in\n    tag_172:\n        /* \"#utility.yul\":5129:5158   */\n      tag_173\n        /* \"#utility.yul\":5151:5157   */\n      dup2\n        /* \"#utility.yul\":5129:5158   */\n      tag_79\n      jump\t// in\n    tag_173:\n        /* \"#utility.yul\":5124:5127   */\n      dup5\n        /* \"#utility.yul\":5120:5159   */\n      add\n        /* \"#utility.yul\":5113:5159   */\n      swap2\n      pop\n        /* \"#utility.yul\":4880:5165   */\n      pop\n        /* \"#utility.yul\":4788:5165   */\n      swap3\n      swap2\n      pop\n      pop\n      jump\t// out\n        /* \"#utility.yul\":5171:5594   */\n    tag_31:\n        /* \"#utility.yul\":5312:5316   */\n      0x00\n        /* \"#utility.yul\":5350:5352   */\n      0x40\n        /* \"#utility.yul\":5339:5348   */\n      dup3\n        /* \"#utility.yul\":5335:5353   */\n      add\n        /* \"#utility.yul\":5327:5353   */\n      swap1\n      pop\n        /* \"#utility.yul\":5363:5434   */\n      tag_175\n        /* \"#utility.yul\":5431:5432   */\n      0x00\n        /* \"#utility.yul\":5420:5429   */\n      dup4\n        /* \"#utility.yul\":5416:5433   */\n      add\n        /* \"#utility.yul\":5407:5413   */\n      dup6\n        /* \"#utility.yul\":5363:5434   */\n      tag_73\n      jump\t// in\n    tag_175:\n        /* \"#utility.yul\":5481:5490   */\n      dup2\n        /* \"#utility.yul\":5475:5479   */\n      dup2\n        /* \"#utility.yul\":5471:5491   */\n      sub\n        /* \"#utility.yul\":5466:5468   */\n      0x20\n        /* \"#utility.yul\":5455:5464   */\n      dup4\n        /* \"#utility.yul\":5451:5469   */\n      add\n        /* \"#utility.yul\":5444:5492   */\n      mstore\n        /* \"#utility.yul\":5509:5587   */\n      tag_176\n        /* \"#utility.yul\":5582:5586   */\n      dup2\n        /* \"#utility.yul\":5573:5579   */\n      dup5\n        /* \"#utility.yul\":5509:5587   */\n      tag_92\n      jump\t// in\n    tag_176:\n        /* \"#utility.yul\":5501:5587   */\n      swap1\n      pop\n        /* \"#utility.yul\":5171:5594   */\n      swap4\n      swap3\n      pop\n      pop\n      pop\n      jump\t// out\n        /* \"#utility.yul\":5600:6109   */\n    tag_41:\n        /* \"#utility.yul\":5669:5675   */\n      0x00\n        /* \"#utility.yul\":5718:5720   */\n      0x20\n        /* \"#utility.yul\":5706:5715   */\n      dup3\n        /* \"#utility.yul\":5697:5704   */\n      dup5\n        /* \"#utility.yul\":5693:5716   */\n      sub\n        /* \"#utility.yul\":5689:5721   */\n      slt\n        /* \"#utility.yul\":5686:5805   */\n      iszero\n      tag_178\n      jumpi\n        /* \"#utility.yul\":5724:5803   */\n      tag_179\n      tag_75\n      jump\t// in\n    tag_179:\n        /* \"#utility.yul\":5686:5805   */\n    tag_178:\n        /* \"#utility.yul\":5872:5873   */\n      0x00\n        /* \"#utility.yul\":5861:5870   */\n      dup3\n        /* \"#utility.yul\":5857:5874   */\n      add\n        /* \"#utility.yul\":5844:5875   */\n      calldataload\n        /* \"#utility.yul\":5902:5920   */\n      0xffffffffffffffff\n        /* \"#utility.yul\":5894:5900   */\n      dup2\n        /* \"#utility.yul\":5891:5921   */\n      gt\n        /* \"#utility.yul\":5888:6005   */\n      iszero\n      tag_180\n      jumpi\n        /* \"#utility.yul\":5924:6003   */\n      tag_181\n      tag_76\n      jump\t// in\n    tag_181:\n        /* \"#utility.yul\":5888:6005   */\n    tag_180:\n        /* \"#utility.yul\":6029:6092   */\n      tag_182\n        /* \"#utility.yul\":6084:6091   */\n      dup5\n        /* \"#utility.yul\":6075:6081   */\n      dup3\n        /* \"#utility.yul\":6064:6073   */\n      dup6\n        /* \"#utility.yul\":6060:6082   */\n      add\n        /* \"#utility.yul\":6029:6092   */\n      tag_86\n      jump\t// in\n    tag_182:\n        /* \"#utility.yul\":6019:6092   */\n      swap2\n      pop\n        /* \"#utility.yul\":5815:6102   */\n      pop\n        /* \"#utility.yul\":5600:6109   */\n      swap3\n      swap2\n      pop\n      pop\n      jump\t// out\n        /* \"#utility.yul\":6115:6263   */\n    tag_93:\n        /* \"#utility.yul\":6217:6228   */\n      0x00\n        /* \"#utility.yul\":6254:6257   */\n      dup2\n        /* \"#utility.yul\":6239:6257   */\n      swap1\n      pop\n        /* \"#utility.yul\":6115:6263   */\n      swap3\n      swap2\n      pop\n      pop\n      jump\t// out\n        /* \"#utility.yul\":6269:6659   */\n    tag_94:\n        /* \"#utility.yul\":6375:6378   */\n      0x00\n        /* \"#utility.yul\":6403:6442   */\n      tag_185\n        /* \"#utility.yul\":6436:6441   */\n      dup3\n        /* \"#utility.yul\":6403:6442   */\n      tag_89\n      jump\t// in\n    tag_185:\n        /* \"#utility.yul\":6458:6547   */\n      tag_186\n        /* \"#utility.yul\":6540:6546   */\n      dup2\n        /* \"#utility.yul\":6535:6538   */\n      dup6\n        /* \"#utility.yul\":6458:6547   */\n      tag_93\n      jump\t// in\n    tag_186:\n        /* \"#utility.yul\":6451:6547   */\n      swap4\n      pop\n        /* \"#utility.yul\":6556:6621   */\n      tag_187\n        /* \"#utility.yul\":6614:6620   */\n      dup2\n        /* \"#utility.yul\":6609:6612   */\n      dup6\n        /* \"#utility.yul\":6602:6606   */\n      0x20\n        /* \"#utility.yul\":6595:6600   */\n      dup7\n        /* \"#utility.yul\":6591:6607   */\n      add\n        /* \"#utility.yul\":6556:6621   */\n      tag_91\n      jump\t// in\n    tag_187:\n        /* \"#utility.yul\":6646:6652   */\n      dup1\n        /* \"#utility.yul\":6641:6644   */\n      dup5\n        /* \"#utility.yul\":6637:6653   */\n      add\n        /* \"#utility.yul\":6630:6653   */\n      swap2\n      pop\n        /* \"#utility.yul\":6379:6659   */\n      pop\n        /* \"#utility.yul\":6269:6659   */\n      swap3\n      swap2\n      pop\n      pop\n      jump\t// out\n        /* \"#utility.yul\":6665:6940   */\n    tag_50:\n        /* \"#utility.yul\":6797:6800   */\n      0x00\n        /* \"#utility.yul\":6819:6914   */\n      tag_189\n        /* \"#utility.yul\":6910:6913   */\n      dup3\n        /* \"#utility.yul\":6901:6907   */\n      dup5\n        /* \"#utility.yul\":6819:6914   */\n      tag_94\n      jump\t// in\n    tag_189:\n        /* \"#utility.yul\":6812:6914   */\n      swap2\n      pop\n        /* \"#utility.yul\":6931:6934   */\n      dup2\n        /* \"#utility.yul\":6924:6934   */\n      swap1\n      pop\n        /* \"#utility.yul\":6665:6940   */\n      swap3\n      swap2\n      pop\n      pop\n      jump\t// out\n        /* \"#utility.yul\":6946:7126   */\n    tag_95:\n        /* \"#utility.yul\":6994:7071   */\n      0x4e487b7100000000000000000000000000000000000000000000000000000000\n        /* \"#utility.yul\":6991:6992   */\n      0x00\n        /* \"#utility.yul\":6984:7072   */\n      mstore\n        /* \"#utility.yul\":7091:7095   */\n      0x11\n        /* \"#utility.yul\":7088:7089   */\n      0x04\n        /* \"#utility.yul\":7081:7096   */\n      mstore\n        /* \"#utility.yul\":7115:7119   */\n      0x24\n        /* \"#utility.yul\":7112:7113   */\n      0x00\n        /* \"#utility.yul\":7105:7120   */\n      revert\n        /* \"#utility.yul\":7132:7323   */\n    tag_54:\n        /* \"#utility.yul\":7172:7175   */\n      0x00\n        /* \"#utility.yul\":7191:7211   */\n      tag_192\n        /* \"#utility.yul\":7209:7210   */\n      dup3\n        /* \"#utility.yul\":7191:7211   */\n      tag_72\n      jump\t// in\n    tag_192:\n        /* \"#utility.yul\":7186:7211   */\n      swap2\n      pop\n        /* \"#utility.yul\":7225:7245   */\n      tag_193\n        /* \"#utility.yul\":7243:7244   */\n      dup4\n        /* \"#utility.yul\":7225:7245   */\n      tag_72\n      jump\t// in\n    tag_193:\n        /* \"#utility.yul\":7220:7245   */\n      swap3\n      pop\n        /* \"#utility.yul\":7268:7269   */\n      dup3\n        /* \"#utility.yul\":7265:7266   */\n      dup3\n        /* \"#utility.yul\":7261:7270   */\n      add\n        /* \"#utility.yul\":7254:7270   */\n      swap1\n      pop\n        /* \"#utility.yul\":7289:7292   */\n      dup1\n        /* \"#utility.yul\":7286:7287   */\n      dup3\n        /* \"#utility.yul\":7283:7293   */\n      gt\n        /* \"#utility.yul\":7280:7316   */\n      iszero\n      tag_194\n      jumpi\n        /* \"#utility.yul\":7296:7314   */\n      tag_195\n      tag_95\n      jump\t// in\n    tag_195:\n        /* \"#utility.yul\":7280:7316   */\n    tag_194:\n        /* \"#utility.yul\":7132:7323   */\n      swap3\n      swap2\n      pop\n      pop\n      jump\t// out\n        /* \"#utility.yul\":7329:7509   */\n    tag_96:\n        /* \"#utility.yul\":7377:7454   */\n      0x4e487b7100000000000000000000000000000000000000000000000000000000\n        /* \"#utility.yul\":7374:7375   */\n      0x00\n        /* \"#utility.yul\":7367:7455   */\n      mstore\n        /* \"#utility.yul\":7474:7478   */\n      0x22\n        /* \"#utility.yul\":7471:7472   */\n      0x04\n        /* \"#utility.yul\":7464:7479   */\n      mstore\n        /* \"#utility.yul\":7498:7502   */\n      0x24\n        /* \"#utility.yul\":7495:7496   */\n      0x00\n        /* \"#utility.yul\":7488:7503   */\n      revert\n        /* \"#utility.yul\":7515:7835   */\n    tag_56:\n        /* \"#utility.yul\":7559:7565   */\n      0x00\n        /* \"#utility.yul\":7596:7597   */\n      0x02\n        /* \"#utility.yul\":7590:7594   */\n      dup3\n        /* \"#utility.yul\":7586:7598   */\n      div\n        /* \"#utility.yul\":7576:7598   */\n      swap1\n      pop\n        /* \"#utility.yul\":7643:7644   */\n      0x01\n        /* \"#utility.yul\":7637:7641   */\n      dup3\n        /* \"#utility.yul\":7633:7645   */\n      and\n        /* \"#utility.yul\":7664:7682   */\n      dup1\n        /* \"#utility.yul\":7654:7735   */\n      tag_198\n      jumpi\n        /* \"#utility.yul\":7720:7724   */\n      0x7f\n        /* \"#utility.yul\":7712:7718   */\n      dup3\n        /* \"#utility.yul\":7708:7725   */\n      and\n        /* \"#utility.yul\":7698:7725   */\n      swap2\n      pop\n        /* \"#utility.yul\":7654:7735   */\n    tag_198:\n        /* \"#utility.yul\":7782:7784   */\n      0x20\n        /* \"#utility.yul\":7774:7780   */\n      dup3\n        /* \"#utility.yul\":7771:7785   */\n      lt\n        /* \"#utility.yul\":7751:7769   */\n      dup2\n        /* \"#utility.yul\":7748:7786   */\n      sub\n        /* \"#utility.yul\":7745:7829   */\n      tag_199\n      jumpi\n        /* \"#utility.yul\":7801:7819   */\n      tag_200\n      tag_96\n      jump\t// in\n    tag_200:\n        /* \"#utility.yul\":7745:7829   */\n    tag_199:\n        /* \"#utility.yul\":7566:7835   */\n      pop\n        /* \"#utility.yul\":7515:7835   */\n      swap2\n      swap1\n      pop\n      jump\t// out\n        /* \"#utility.yul\":7841:7982   */\n    tag_97:\n        /* \"#utility.yul\":7890:7894   */\n      0x00\n        /* \"#utility.yul\":7913:7916   */\n      dup2\n        /* \"#utility.yul\":7905:7916   */\n      swap1\n      pop\n        /* \"#utility.yul\":7936:7939   */\n      dup2\n        /* \"#utility.yul\":7933:7934   */\n      0x00\n        /* \"#utility.yul\":7926:7940   */\n      mstore\n        /* \"#utility.yul\":7970:7974   */\n      0x20\n        /* \"#utility.yul\":7967:7968   */\n      0x00\n        /* \"#utility.yul\":7957:7975   */\n      keccak256\n        /* \"#utility.yul\":7949:7975   */\n      swap1\n      pop\n        /* \"#utility.yul\":7841:7982   */\n      swap2\n      swap1\n      pop\n      jump\t// out\n        /* \"#utility.yul\":7988:8081   */\n    tag_98:\n        /* \"#utility.yul\":8025:8031   */\n      0x00\n        /* \"#utility.yul\":8072:8074   */\n      0x20\n        /* \"#utility.yul\":8067:8069   */\n      0x1f\n        /* \"#utility.yul\":8060:8065   */\n      dup4\n        /* \"#utility.yul\":8056:8070   */\n      add\n        /* \"#utility.yul\":8052:8075   */\n      div\n        /* \"#utility.yul\":8042:8075   */\n      swap1\n      pop\n        /* \"#utility.yul\":7988:8081   */\n      swap2\n      swap1\n      pop\n      jump\t// out\n        /* \"#utility.yul\":8087:8194   */\n    tag_99:\n        /* \"#utility.yul\":8131:8139   */\n      0x00\n        /* \"#utility.yul\":8181:8186   */\n      dup3\n        /* \"#utility.yul\":8175:8179   */\n      dup3\n        /* \"#utility.yul\":8171:8187   */\n      shl\n        /* \"#utility.yul\":8150:8187   */\n      swap1\n      pop\n        /* \"#utility.yul\":8087:8194   */\n      swap3\n      swap2\n      pop\n      pop\n      jump\t// out\n        /* \"#utility.yul\":8200:8593   */\n    tag_100:\n        /* \"#utility.yul\":8269:8275   */\n      0x00\n        /* \"#utility.yul\":8319:8320   */\n      0x08\n        /* \"#utility.yul\":8307:8317   */\n      dup4\n        /* \"#utility.yul\":8303:8321   */\n      mul\n        /* \"#utility.yul\":8342:8439   */\n      tag_205\n        /* \"#utility.yul\":8372:8438   */\n      0xffffffffffffffffffffffffffffffffffffffffffffffffffffffffffffffff\n        /* \"#utility.yul\":8361:8370   */\n      dup3\n        /* \"#utility.yul\":8342:8439   */\n      tag_99\n      jump\t// in\n    tag_205:\n        /* \"#utility.yul\":8460:8499   */\n      tag_206\n        /* \"#utility.yul\":8490:8498   */\n      dup7\n        /* \"#utility.yul\":8479:8488   */\n      dup4\n        /* \"#utility.yul\":8460:8499   */\n      tag_99\n      jump\t// in\n    tag_206:\n        /* \"#utility.yul\":8448:8499   */\n      swap6\n      pop\n        /* \"#utility.yul\":8532:8536   */\n      dup1\n        /* \"#utility.yul\":8528:8537   */\n      not\n        /* \"#utility.yul\":8521:8526   */\n      dup5\n        /* \"#utility.yul\":8517:8538   */\n      and\n        /* \"#utility.yul\":8508:8538   */\n      swap4\n      pop\n        /* \"#utility.yul\":8581:8585   */\n      dup1\n        /* \"#utility.yul\":8571:8579   */\n      dup7\n        /* \"#utility.yul\":8567:8586   */\n      and\n        /* \"#utility.yul\":8560:8565   */\n      dup5\n        /* \"#utility.yul\":8557:8587   */\n      or\n        /* \"#utility.yul\":8547:8587   */\n      swap3\n      pop\n        /* \"#utility.yul\":8276:8593   */\n      pop\n      pop\n        /* \"#utility.yul\":8200:8593   */\n      swap4\n      swap3\n      pop\n      pop\n      pop\n      jump\t// out\n        /* \"#utility.yul\":8599:8659   */\n    tag_101:\n        /* \"#utility.yul\":8627:8630   */\n      0x00\n        /* \"#utility.yul\":8648:8653   */\n      dup2\n        /* \"#utility.yul\":8641:8653   */\n      swap1\n      pop\n        /* \"#utility.yul\":8599:8659   */\n      swap2\n      swap1\n      pop\n      jump\t// out\n        /* \"#utility.yul\":8665:8807   */\n    tag_102:\n        /* \"#utility.yul\":8715:8724   */\n      0x00\n        /* \"#utility.yul\":8748:8801   */\n      tag_209\n        /* \"#utility.yul\":8766:8800   */\n      tag_210\n        /* \"#utility.yul\":8775:8799   */\n      tag_211\n        /* \"#utility.yul\":8793:8798   */\n      dup5\n        /* \"#utility.yul\":8775:8799   */\n      tag_72\n      jump\t// in\n    tag_211:\n        /* \"#utility.yul\":8766:8800   */\n      tag_101\n      jump\t// in\n    tag_210:\n        /* \"#utility.yul\":8748:8801   */\n      tag_72\n      jump\t// in\n    tag_209:\n        /* \"#utility.yul\":8735:8801   */\n      swap1\n      pop\n        /* \"#utility.yul\":8665:8807   */\n      swap2\n      swap1\n      pop\n      jump\t// out\n        /* \"#utility.yul\":8813:8888   */\n    tag_103:\n        /* \"#utility.yul\":8856:8859   */\n      0x00\n        /* \"#utility.yul\":8877:8882   */\n      dup2\n        /* \"#utility.yul\":8870:8882   */\n      swap1\n      pop\n        /* \"#utility.yul\":8813:8888   */\n      swap2\n      swap1\n      pop\n      jump\t// out\n        /* \"#utility.yul\":8894:9163   */\n    tag_104:\n        /* \"#utility.yul\":9004:9043   */\n      tag_214\n        /* \"#utility.yul\":9035:9042   */\n      dup4\n        /* \"#utility.yul\":9004:9043   */\n      tag_102\n      jump\t// in\n    tag_214:\n        /* \"#utility.yul\":9065:9156   */\n      tag_215\n        /* \"#utility.yul\":9114:9155   */\n      tag_216\n        /* \"#utility.yul\":9138:9154   */\n      dup3\n        /* \"#utility.yul\":9114:9155   */\n      tag_103\n      jump\t// in\n    tag_216:\n        /* \"#utility.yul\":9106:9112   */\n      dup5\n        /* \"#utility.yul\":9099:9103   */\n      dup5\n        /* \"#utility.yul\":9093:9104   */\n      sload\n        /* \"#utility.yul\":9065:9156   */\n      tag_100\n      jump\t// in\n    tag_215:\n        /* \"#utility.yul\":9059:9063   */\n      dup3\n        /* \"#utility.yul\":9052:9157   */\n      sstore\n        /* \"#utility.yul\":8970:9163   */\n      pop\n        /* \"#utility.yul\":8894:9163   */\n      pop\n      pop\n      pop\n      jump\t// out\n        /* \"#utility.yul\":9169:9242   */\n    tag_105:\n        /* \"#utility.yul\":9214:9217   */\n      0x00\n        /* \"#utility.yul\":9169:9242   */\n      swap1\n      jump\t// out\n        /* \"#utility.yul\":9248:9437   */\n    tag_106:\n        /* \"#utility.yul\":9325:9357   */\n      tag_219\n      tag_105\n      jump\t// in\n    tag_219:\n        /* \"#utility.yul\":9366:9431   */\n      tag_220\n        /* \"#utility.yul\":9424:9430   */\n      dup2\n        /* \"#utility.yul\":9416:9422   */\n      dup5\n        /* \"#utility.yul\":9410:9414   */\n      dup5\n        /* \"#utility.yul\":9366:9431   */\n      tag_104\n      jump\t// in\n    tag_220:\n        /* \"#utility.yul\":9301:9437   */\n      pop\n        /* \"#utility.yul\":9248:9437   */\n      pop\n      pop\n      jump\t// out\n        /* \"#utility.yul\":9443:9629   */\n    tag_107:\n        /* \"#utility.yul\":9503:9623   */\n    tag_222:\n        /* \"#utility.yul\":9520:9523   */\n      dup2\n        /* \"#utility.yul\":9513:9518   */\n      dup2\n        /* \"#utility.yul\":9510:9524   */\n      lt\n        /* \"#utility.yul\":9503:9623   */\n      iszero\n      tag_224\n      jumpi\n        /* \"#utility.yul\":9574:9613   */\n      tag_225\n        /* \"#utility.yul\":9611:9612   */\n      0x00\n        /* \"#utility.yul\":9604:9609   */\n      dup3\n        /* \"#utility.yul\":9574:9613   */\n      tag_106\n      jump\t// in\n    tag_225:\n        /* \"#utility.yul\":9547:9548   */\n      0x01\n        /* \"#utility.yul\":9540:9545   */\n      dup2\n        /* \"#utility.yul\":9536:9549   */\n      add\n        /* \"#utility.yul\":9527:9549   */\n      swap1\n      pop\n        /* \"#utility.yul\":9503:9623   */\n      jump(tag_222)\n    tag_224:\n        /* \"#utility.yul\":9443:9629   */\n      pop\n      pop\n      jump\t// out\n        /* \"#utility.yul\":9635:10178   */\n    tag_108:\n        /* \"#utility.yul\":9736:9738   */\n      0x1f\n        /* \"#utility.yul\":9731:9734   */\n      dup3\n        /* \"#utility.yul\":9728:9739   */\n      gt\n        /* \"#utility.yul\":9725:10171   */\n      iszero\n      tag_227\n      jumpi\n        /* \"#utility.yul\":9770:9808   */\n      tag_228\n        /* \"#utility.yul\":9802:9807   */\n      dup2\n        /* \"#utility.yul\":9770:9808   */\n      tag_97\n      jump\t// in\n    tag_228:\n        /* \"#utility.yul\":9854:9883   */\n      tag_229\n        /* \"#utility.yul\":9872:9882   */\n      dup5\n        /* \"#utility.yul\":9854:9883   */\n      tag_98\n      jump\t// in\n    tag_229:\n        /* \"#utility.yul\":9844:9852   */\n      dup2\n        /* \"#utility.yul\":9840:9884   */\n      add\n        /* \"#utility.yul\":10037:10039   */\n      0x20\n        /* \"#utility.yul\":10025:10035   */\n      dup6\n        /* \"#utility.yul\":10022:10040   */\n      lt\n        /* \"#utility.yul\":10019:10068   */\n      iszero\n      tag_230\n      jumpi\n        /* \"#utility.yul\":10058:10066   */\n      dup2\n        /* \"#utility.yul\":10043:10066   */\n      swap1\n      pop\n        /* \"#utility.yul\":10019:10068   */\n    tag_230:\n        /* \"#utility.yul\":10081:10161   */\n      tag_231\n        /* \"#utility.yul\":10137:10159   */\n      tag_232\n        /* \"#utility.yul\":10155:10158   */\n      dup6\n        /* \"#utility.yul\":10137:10159   */\n      tag_98\n      jump\t// in\n    tag_232:\n        /* \"#utility.yul\":10127:10135   */\n      dup4\n        /* \"#utility.yul\":10123:10160   */\n      add\n        /* \"#utility.yul\":10110:10121   */\n      dup3\n        /* \"#utility.yul\":10081:10161   */\n      tag_107\n      jump\t// in\n    tag_231:\n        /* \"#utility.yul\":9740:10171   */\n      pop\n      pop\n        /* \"#utility.yul\":9725:10171   */\n    tag_227:\n        /* \"#utility.yul\":9635:10178   */\n      pop\n      pop\n      pop\n      jump\t// out\n        /* \"#utility.yul\":10184:10301   */\n    tag_109:\n        /* \"#utility.yul\":10238:10246   */\n      0x00\n        /* \"#utility.yul\":10288:10293   */\n      dup3\n        /* \"#utility.yul\":10282:10286   */\n      dup3\n        /* \"#utility.yul\":10278:10294   */\n      shr\n        /* \"#utility.yul\":10257:10294   */\n      swap1\n      pop\n        /* \"#utility.yul\":10184:10301   */\n      swap3\n      swap2\n      pop\n      pop\n      jump\t// out\n        /* \"#utility.yul\":10307:10476   */\n    tag_110:\n        /* \"#utility.yul\":10351:10357   */\n      0x00\n        /* \"#utility.yul\":10384:10435   */\n      tag_235\n        /* \"#utility.yul\":10432:10433   */\n      0x00\n        /* \"#utility.yul\":10428:10434   */\n      not\n        /* \"#utility.yul\":10420:10425   */\n      dup5\n        /* \"#utility.yul\":10417:10418   */\n      0x08\n        /* \"#utility.yul\":10413:10426   */\n      mul\n        /* \"#utility.yul\":10384:10435   */\n      tag_109\n      jump\t// in\n    tag_235:\n        /* \"#utility.yul\":10380:10436   */\n      not\n        /* \"#utility.yul\":10465:10469   */\n      dup1\n        /* \"#utility.yul\":10459:10463   */\n      dup4\n        /* \"#utility.yul\":10455:10470   */\n      and\n        /* \"#utility.yul\":10445:10470   */\n      swap2\n      pop\n        /* \"#utility.yul\":10358:10476   */\n      pop\n        /* \"#utility.yul\":10307:10476   */\n      swap3\n      swap2\n      pop\n      pop\n      jump\t// out\n        /* \"#utility.yul\":10481:10776   */\n    tag_111:\n        /* \"#utility.yul\":10557:10561   */\n      0x00\n        /* \"#utility.yul\":10703:10732   */\n      tag_237\n        /* \"#utility.yul\":10728:10731   */\n      dup4\n        /* \"#utility.yul\":10722:10726   */\n      dup4\n        /* \"#utility.yul\":10703:10732   */\n      tag_110\n      jump\t// in\n    tag_237:\n        /* \"#utility.yul\":10695:10732   */\n      swap2\n      pop\n        /* \"#utility.yul\":10765:10768   */\n      dup3\n        /* \"#utility.yul\":10762:10763   */\n      0x02\n        /* \"#utility.yul\":10758:10769   */\n      mul\n        /* \"#utility.yul\":10752:10756   */\n      dup3\n        /* \"#utility.yul\":10749:10770   */\n      or\n        /* \"#utility.yul\":10741:10770   */\n      swap1\n      pop\n        /* \"#utility.yul\":10481:10776   */\n      swap3\n      swap2\n      pop\n      pop\n      jump\t// out\n        /* \"#utility.yul\":10781:12176   */\n    tag_71:\n        /* \"#utility.yul\":10898:10935   */\n      tag_239\n        /* \"#utility.yul\":10931:10934   */\n      dup3\n        /* \"#utility.yul\":10898:10935   */\n      tag_89\n      jump\t// in\n    tag_239:\n        /* \"#utility.yul\":11000:11018   */\n      0xffffffffffffffff\n        /* \"#utility.yul\":10992:10998   */\n      dup2\n        /* \"#utility.yul\":10989:11019   */\n      gt\n        /* \"#utility.yul\":10986:11042   */\n      iszero\n      tag_240\n      jumpi\n        /* \"#utility.yul\":11022:11040   */\n      tag_241\n      tag_80\n      jump\t// in\n    tag_241:\n        /* \"#utility.yul\":10986:11042   */\n    tag_240:\n        /* \"#utility.yul\":11066:11104   */\n      tag_242\n        /* \"#utility.yul\":11098:11102   */\n      dup3\n        /* \"#utility.yul\":11092:11103   */\n      sload\n        /* \"#utility.yul\":11066:11104   */\n      tag_56\n      jump\t// in\n    tag_242:\n        /* \"#utility.yul\":11151:11218   */\n      tag_243\n        /* \"#utility.yul\":11211:11217   */\n      dup3\n        /* \"#utility.yul\":11203:11209   */\n      dup3\n        /* \"#utility.yul\":11197:11201   */\n      dup6\n        /* \"#utility.yul\":11151:11218   */\n      tag_108\n      jump\t// in\n    tag_243:\n        /* \"#utility.yul\":11245:11246   */\n      0x00\n        /* \"#utility.yul\":11269:11273   */\n      0x20\n        /* \"#utility.yul\":11256:11273   */\n      swap1\n      pop\n        /* \"#utility.yul\":11301:11303   */\n      0x1f\n        /* \"#utility.yul\":11293:11299   */\n      dup4\n        /* \"#utility.yul\":11290:11304   */\n      gt\n        /* \"#utility.yul\":11318:11319   */\n      0x01\n        /* \"#utility.yul\":11313:11931   */\n      dup2\n      eq\n      tag_245\n      jumpi\n        /* \"#utility.yul\":11975:11976   */\n      0x00\n        /* \"#utility.yul\":11992:11998   */\n      dup5\n        /* \"#utility.yul\":11989:12066   */\n      iszero\n      tag_246\n      jumpi\n        /* \"#utility.yul\":12041:12050   */\n      dup3\n        /* \"#utility.yul\":12036:12039   */\n      dup8\n        /* \"#utility.yul\":12032:12051   */\n      add\n        /* \"#utility.yul\":12026:12052   */\n      mload\n        /* \"#utility.yul\":12017:12052   */\n      swap1\n      pop\n        /* \"#utility.yul\":11989:12066   */\n    tag_246:\n        /* \"#utility.yul\":12092:12159   */\n      tag_247\n        /* \"#utility.yul\":12152:12158   */\n      dup6\n        /* \"#utility.yul\":12145:12150   */\n      dup3\n        /* \"#utility.yul\":12092:12159   */\n      tag_111\n      jump\t// in\n    tag_247:\n        /* \"#utility.yul\":12086:12090   */\n      dup7\n        /* \"#utility.yul\":12079:12160   */\n      sstore\n        /* \"#utility.yul\":11948:12170   */\n      pop\n        /* \"#utility.yul\":11283:12170   */\n      jump(tag_244)\n        /* \"#utility.yul\":11313:11931   */\n    tag_245:\n        /* \"#utility.yul\":11365:11369   */\n      0x1f\n        /* \"#utility.yul\":11361:11370   */\n      not\n        /* \"#utility.yul\":11353:11359   */\n      dup5\n        /* \"#utility.yul\":11349:11371   */\n      and\n        /* \"#utility.yul\":11399:11436   */\n      tag_248\n        /* \"#utility.yul\":11431:11435   */\n      dup7\n        /* \"#utility.yul\":11399:11436   */\n      tag_97\n      jump\t// in\n    tag_248:\n        /* \"#utility.yul\":11458:11459   */\n      0x00\n        /* \"#utility.yul\":11472:11680   */\n    tag_249:\n        /* \"#utility.yul\":11486:11493   */\n      dup3\n        /* \"#utility.yul\":11483:11484   */\n      dup2\n        /* \"#utility.yul\":11480:11494   */\n      lt\n        /* \"#utility.yul\":11472:11680   */\n      iszero\n      tag_251\n      jumpi\n        /* \"#utility.yul\":11565:11574   */\n      dup5\n        /* \"#utility.yul\":11560:11563   */\n      dup10\n        /* \"#utility.yul\":11556:11575   */\n      add\n        /* \"#utility.yul\":11550:11576   */\n      mload\n        /* \"#utility.yul\":11542:11548   */\n      dup3\n        /* \"#utility.yul\":11535:11577   */\n      sstore\n        /* \"#utility.yul\":11616:11617   */\n      0x01\n        /* \"#utility.yul\":11608:11614   */\n      dup3\n        /* \"#utility.yul\":11604:11618   */\n      add\n        /* \"#utility.yul\":11594:11618   */\n      swap2\n      pop\n        /* \"#utility.yul\":11663:11665   */\n      0x20\n        /* \"#utility.yul\":11652:11661   */\n      dup6\n        /* \"#utility.yul\":11648:11666   */\n      add\n        /* \"#utility.yul\":11635:11666   */\n      swap5\n      pop\n        /* \"#utility.yul\":11509:11513   */\n      0x20\n        /* \"#utility.yul\":11506:11507   */\n      dup2\n        /* \"#utility.yul\":11502:11514   */\n      add\n        /* \"#utility.yul\":11497:11514   */\n      swap1\n      pop\n        /* \"#utility.yul\":11472:11680   */\n      jump(tag_249)\n    tag_251:\n        /* \"#utility.yul\":11708:11714   */\n      dup7\n        /* \"#utility.yul\":11699:11706   */\n      dup4\n        /* \"#utility.yul\":11696:11715   */\n      lt\n        /* \"#utility.yul\":11693:11872   */\n      iszero\n      tag_252\n      jumpi\n        /* \"#utility.yul\":11766:11775   */\n      dup5\n        /* \"#utility.yul\":11761:11764   */\n      dup10\n        /* \"#utility.yul\":11757:11776   */\n      add\n        /* \"#utility.yul\":11751:11777   */\n      mload\n        /* \"#utility.yul\":11809:11857   */\n      tag_253\n        /* \"#utility.yul\":11851:11855   */\n      0x1f\n        /* \"#utility.yul\":11843:11849   */\n      dup10\n        /* \"#utility.yul\":11839:11856   */\n      and\n        /* \"#utility.yul\":11828:11837   */\n      dup3\n        /* \"#utility.yul\":11809:11857   */\n      tag_110\n      jump\t// in\n    tag_253:\n        /* \"#utility.yul\":11801:11807   */\n      dup4\n        /* \"#utility.yul\":11794:11858   */\n      sstore\n        /* \"#utility.yul\":11716:11872   */\n      pop\n        /* \"#utility.yul\":11693:11872   */\n    tag_252:\n        /* \"#utility.yul\":11918:11919   */\n      0x01\n        /* \"#utility.yul\":11914:11915   */\n      0x02\n        /* \"#utility.yul\":11906:11912   */\n      dup9\n        /* \"#utility.yul\":11902:11916   */\n      mul\n        /* \"#utility.yul\":11898:11920   */\n      add\n        /* \"#utility.yul\":11892:11896   */\n      dup9\n        /* \"#utility.yul\":11885:11921   */\n      sstore\n        /* \"#utility.yul\":11320:11931   */\n      pop\n      pop\n      pop\n        /* \"#utility.yul\":11283:12170   */\n    tag_244:\n      pop\n        /* \"#utility.yul\":10873:12176   */\n      pop\n      pop\n      pop\n        /* \"#utility.yul\":10781:12176   */\n      pop\n      pop\n      jump\t// out\n\n    auxdata: 0xa26469706673582212207e4080ab4f6c5fed868549cb8d0dd09abbd4cae86c6ef0b3d6766b63d98686c364736f6c63430008120033\n}\n",
				"bytecode": {
					"linkReferences": {},
					"object": "608060405260016000806101000a81548160ff0219169083151502179055506101006001556040518060400160405280600481526020017f4669766500000000000000000000000000000000000000000000000000000000815250600290816200006a9190620003e8565b50600560035573e3d5ecbffaff17f7b936a66ccf65121da9d78989600460006101000a81548173ffffffffffffffffffffffffffffffffffffffff021916908373ffffffffffffffffffffffffffffffffffffffff1602179055507f63617400000000000000000000000000000000000000000000000000000000006005556040518060400160405280600281526020016040518060400160405280600781526020017f7061747269636b000000000000000000000000000000000000000000000000008152508152506007600082015181600001556020820151816001019081620001579190620003e8565b5050503480156200016757600080fd5b50620004cf565b600081519050919050565b7f4e487b7100000000000000000000000000000000000000000000000000000000600052604160045260246000fd5b7f4e487b7100000000000000000000000000000000000000000000000000000000600052602260045260246000fd5b60006002820490506001821680620001f057607f821691505b602082108103620002065762000205620001a8565b5b50919050565b60008190508160005260206000209050919050565b60006020601f8301049050919050565b600082821b905092915050565b600060088302620002707fffffffffffffffffffffffffffffffffffffffffffffffffffffffffffffffff8262000231565b6200027c868362000231565b95508019841693508086168417925050509392505050565b6000819050919050565b6000819050919050565b6000620002c9620002c3620002bd8462000294565b6200029e565b62000294565b9050919050565b6000819050919050565b620002e583620002a8565b620002fd620002f482620002d0565b8484546200023e565b825550505050565b600090565b6200031462000305565b62000321818484620002da565b505050565b5b8181101562000349576200033d6000826200030a565b60018101905062000327565b5050565b601f821115620003985762000362816200020c565b6200036d8462000221565b810160208510156200037d578190505b620003956200038c8562000221565b83018262000326565b50505b505050565b600082821c905092915050565b6000620003bd600019846008026200039d565b1980831691505092915050565b6000620003d88383620003aa565b9150826002028217905092915050565b620003f3826200016e565b67ffffffffffffffff8111156200040f576200040e62000179565b5b6200041b8254620001d7565b620004288282856200034d565b600060209050601f8311600181146200046057600084156200044b578287015190505b620004578582620003ca565b865550620004c7565b601f19841662000470866200020c565b60005b828110156200049a5784890151825560018201915060208501945060208101905062000473565b86831015620004ba5784890151620004b6601f891682620003aa565b8355505b6001600288020188555050505b505050505050565b610b1580620004df6000396000f3fe608060405234801561001057600080fd5b50600436106100935760003560e01c806377ec2b551161006657806377ec2b551461010c578063841841331461012b5780639e7a13ad14610149578063b2ac62ef1461017a578063e1b3202a146101aa57610093565b80632e64cec11461009857806346f2eedf146100b65780634f2be91f146100d25780636057361d146100f0575b600080fd5b6100a06101c6565b6040516100ad9190610429565b60405180910390f35b6100d060048036038101906100cb91906105ca565b6101d0565b005b6100da6101f7565b6040516100e79190610429565b60405180910390f35b61010a60048036038101906101059190610626565b610200565b005b610114610220565b6040516101229291906106d2565b60405180910390f35b6101336102ba565b6040516101409190610429565b60405180910390f35b610163600480360381019061015e9190610626565b6102c0565b6040516101719291906106d2565b60405180910390f35b610194600480360381019061018f9190610702565b61037c565b6040516101a19190610429565b60405180910390f35b6101c460048036038101906101bf91906105ca565b6103aa565b005b6000600154905090565b80600a836040516101e19190610787565b9081526020016040518091039020819055505050565b60006002905090565b806006819055506000600c905060018161021a91906107cd565b90505050565b600780600001549080600101805461023790610830565b80601f016020809104026020016040519081016040528092919081815260200182805461026390610830565b80156102b05780601f10610285576101008083540402835291602001916102b0565b820191906000526020600020905b81548152906001019060200180831161029357829003601f168201915b5050505050905082565b60065481565b600981815481106102d057600080fd5b90600052602060002090600202016000915090508060000154908060010180546102f990610830565b80601f016020809104026020016040519081016040528092919081815260200182805461032590610830565b80156103725780601f1061034757610100808354040283529160200191610372565b820191906000526020600020905b81548152906001019060200180831161035557829003601f168201915b5050505050905082565b600a818051602081018201805184825260208301602085012081835280955050505050506000915090505481565b600960405180604001604052808381526020018481525090806001815401808255809150506001900390600052602060002090600202016000909190919091506000820151816000015560208201518160010190816104099190610a0d565b5050505050565b6000819050919050565b61042381610410565b82525050565b600060208201905061043e600083018461041a565b92915050565b6000604051905090565b600080fd5b600080fd5b600080fd5b600080fd5b6000601f19601f8301169050919050565b7f4e487b7100000000000000000000000000000000000000000000000000000000600052604160045260246000fd5b6104ab82610462565b810181811067ffffffffffffffff821117156104ca576104c9610473565b5b80604052505050565b60006104dd610444565b90506104e982826104a2565b919050565b600067ffffffffffffffff82111561050957610508610473565b5b61051282610462565b9050602081019050919050565b82818337600083830152505050565b600061054161053c846104ee565b6104d3565b90508281526020810184848401111561055d5761055c61045d565b5b61056884828561051f565b509392505050565b600082601f83011261058557610584610458565b5b813561059584826020860161052e565b91505092915050565b6105a781610410565b81146105b257600080fd5b50565b6000813590506105c48161059e565b92915050565b600080604083850312156105e1576105e061044e565b5b600083013567ffffffffffffffff8111156105ff576105fe610453565b5b61060b85828601610570565b925050602061061c858286016105b5565b9150509250929050565b60006020828403121561063c5761063b61044e565b5b600061064a848285016105b5565b91505092915050565b600081519050919050565b600082825260208201905092915050565b60005b8381101561068d578082015181840152602081019050610672565b60008484015250505050565b60006106a482610653565b6106ae818561065e565b93506106be81856020860161066f565b6106c781610462565b840191505092915050565b60006040820190506106e7600083018561041a565b81810360208301526106f98184610699565b90509392505050565b6000602082840312156107185761071761044e565b5b600082013567ffffffffffffffff81111561073657610735610453565b5b61074284828501610570565b91505092915050565b600081905092915050565b600061076182610653565b61076b818561074b565b935061077b81856020860161066f565b80840191505092915050565b60006107938284610756565b915081905092915050565b7f4e487b7100000000000000000000000000000000000000000000000000000000600052601160045260246000fd5b60006107d882610410565b91506107e383610410565b92508282019050808211156107fb576107fa61079e565b5b92915050565b7f4e487b7100000000000000000000000000000000000000000000000000000000600052602260045260246000fd5b6000600282049050600182168061084857607f821691505b60208210810361085b5761085a610801565b5b50919050565b60008190508160005260206000209050919050565b60006020601f8301049050919050565b600082821b905092915050565b6000600883026108c37fffffffffffffffffffffffffffffffffffffffffffffffffffffffffffffffff82610886565b6108cd8683610886565b95508019841693508086168417925050509392505050565b6000819050919050565b600061090a61090561090084610410565b6108e5565b610410565b9050919050565b6000819050919050565b610924836108ef565b61093861093082610911565b848454610893565b825550505050565b600090565b61094d610940565b61095881848461091b565b505050565b5b8181101561097c57610971600082610945565b60018101905061095e565b5050565b601f8211156109c15761099281610861565b61099b84610876565b810160208510156109aa578190505b6109be6109b685610876565b83018261095d565b50505b505050565b600082821c905092915050565b60006109e4600019846008026109c6565b1980831691505092915050565b60006109fd83836109d3565b9150826002028217905092915050565b610a1682610653565b67ffffffffffffffff811115610a2f57610a2e610473565b5b610a398254610830565b610a44828285610980565b600060209050601f831160018114610a775760008415610a65578287015190505b610a6f85826109f1565b865550610ad7565b601f198416610a8586610861565b60005b82811015610aad57848901518255600182019150602085019450602081019050610a88565b86831015610aca5784890151610ac6601f8916826109d3565b8355505b6001600288020188555050505b50505050505056fea26469706673582212207e4080ab4f6c5fed868549cb8d0dd09abbd4cae86c6ef0b3d6766b63d98686c364736f6c63430008120033",
					"opcodes": "PUSH1 0x80 PUSH1 0x40 MSTORE PUSH1 0x1 PUSH1 0x0 DUP1 PUSH2 0x100 EXP DUP2 SLOAD DUP2 PUSH1 0xFF MUL NOT AND SWAP1 DUP4 ISZERO ISZERO MUL OR SWAP1 SSTORE POP PUSH2 0x100 PUSH1 0x1 SSTORE PUSH1 0x40 MLOAD DUP1 PUSH1 0x40 ADD PUSH1 0x40 MSTORE DUP1 PUSH1 0x4 DUP2 MSTORE PUSH1 0x20 ADD PUSH32 0x4669766500000000000000000000000000000000000000000000000000000000 DUP2 MSTORE POP PUSH1 0x2 SWAP1 DUP2 PUSH3 0x6A SWAP2 SWAP1 PUSH3 0x3E8 JUMP JUMPDEST POP PUSH1 0x5 PUSH1 0x3 SSTORE PUSH20 0xE3D5ECBFFAFF17F7B936A66CCF65121DA9D78989 PUSH1 0x4 PUSH1 0x0 PUSH2 0x100 EXP DUP2 SLOAD DUP2 PUSH20 0xFFFFFFFFFFFFFFFFFFFFFFFFFFFFFFFFFFFFFFFF MUL NOT AND SWAP1 DUP4 PUSH20 0xFFFFFFFFFFFFFFFFFFFFFFFFFFFFFFFFFFFFFFFF AND MUL OR SWAP1 SSTORE POP PUSH32 0x6361740000000000000000000000000000000000000000000000000000000000 PUSH1 0x5 SSTORE PUSH1 0x40 MLOAD DUP1 PUSH1 0x40 ADD PUSH1 0x40 MSTORE DUP1 PUSH1 0x2 DUP2 MSTORE PUSH1 0x20 ADD PUSH1 0x40 MLOAD DUP1 PUSH1 0x40 ADD PUSH1 0x40 MSTORE DUP1 PUSH1 0x7 DUP2 MSTORE PUSH1 0x20 ADD PUSH32 0x7061747269636B00000000000000000000000000000000000000000000000000 DUP2 MSTORE POP DUP2 MSTORE POP PUSH1 0x7 PUSH1 0x0 DUP3 ADD MLOAD DUP2 PUSH1 0x0 ADD SSTORE PUSH1 0x20 DUP3 ADD MLOAD DUP2 PUSH1 0x1 ADD SWAP1 DUP2 PUSH3 0x157 SWAP2 SWAP1 PUSH3 0x3E8 JUMP JUMPDEST POP POP POP CALLVALUE DUP1 ISZERO PUSH3 0x167 JUMPI PUSH1 0x0 DUP1 REVERT JUMPDEST POP PUSH3 0x4CF JUMP JUMPDEST PUSH1 0x0 DUP2 MLOAD SWAP1 POP SWAP2 SWAP1 POP JUMP JUMPDEST PUSH32 0x4E487B7100000000000000000000000000000000000000000000000000000000 PUSH1 0x0 MSTORE PUSH1 0x41 PUSH1 0x4 MSTORE PUSH1 0x24 PUSH1 0x0 REVERT JUMPDEST PUSH32 0x4E487B7100000000000000000000000000000000000000000000000000000000 PUSH1 0x0 MSTORE PUSH1 0x22 PUSH1 0x4 MSTORE PUSH1 0x24 PUSH1 0x0 REVERT JUMPDEST PUSH1 0x0 PUSH1 0x2 DUP3 DIV SWAP1 POP PUSH1 0x1 DUP3 AND DUP1 PUSH3 0x1F0 JUMPI PUSH1 0x7F DUP3 AND SWAP2 POP JUMPDEST PUSH1 0x20 DUP3 LT DUP2 SUB PUSH3 0x206 JUMPI PUSH3 0x205 PUSH3 0x1A8 JUMP JUMPDEST JUMPDEST POP SWAP2 SWAP1 POP JUMP JUMPDEST PUSH1 0x0 DUP2 SWAP1 POP DUP2 PUSH1 0x0 MSTORE PUSH1 0x20 PUSH1 0x0 KECCAK256 SWAP1 POP SWAP2 SWAP1 POP JUMP JUMPDEST PUSH1 0x0 PUSH1 0x20 PUSH1 0x1F DUP4 ADD DIV SWAP1 POP SWAP2 SWAP1 POP JUMP JUMPDEST PUSH1 0x0 DUP3 DUP3 SHL SWAP1 POP SWAP3 SWAP2 POP POP JUMP JUMPDEST PUSH1 0x0 PUSH1 0x8 DUP4 MUL PUSH3 0x270 PUSH32 0xFFFFFFFFFFFFFFFFFFFFFFFFFFFFFFFFFFFFFFFFFFFFFFFFFFFFFFFFFFFFFFFF DUP3 PUSH3 0x231 JUMP JUMPDEST PUSH3 0x27C DUP7 DUP4 PUSH3 0x231 JUMP JUMPDEST SWAP6 POP DUP1 NOT DUP5 AND SWAP4 POP DUP1 DUP7 AND DUP5 OR SWAP3 POP POP POP SWAP4 SWAP3 POP POP POP JUMP JUMPDEST PUSH1 0x0 DUP2 SWAP1 POP SWAP2 SWAP1 POP JUMP JUMPDEST PUSH1 0x0 DUP2 SWAP1 POP SWAP2 SWAP1 POP JUMP JUMPDEST PUSH1 0x0 PUSH3 0x2C9 PUSH3 0x2C3 PUSH3 0x2BD DUP5 PUSH3 0x294 JUMP JUMPDEST PUSH3 0x29E JUMP JUMPDEST PUSH3 0x294 JUMP JUMPDEST SWAP1 POP SWAP2 SWAP1 POP JUMP JUMPDEST PUSH1 0x0 DUP2 SWAP1 POP SWAP2 SWAP1 POP JUMP JUMPDEST PUSH3 0x2E5 DUP4 PUSH3 0x2A8 JUMP JUMPDEST PUSH3 0x2FD PUSH3 0x2F4 DUP3 PUSH3 0x2D0 JUMP JUMPDEST DUP5 DUP5 SLOAD PUSH3 0x23E JUMP JUMPDEST DUP3 SSTORE POP POP POP POP JUMP JUMPDEST PUSH1 0x0 SWAP1 JUMP JUMPDEST PUSH3 0x314 PUSH3 0x305 JUMP JUMPDEST PUSH3 0x321 DUP2 DUP5 DUP5 PUSH3 0x2DA JUMP JUMPDEST POP POP POP JUMP JUMPDEST JUMPDEST DUP2 DUP2 LT ISZERO PUSH3 0x349 JUMPI PUSH3 0x33D PUSH1 0x0 DUP3 PUSH3 0x30A JUMP JUMPDEST PUSH1 0x1 DUP2 ADD SWAP1 POP PUSH3 0x327 JUMP JUMPDEST POP POP JUMP JUMPDEST PUSH1 0x1F DUP3 GT ISZERO PUSH3 0x398 JUMPI PUSH3 0x362 DUP2 PUSH3 0x20C JUMP JUMPDEST PUSH3 0x36D DUP5 PUSH3 0x221 JUMP JUMPDEST DUP2 ADD PUSH1 0x20 DUP6 LT ISZERO PUSH3 0x37D JUMPI DUP2 SWAP1 POP JUMPDEST PUSH3 0x395 PUSH3 0x38C DUP6 PUSH3 0x221 JUMP JUMPDEST DUP4 ADD DUP3 PUSH3 0x326 JUMP JUMPDEST POP POP JUMPDEST POP POP POP JUMP JUMPDEST PUSH1 0x0 DUP3 DUP3 SHR SWAP1 POP SWAP3 SWAP2 POP POP JUMP JUMPDEST PUSH1 0x0 PUSH3 0x3BD PUSH1 0x0 NOT DUP5 PUSH1 0x8 MUL PUSH3 0x39D JUMP JUMPDEST NOT DUP1 DUP4 AND SWAP2 POP POP SWAP3 SWAP2 POP POP JUMP JUMPDEST PUSH1 0x0 PUSH3 0x3D8 DUP4 DUP4 PUSH3 0x3AA JUMP JUMPDEST SWAP2 POP DUP3 PUSH1 0x2 MUL DUP3 OR SWAP1 POP SWAP3 SWAP2 POP POP JUMP JUMPDEST PUSH3 0x3F3 DUP3 PUSH3 0x16E JUMP JUMPDEST PUSH8 0xFFFFFFFFFFFFFFFF DUP2 GT ISZERO PUSH3 0x40F JUMPI PUSH3 0x40E PUSH3 0x179 JUMP JUMPDEST JUMPDEST PUSH3 0x41B DUP3 SLOAD PUSH3 0x1D7 JUMP JUMPDEST PUSH3 0x428 DUP3 DUP3 DUP6 PUSH3 0x34D JUMP JUMPDEST PUSH1 0x0 PUSH1 0x20 SWAP1 POP PUSH1 0x1F DUP4 GT PUSH1 0x1 DUP2 EQ PUSH3 0x460 JUMPI PUSH1 0x0 DUP5 ISZERO PUSH3 0x44B JUMPI DUP3 DUP8 ADD MLOAD SWAP1 POP JUMPDEST PUSH3 0x457 DUP6 DUP3 PUSH3 0x3CA JUMP JUMPDEST DUP7 SSTORE POP PUSH3 0x4C7 JUMP JUMPDEST PUSH1 0x1F NOT DUP5 AND PUSH3 0x470 DUP7 PUSH3 0x20C JUMP JUMPDEST PUSH1 0x0 JUMPDEST DUP3 DUP2 LT ISZERO PUSH3 0x49A JUMPI DUP5 DUP10 ADD MLOAD DUP3 SSTORE PUSH1 0x1 DUP3 ADD SWAP2 POP PUSH1 0x20 DUP6 ADD SWAP5 POP PUSH1 0x20 DUP2 ADD SWAP1 POP PUSH3 0x473 JUMP JUMPDEST DUP7 DUP4 LT ISZERO PUSH3 0x4BA JUMPI DUP5 DUP10 ADD MLOAD PUSH3 0x4B6 PUSH1 0x1F DUP10 AND DUP3 PUSH3 0x3AA JUMP JUMPDEST DUP4 SSTORE POP JUMPDEST PUSH1 0x1 PUSH1 0x2 DUP9 MUL ADD DUP9 SSTORE POP POP POP JUMPDEST POP POP POP POP POP POP JUMP JUMPDEST PUSH2 0xB15 DUP1 PUSH3 0x4DF PUSH1 0x0 CODECOPY PUSH1 0x0 RETURN INVALID PUSH1 0x80 PUSH1 0x40 MSTORE CALLVALUE DUP1 ISZERO PUSH2 0x10 JUMPI PUSH1 0x0 DUP1 REVERT JUMPDEST POP PUSH1 0x4 CALLDATASIZE LT PUSH2 0x93 JUMPI PUSH1 0x0 CALLDATALOAD PUSH1 0xE0 SHR DUP1 PUSH4 0x77EC2B55 GT PUSH2 0x66 JUMPI DUP1 PUSH4 0x77EC2B55 EQ PUSH2 0x10C JUMPI DUP1 PUSH4 0x84184133 EQ PUSH2 0x12B JUMPI DUP1 PUSH4 0x9E7A13AD EQ PUSH2 0x149 JUMPI DUP1 PUSH4 0xB2AC62EF EQ PUSH2 0x17A JUMPI DUP1 PUSH4 0xE1B3202A EQ PUSH2 0x1AA JUMPI PUSH2 0x93 JUMP JUMPDEST DUP1 PUSH4 0x2E64CEC1 EQ PUSH2 0x98 JUMPI DUP1 PUSH4 0x46F2EEDF EQ PUSH2 0xB6 JUMPI DUP1 PUSH4 0x4F2BE91F EQ PUSH2 0xD2 JUMPI DUP1 PUSH4 0x6057361D EQ PUSH2 0xF0 JUMPI JUMPDEST PUSH1 0x0 DUP1 REVERT JUMPDEST PUSH2 0xA0 PUSH2 0x1C6 JUMP JUMPDEST PUSH1 0x40 MLOAD PUSH2 0xAD SWAP2 SWAP1 PUSH2 0x429 JUMP JUMPDEST PUSH1 0x40 MLOAD DUP1 SWAP2 SUB SWAP1 RETURN JUMPDEST PUSH2 0xD0 PUSH1 0x4 DUP1 CALLDATASIZE SUB DUP2 ADD SWAP1 PUSH2 0xCB SWAP2 SWAP1 PUSH2 0x5CA JUMP JUMPDEST PUSH2 0x1D0 JUMP JUMPDEST STOP JUMPDEST PUSH2 0xDA PUSH2 0x1F7 JUMP JUMPDEST PUSH1 0x40 MLOAD PUSH2 0xE7 SWAP2 SWAP1 PUSH2 0x429 JUMP JUMPDEST PUSH1 0x40 MLOAD DUP1 SWAP2 SUB SWAP1 RETURN JUMPDEST PUSH2 0x10A PUSH1 0x4 DUP1 CALLDATASIZE SUB DUP2 ADD SWAP1 PUSH2 0x105 SWAP2 SWAP1 PUSH2 0x626 JUMP JUMPDEST PUSH2 0x200 JUMP JUMPDEST STOP JUMPDEST PUSH2 0x114 PUSH2 0x220 JUMP JUMPDEST PUSH1 0x40 MLOAD PUSH2 0x122 SWAP3 SWAP2 SWAP1 PUSH2 0x6D2 JUMP JUMPDEST PUSH1 0x40 MLOAD DUP1 SWAP2 SUB SWAP1 RETURN JUMPDEST PUSH2 0x133 PUSH2 0x2BA JUMP JUMPDEST PUSH1 0x40 MLOAD PUSH2 0x140 SWAP2 SWAP1 PUSH2 0x429 JUMP JUMPDEST PUSH1 0x40 MLOAD DUP1 SWAP2 SUB SWAP1 RETURN JUMPDEST PUSH2 0x163 PUSH1 0x4 DUP1 CALLDATASIZE SUB DUP2 ADD SWAP1 PUSH2 0x15E SWAP2 SWAP1 PUSH2 0x626 JUMP JUMPDEST PUSH2 0x2C0 JUMP JUMPDEST PUSH1 0x40 MLOAD PUSH2 0x171 SWAP3 SWAP2 SWAP1 PUSH2 0x6D2 JUMP JUMPDEST PUSH1 0x40 MLOAD DUP1 SWAP2 SUB SWAP1 RETURN JUMPDEST PUSH2 0x194 PUSH1 0x4 DUP1 CALLDATASIZE SUB DUP2 ADD SWAP1 PUSH2 0x18F SWAP2 SWAP1 PUSH2 0x702 JUMP JUMPDEST PUSH2 0x37C JUMP JUMPDEST PUSH1 0x40 MLOAD PUSH2 0x1A1 SWAP2 SWAP1 PUSH2 0x429 JUMP JUMPDEST PUSH1 0x40 MLOAD DUP1 SWAP2 SUB SWAP1 RETURN JUMPDEST PUSH2 0x1C4 PUSH1 0x4 DUP1 CALLDATASIZE SUB DUP2 ADD SWAP1 PUSH2 0x1BF SWAP2 SWAP1 PUSH2 0x5CA JUMP JUMPDEST PUSH2 0x3AA JUMP JUMPDEST STOP JUMPDEST PUSH1 0x0 PUSH1 0x1 SLOAD SWAP1 POP SWAP1 JUMP JUMPDEST DUP1 PUSH1 0xA DUP4 PUSH1 0x40 MLOAD PUSH2 0x1E1 SWAP2 SWAP1 PUSH2 0x787 JUMP JUMPDEST SWAP1 DUP2 MSTORE PUSH1 0x20 ADD PUSH1 0x40 MLOAD DUP1 SWAP2 SUB SWAP1 KECCAK256 DUP2 SWAP1 SSTORE POP POP POP JUMP JUMPDEST PUSH1 0x0 PUSH1 0x2 SWAP1 POP SWAP1 JUMP JUMPDEST DUP1 PUSH1 0x6 DUP2 SWAP1 SSTORE POP PUSH1 0x0 PUSH1 0xC SWAP1 POP PUSH1 0x1 DUP2 PUSH2 0x21A SWAP2 SWAP1 PUSH2 0x7CD JUMP JUMPDEST SWAP1 POP POP POP JUMP JUMPDEST PUSH1 0x7 DUP1 PUSH1 0x0 ADD SLOAD SWAP1 DUP1 PUSH1 0x1 ADD DUP1 SLOAD PUSH2 0x237 SWAP1 PUSH2 0x830 JUMP JUMPDEST DUP1 PUSH1 0x1F ADD PUSH1 0x20 DUP1 SWAP2 DIV MUL PUSH1 0x20 ADD PUSH1 0x40 MLOAD SWAP1 DUP2 ADD PUSH1 0x40 MSTORE DUP1 SWAP3 SWAP2 SWAP1 DUP2 DUP2 MSTORE PUSH1 0x20 ADD DUP3 DUP1 SLOAD PUSH2 0x263 SWAP1 PUSH2 0x830 JUMP JUMPDEST DUP1 ISZERO PUSH2 0x2B0 JUMPI DUP1 PUSH1 0x1F LT PUSH2 0x285 JUMPI PUSH2 0x100 DUP1 DUP4 SLOAD DIV MUL DUP4 MSTORE SWAP2 PUSH1 0x20 ADD SWAP2 PUSH2 0x2B0 JUMP JUMPDEST DUP3 ADD SWAP2 SWAP1 PUSH1 0x0 MSTORE PUSH1 0x20 PUSH1 0x0 KECCAK256 SWAP1 JUMPDEST DUP2 SLOAD DUP2 MSTORE SWAP1 PUSH1 0x1 ADD SWAP1 PUSH1 0x20 ADD DUP1 DUP4 GT PUSH2 0x293 JUMPI DUP3 SWAP1 SUB PUSH1 0x1F AND DUP3 ADD SWAP2 JUMPDEST POP POP POP POP POP SWAP1 POP DUP3 JUMP JUMPDEST PUSH1 0x6 SLOAD DUP2 JUMP JUMPDEST PUSH1 0x9 DUP2 DUP2 SLOAD DUP2 LT PUSH2 0x2D0 JUMPI PUSH1 0x0 DUP1 REVERT JUMPDEST SWAP1 PUSH1 0x0 MSTORE PUSH1 0x20 PUSH1 0x0 KECCAK256 SWAP1 PUSH1 0x2 MUL ADD PUSH1 0x0 SWAP2 POP SWAP1 POP DUP1 PUSH1 0x0 ADD SLOAD SWAP1 DUP1 PUSH1 0x1 ADD DUP1 SLOAD PUSH2 0x2F9 SWAP1 PUSH2 0x830 JUMP JUMPDEST DUP1 PUSH1 0x1F ADD PUSH1 0x20 DUP1 SWAP2 DIV MUL PUSH1 0x20 ADD PUSH1 0x40 MLOAD SWAP1 DUP2 ADD PUSH1 0x40 MSTORE DUP1 SWAP3 SWAP2 SWAP1 DUP2 DUP2 MSTORE PUSH1 0x20 ADD DUP3 DUP1 SLOAD PUSH2 0x325 SWAP1 PUSH2 0x830 JUMP JUMPDEST DUP1 ISZERO PUSH2 0x372 JUMPI DUP1 PUSH1 0x1F LT PUSH2 0x347 JUMPI PUSH2 0x100 DUP1 DUP4 SLOAD DIV MUL DUP4 MSTORE SWAP2 PUSH1 0x20 ADD SWAP2 PUSH2 0x372 JUMP JUMPDEST DUP3 ADD SWAP2 SWAP1 PUSH1 0x0 MSTORE PUSH1 0x20 PUSH1 0x0 KECCAK256 SWAP1 JUMPDEST DUP2 SLOAD DUP2 MSTORE SWAP1 PUSH1 0x1 ADD SWAP1 PUSH1 0x20 ADD DUP1 DUP4 GT PUSH2 0x355 JUMPI DUP3 SWAP1 SUB PUSH1 0x1F AND DUP3 ADD SWAP2 JUMPDEST POP POP POP POP POP SWAP1 POP DUP3 JUMP JUMPDEST PUSH1 0xA DUP2 DUP1 MLOAD PUSH1 0x20 DUP2 ADD DUP3 ADD DUP1 MLOAD DUP5 DUP3 MSTORE PUSH1 0x20 DUP4 ADD PUSH1 0x20 DUP6 ADD KECCAK256 DUP2 DUP4 MSTORE DUP1 SWAP6 POP POP POP POP POP POP PUSH1 0x0 SWAP2 POP SWAP1 POP SLOAD DUP2 JUMP JUMPDEST PUSH1 0x9 PUSH1 0x40 MLOAD DUP1 PUSH1 0x40 ADD PUSH1 0x40 MSTORE DUP1 DUP4 DUP2 MSTORE PUSH1 0x20 ADD DUP5 DUP2 MSTORE POP SWAP1 DUP1 PUSH1 0x1 DUP2 SLOAD ADD DUP1 DUP3 SSTORE DUP1 SWAP2 POP POP PUSH1 0x1 SWAP1 SUB SWAP1 PUSH1 0x0 MSTORE PUSH1 0x20 PUSH1 0x0 KECCAK256 SWAP1 PUSH1 0x2 MUL ADD PUSH1 0x0 SWAP1 SWAP2 SWAP1 SWAP2 SWAP1 SWAP2 POP PUSH1 0x0 DUP3 ADD MLOAD DUP2 PUSH1 0x0 ADD SSTORE PUSH1 0x20 DUP3 ADD MLOAD DUP2 PUSH1 0x1 ADD SWAP1 DUP2 PUSH2 0x409 SWAP2 SWAP1 PUSH2 0xA0D JUMP JUMPDEST POP POP POP POP POP JUMP JUMPDEST PUSH1 0x0 DUP2 SWAP1 POP SWAP2 SWAP1 POP JUMP JUMPDEST PUSH2 0x423 DUP2 PUSH2 0x410 JUMP JUMPDEST DUP3 MSTORE POP POP JUMP JUMPDEST PUSH1 0x0 PUSH1 0x20 DUP3 ADD SWAP1 POP PUSH2 0x43E PUSH1 0x0 DUP4 ADD DUP5 PUSH2 0x41A JUMP JUMPDEST SWAP3 SWAP2 POP POP JUMP JUMPDEST PUSH1 0x0 PUSH1 0x40 MLOAD SWAP1 POP SWAP1 JUMP JUMPDEST PUSH1 0x0 DUP1 REVERT JUMPDEST PUSH1 0x0 DUP1 REVERT JUMPDEST PUSH1 0x0 DUP1 REVERT JUMPDEST PUSH1 0x0 DUP1 REVERT JUMPDEST PUSH1 0x0 PUSH1 0x1F NOT PUSH1 0x1F DUP4 ADD AND SWAP1 POP SWAP2 SWAP1 POP JUMP JUMPDEST PUSH32 0x4E487B7100000000000000000000000000000000000000000000000000000000 PUSH1 0x0 MSTORE PUSH1 0x41 PUSH1 0x4 MSTORE PUSH1 0x24 PUSH1 0x0 REVERT JUMPDEST PUSH2 0x4AB DUP3 PUSH2 0x462 JUMP JUMPDEST DUP2 ADD DUP2 DUP2 LT PUSH8 0xFFFFFFFFFFFFFFFF DUP3 GT OR ISZERO PUSH2 0x4CA JUMPI PUSH2 0x4C9 PUSH2 0x473 JUMP JUMPDEST JUMPDEST DUP1 PUSH1 0x40 MSTORE POP POP POP JUMP JUMPDEST PUSH1 0x0 PUSH2 0x4DD PUSH2 0x444 JUMP JUMPDEST SWAP1 POP PUSH2 0x4E9 DUP3 DUP3 PUSH2 0x4A2 JUMP JUMPDEST SWAP2 SWAP1 POP JUMP JUMPDEST PUSH1 0x0 PUSH8 0xFFFFFFFFFFFFFFFF DUP3 GT ISZERO PUSH2 0x509 JUMPI PUSH2 0x508 PUSH2 0x473 JUMP JUMPDEST JUMPDEST PUSH2 0x512 DUP3 PUSH2 0x462 JUMP JUMPDEST SWAP1 POP PUSH1 0x20 DUP2 ADD SWAP1 POP SWAP2 SWAP1 POP JUMP JUMPDEST DUP3 DUP2 DUP4 CALLDATACOPY PUSH1 0x0 DUP4 DUP4 ADD MSTORE POP POP POP JUMP JUMPDEST PUSH1 0x0 PUSH2 0x541 PUSH2 0x53C DUP5 PUSH2 0x4EE JUMP JUMPDEST PUSH2 0x4D3 JUMP JUMPDEST SWAP1 POP DUP3 DUP2 MSTORE PUSH1 0x20 DUP2 ADD DUP5 DUP5 DUP5 ADD GT ISZERO PUSH2 0x55D JUMPI PUSH2 0x55C PUSH2 0x45D JUMP JUMPDEST JUMPDEST PUSH2 0x568 DUP5 DUP3 DUP6 PUSH2 0x51F JUMP JUMPDEST POP SWAP4 SWAP3 POP POP POP JUMP JUMPDEST PUSH1 0x0 DUP3 PUSH1 0x1F DUP4 ADD SLT PUSH2 0x585 JUMPI PUSH2 0x584 PUSH2 0x458 JUMP JUMPDEST JUMPDEST DUP2 CALLDATALOAD PUSH2 0x595 DUP5 DUP3 PUSH1 0x20 DUP7 ADD PUSH2 0x52E JUMP JUMPDEST SWAP2 POP POP SWAP3 SWAP2 POP POP JUMP JUMPDEST PUSH2 0x5A7 DUP2 PUSH2 0x410 JUMP JUMPDEST DUP2 EQ PUSH2 0x5B2 JUMPI PUSH1 0x0 DUP1 REVERT JUMPDEST POP JUMP JUMPDEST PUSH1 0x0 DUP2 CALLDATALOAD SWAP1 POP PUSH2 0x5C4 DUP2 PUSH2 0x59E JUMP JUMPDEST SWAP3 SWAP2 POP POP JUMP JUMPDEST PUSH1 0x0 DUP1 PUSH1 0x40 DUP4 DUP6 SUB SLT ISZERO PUSH2 0x5E1 JUMPI PUSH2 0x5E0 PUSH2 0x44E JUMP JUMPDEST JUMPDEST PUSH1 0x0 DUP4 ADD CALLDATALOAD PUSH8 0xFFFFFFFFFFFFFFFF DUP2 GT ISZERO PUSH2 0x5FF JUMPI PUSH2 0x5FE PUSH2 0x453 JUMP JUMPDEST JUMPDEST PUSH2 0x60B DUP6 DUP3 DUP7 ADD PUSH2 0x570 JUMP JUMPDEST SWAP3 POP POP PUSH1 0x20 PUSH2 0x61C DUP6 DUP3 DUP7 ADD PUSH2 0x5B5 JUMP JUMPDEST SWAP2 POP POP SWAP3 POP SWAP3 SWAP1 POP JUMP JUMPDEST PUSH1 0x0 PUSH1 0x20 DUP3 DUP5 SUB SLT ISZERO PUSH2 0x63C JUMPI PUSH2 0x63B PUSH2 0x44E JUMP JUMPDEST JUMPDEST PUSH1 0x0 PUSH2 0x64A DUP5 DUP3 DUP6 ADD PUSH2 0x5B5 JUMP JUMPDEST SWAP2 POP POP SWAP3 SWAP2 POP POP JUMP JUMPDEST PUSH1 0x0 DUP2 MLOAD SWAP1 POP SWAP2 SWAP1 POP JUMP JUMPDEST PUSH1 0x0 DUP3 DUP3 MSTORE PUSH1 0x20 DUP3 ADD SWAP1 POP SWAP3 SWAP2 POP POP JUMP JUMPDEST PUSH1 0x0 JUMPDEST DUP4 DUP2 LT ISZERO PUSH2 0x68D JUMPI DUP1 DUP3 ADD MLOAD DUP2 DUP5 ADD MSTORE PUSH1 0x20 DUP2 ADD SWAP1 POP PUSH2 0x672 JUMP JUMPDEST PUSH1 0x0 DUP5 DUP5 ADD MSTORE POP POP POP POP JUMP JUMPDEST PUSH1 0x0 PUSH2 0x6A4 DUP3 PUSH2 0x653 JUMP JUMPDEST PUSH2 0x6AE DUP2 DUP6 PUSH2 0x65E JUMP JUMPDEST SWAP4 POP PUSH2 0x6BE DUP2 DUP6 PUSH1 0x20 DUP7 ADD PUSH2 0x66F JUMP JUMPDEST PUSH2 0x6C7 DUP2 PUSH2 0x462 JUMP JUMPDEST DUP5 ADD SWAP2 POP POP SWAP3 SWAP2 POP POP JUMP JUMPDEST PUSH1 0x0 PUSH1 0x40 DUP3 ADD SWAP1 POP PUSH2 0x6E7 PUSH1 0x0 DUP4 ADD DUP6 PUSH2 0x41A JUMP JUMPDEST DUP2 DUP2 SUB PUSH1 0x20 DUP4 ADD MSTORE PUSH2 0x6F9 DUP2 DUP5 PUSH2 0x699 JUMP JUMPDEST SWAP1 POP SWAP4 SWAP3 POP POP POP JUMP JUMPDEST PUSH1 0x0 PUSH1 0x20 DUP3 DUP5 SUB SLT ISZERO PUSH2 0x718 JUMPI PUSH2 0x717 PUSH2 0x44E JUMP JUMPDEST JUMPDEST PUSH1 0x0 DUP3 ADD CALLDATALOAD PUSH8 0xFFFFFFFFFFFFFFFF DUP2 GT ISZERO PUSH2 0x736 JUMPI PUSH2 0x735 PUSH2 0x453 JUMP JUMPDEST JUMPDEST PUSH2 0x742 DUP5 DUP3 DUP6 ADD PUSH2 0x570 JUMP JUMPDEST SWAP2 POP POP SWAP3 SWAP2 POP POP JUMP JUMPDEST PUSH1 0x0 DUP2 SWAP1 POP SWAP3 SWAP2 POP POP JUMP JUMPDEST PUSH1 0x0 PUSH2 0x761 DUP3 PUSH2 0x653 JUMP JUMPDEST PUSH2 0x76B DUP2 DUP6 PUSH2 0x74B JUMP JUMPDEST SWAP4 POP PUSH2 0x77B DUP2 DUP6 PUSH1 0x20 DUP7 ADD PUSH2 0x66F JUMP JUMPDEST DUP1 DUP5 ADD SWAP2 POP POP SWAP3 SWAP2 POP POP JUMP JUMPDEST PUSH1 0x0 PUSH2 0x793 DUP3 DUP5 PUSH2 0x756 JUMP JUMPDEST SWAP2 POP DUP2 SWAP1 POP SWAP3 SWAP2 POP POP JUMP JUMPDEST PUSH32 0x4E487B7100000000000000000000000000000000000000000000000000000000 PUSH1 0x0 MSTORE PUSH1 0x11 PUSH1 0x4 MSTORE PUSH1 0x24 PUSH1 0x0 REVERT JUMPDEST PUSH1 0x0 PUSH2 0x7D8 DUP3 PUSH2 0x410 JUMP JUMPDEST SWAP2 POP PUSH2 0x7E3 DUP4 PUSH2 0x410 JUMP JUMPDEST SWAP3 POP DUP3 DUP3 ADD SWAP1 POP DUP1 DUP3 GT ISZERO PUSH2 0x7FB JUMPI PUSH2 0x7FA PUSH2 0x79E JUMP JUMPDEST JUMPDEST SWAP3 SWAP2 POP POP JUMP JUMPDEST PUSH32 0x4E487B7100000000000000000000000000000000000000000000000000000000 PUSH1 0x0 MSTORE PUSH1 0x22 PUSH1 0x4 MSTORE PUSH1 0x24 PUSH1 0x0 REVERT JUMPDEST PUSH1 0x0 PUSH1 0x2 DUP3 DIV SWAP1 POP PUSH1 0x1 DUP3 AND DUP1 PUSH2 0x848 JUMPI PUSH1 0x7F DUP3 AND SWAP2 POP JUMPDEST PUSH1 0x20 DUP3 LT DUP2 SUB PUSH2 0x85B JUMPI PUSH2 0x85A PUSH2 0x801 JUMP JUMPDEST JUMPDEST POP SWAP2 SWAP1 POP JUMP JUMPDEST PUSH1 0x0 DUP2 SWAP1 POP DUP2 PUSH1 0x0 MSTORE PUSH1 0x20 PUSH1 0x0 KECCAK256 SWAP1 POP SWAP2 SWAP1 POP JUMP JUMPDEST PUSH1 0x0 PUSH1 0x20 PUSH1 0x1F DUP4 ADD DIV SWAP1 POP SWAP2 SWAP1 POP JUMP JUMPDEST PUSH1 0x0 DUP3 DUP3 SHL SWAP1 POP SWAP3 SWAP2 POP POP JUMP JUMPDEST PUSH1 0x0 PUSH1 0x8 DUP4 MUL PUSH2 0x8C3 PUSH32 0xFFFFFFFFFFFFFFFFFFFFFFFFFFFFFFFFFFFFFFFFFFFFFFFFFFFFFFFFFFFFFFFF DUP3 PUSH2 0x886 JUMP JUMPDEST PUSH2 0x8CD DUP7 DUP4 PUSH2 0x886 JUMP JUMPDEST SWAP6 POP DUP1 NOT DUP5 AND SWAP4 POP DUP1 DUP7 AND DUP5 OR SWAP3 POP POP POP SWAP4 SWAP3 POP POP POP JUMP JUMPDEST PUSH1 0x0 DUP2 SWAP1 POP SWAP2 SWAP1 POP JUMP JUMPDEST PUSH1 0x0 PUSH2 0x90A PUSH2 0x905 PUSH2 0x900 DUP5 PUSH2 0x410 JUMP JUMPDEST PUSH2 0x8E5 JUMP JUMPDEST PUSH2 0x410 JUMP JUMPDEST SWAP1 POP SWAP2 SWAP1 POP JUMP JUMPDEST PUSH1 0x0 DUP2 SWAP1 POP SWAP2 SWAP1 POP JUMP JUMPDEST PUSH2 0x924 DUP4 PUSH2 0x8EF JUMP JUMPDEST PUSH2 0x938 PUSH2 0x930 DUP3 PUSH2 0x911 JUMP JUMPDEST DUP5 DUP5 SLOAD PUSH2 0x893 JUMP JUMPDEST DUP3 SSTORE POP POP POP POP JUMP JUMPDEST PUSH1 0x0 SWAP1 JUMP JUMPDEST PUSH2 0x94D PUSH2 0x940 JUMP JUMPDEST PUSH2 0x958 DUP2 DUP5 DUP5 PUSH2 0x91B JUMP JUMPDEST POP POP POP JUMP JUMPDEST JUMPDEST DUP2 DUP2 LT ISZERO PUSH2 0x97C JUMPI PUSH2 0x971 PUSH1 0x0 DUP3 PUSH2 0x945 JUMP JUMPDEST PUSH1 0x1 DUP2 ADD SWAP1 POP PUSH2 0x95E JUMP JUMPDEST POP POP JUMP JUMPDEST PUSH1 0x1F DUP3 GT ISZERO PUSH2 0x9C1 JUMPI PUSH2 0x992 DUP2 PUSH2 0x861 JUMP JUMPDEST PUSH2 0x99B DUP5 PUSH2 0x876 JUMP JUMPDEST DUP2 ADD PUSH1 0x20 DUP6 LT ISZERO PUSH2 0x9AA JUMPI DUP2 SWAP1 POP JUMPDEST PUSH2 0x9BE PUSH2 0x9B6 DUP6 PUSH2 0x876 JUMP JUMPDEST DUP4 ADD DUP3 PUSH2 0x95D JUMP JUMPDEST POP POP JUMPDEST POP POP POP JUMP JUMPDEST PUSH1 0x0 DUP3 DUP3 SHR SWAP1 POP SWAP3 SWAP2 POP POP JUMP JUMPDEST PUSH1 0x0 PUSH2 0x9E4 PUSH1 0x0 NOT DUP5 PUSH1 0x8 MUL PUSH2 0x9C6 JUMP JUMPDEST NOT DUP1 DUP4 AND SWAP2 POP POP SWAP3 SWAP2 POP POP JUMP JUMPDEST PUSH1 0x0 PUSH2 0x9FD DUP4 DUP4 PUSH2 0x9D3 JUMP JUMPDEST SWAP2 POP DUP3 PUSH1 0x2 MUL DUP3 OR SWAP1 POP SWAP3 SWAP2 POP POP JUMP JUMPDEST PUSH2 0xA16 DUP3 PUSH2 0x653 JUMP JUMPDEST PUSH8 0xFFFFFFFFFFFFFFFF DUP2 GT ISZERO PUSH2 0xA2F JUMPI PUSH2 0xA2E PUSH2 0x473 JUMP JUMPDEST JUMPDEST PUSH2 0xA39 DUP3 SLOAD PUSH2 0x830 JUMP JUMPDEST PUSH2 0xA44 DUP3 DUP3 DUP6 PUSH2 0x980 JUMP JUMPDEST PUSH1 0x0 PUSH1 0x20 SWAP1 POP PUSH1 0x1F DUP4 GT PUSH1 0x1 DUP2 EQ PUSH2 0xA77 JUMPI PUSH1 0x0 DUP5 ISZERO PUSH2 0xA65 JUMPI DUP3 DUP8 ADD MLOAD SWAP1 POP JUMPDEST PUSH2 0xA6F DUP6 DUP3 PUSH2 0x9F1 JUMP JUMPDEST DUP7 SSTORE POP PUSH2 0xAD7 JUMP JUMPDEST PUSH1 0x1F NOT DUP5 AND PUSH2 0xA85 DUP7 PUSH2 0x861 JUMP JUMPDEST PUSH1 0x0 JUMPDEST DUP3 DUP2 LT ISZERO PUSH2 0xAAD JUMPI DUP5 DUP10 ADD MLOAD DUP3 SSTORE PUSH1 0x1 DUP3 ADD SWAP2 POP PUSH1 0x20 DUP6 ADD SWAP5 POP PUSH1 0x20 DUP2 ADD SWAP1 POP PUSH2 0xA88 JUMP JUMPDEST DUP7 DUP4 LT ISZERO PUSH2 0xACA JUMPI DUP5 DUP10 ADD MLOAD PUSH2 0xAC6 PUSH1 0x1F DUP10 AND DUP3 PUSH2 0x9D3 JUMP JUMPDEST DUP4 SSTORE POP JUMPDEST PUSH1 0x1 PUSH1 0x2 DUP9 MUL ADD DUP9 SSTORE POP POP POP JUMPDEST POP POP POP POP POP POP JUMP INVALID LOG2 PUSH5 0x6970667358 0x22 SLT KECCAK256 PUSH31 0x4080AB4F6C5FED868549CB8D0DD09ABBD4CAE86C6EF0B3D6766B63D98686C3 PUSH5 0x736F6C6343 STOP ADDMOD SLT STOP CALLER "
				},
				"gasEstimates": {
					"creation": {
						"codeDepositCost": "567400",
						"executionCost": "infinite",
						"totalCost": "infinite"
					},
					"external": {
						"FavouriteNumber()": "2451",
						"add()": "382",
						"addperson(string,uint256)": "infinite",
						"nameToFavouriteNumber(string)": "infinite",
						"people(uint256)": "infinite",
						"person()": "infinite",
						"retrieve()": "2438",
						"setmap(string,uint256)": "infinite",
						"store(uint256)": "infinite"
					}
				},
				"methodIdentifiers": {
					"FavouriteNumber()": "84184133",
					"add()": "4f2be91f",
					"addperson(string,uint256)": "e1b3202a",
					"nameToFavouriteNumber(string)": "b2ac62ef",
					"people(uint256)": "9e7a13ad",
					"person()": "77ec2b55",
					"retrieve()": "2e64cec1",
					"setmap(string,uint256)": "46f2eedf",
					"store(uint256)": "6057361d"
				}
			},
			"storageLayout": {
				"storage": [
					{
						"astId": 4,
						"contract": "1-SimpleStorage.sol:SimpleStorage",
						"label": "hasFavouriteNumber",
						"offset": 0,
						"slot": "0",
						"type": "t_bool"
					},
					{
						"astId": 7,
						"contract": "1-SimpleStorage.sol:SimpleStorage",
						"label": "FavouriteNo",
						"offset": 0,
						"slot": "1",
						"type": "t_uint256"
					},
					{
						"astId": 10,
						"contract": "1-SimpleStorage.sol:SimpleStorage",
						"label": "FavouriteNumberText",
						"offset": 0,
						"slot": "2",
						"type": "t_string_storage"
					},
					{
						"astId": 13,
						"contract": "1-SimpleStorage.sol:SimpleStorage",
						"label": "Number",
						"offset": 0,
						"slot": "3",
						"type": "t_int256"
					},
					{
						"astId": 16,
						"contract": "1-SimpleStorage.sol:SimpleStorage",
						"label": "myAddress",
						"offset": 0,
						"slot": "4",
						"type": "t_address"
					},
					{
						"astId": 19,
						"contract": "1-SimpleStorage.sol:SimpleStorage",
						"label": "Favouritebyte",
						"offset": 0,
						"slot": "5",
						"type": "t_bytes32"
					},
					{
						"astId": 21,
						"contract": "1-SimpleStorage.sol:SimpleStorage",
						"label": "FavouriteNumber",
						"offset": 0,
						"slot": "6",
						"type": "t_uint256"
					},
					{
						"astId": 72,
						"contract": "1-SimpleStorage.sol:SimpleStorage",
						"label": "person",
						"offset": 0,
						"slot": "7",
						"type": "t_struct(People)65_storage"
					},
					{
						"astId": 76,
						"contract": "1-SimpleStorage.sol:SimpleStorage",
						"label": "people",
						"offset": 0,
						"slot": "9",
						"type": "t_array(t_struct(People)65_storage)dyn_storage"
					},
					{
						"astId": 97,
						"contract": "1-SimpleStorage.sol:SimpleStorage",
						"label": "nameToFavouriteNumber",
						"offset": 0,
						"slot": "10",
						"type": "t_mapping(t_string_memory_ptr,t_uint256)"
					}
				],
				"types": {
					"t_address": {
						"encoding": "inplace",
						"label": "address",
						"numberOfBytes": "20"
					},
					"t_array(t_struct(People)65_storage)dyn_storage": {
						"base": "t_struct(People)65_storage",
						"encoding": "dynamic_array",
						"label": "struct SimpleStorage.People[]",
						"numberOfBytes": "32"
					},
					"t_bool": {
						"encoding": "inplace",
						"label": "bool",
						"numberOfBytes": "1"
					},
					"t_bytes32": {
						"encoding": "inplace",
						"label": "bytes32",
						"numberOfBytes": "32"
					},
					"t_int256": {
						"encoding": "inplace",
						"label": "int256",
						"numberOfBytes": "32"
					},
					"t_mapping(t_string_memory_ptr,t_uint256)": {
						"encoding": "mapping",
						"key": "t_string_memory_ptr",
						"label": "mapping(string => uint256)",
						"numberOfBytes": "32",
						"value": "t_uint256"
					},
					"t_string_memory_ptr": {
						"encoding": "bytes",
						"label": "string",
						"numberOfBytes": "32"
					},
					"t_string_storage": {
						"encoding": "bytes",
						"label": "string",
						"numberOfBytes": "32"
					},
					"t_struct(People)65_storage": {
						"encoding": "inplace",
						"label": "struct SimpleStorage.People",
						"members": [
							{
								"astId": 62,
								"contract": "1-SimpleStorage.sol:SimpleStorage",
								"label": "favouriteNumber",
								"offset": 0,
								"slot": "0",
								"type": "t_uint256"
							},
							{
								"astId": 64,
								"contract": "1-SimpleStorage.sol:SimpleStorage",
								"label": "name",
								"offset": 0,
								"slot": "1",
								"type": "t_string_storage"
							}
						],
						"numberOfBytes": "64"
					},
					"t_uint256": {
						"encoding": "inplace",
						"label": "uint256",
						"numberOfBytes": "32"
					}
				}
			},
			"userdoc": {
				"kind": "user",
				"methods": {},
				"version": 1
			}
		}
	}
}